{
	"data": {
		"bytecode": {
			"linkReferences": {},
			"object": "608060405234801561001057600080fd5b50336000806101000a81548173ffffffffffffffffffffffffffffffffffffffff021916908373ffffffffffffffffffffffffffffffffffffffff160217905550610fe2806100606000396000f3fe60806040526004361061008a5760003560e01c80639f81aed7116100595780639f81aed714610164578063b0f8b1421461018f578063c1a287e2146101bf578063c4d252f5146101ea578063e39782401461021357610091565b8063237ee8e1146100965780634125ff90146100d35780634b9915a5146100fe5780638a1ce0b61461012757610091565b3661009157005b600080fd5b3480156100a257600080fd5b506100bd60048036038101906100b8919061099b565b61023e565b6040516100ca91906109e3565b60405180910390f35b3480156100df57600080fd5b506100e861025e565b6040516100f59190610a17565b60405180910390f35b34801561010a57600080fd5b5061012560048036038101906101209190610b77565b610264565b005b34801561013357600080fd5b5061014e60048036038101906101499190610b77565b610442565b60405161015b9190610c42565b60405180910390f35b34801561017057600080fd5b50610179610484565b6040516101869190610a17565b60405180910390f35b6101a960048036038101906101a49190610b77565b610489565b6040516101b69190610ced565b60405180910390f35b3480156101cb57600080fd5b506101d46107ee565b6040516101e19190610a17565b60405180910390f35b3480156101f657600080fd5b50610211600480360381019061020c919061099b565b6107f4565b005b34801561021f57600080fd5b50610228610937565b6040516102359190610d1e565b60405180910390f35b60016020528060005260406000206000915054906101000a900460ff1681565b6103e881565b60008054906101000a900473ffffffffffffffffffffffffffffffffffffffff1673ffffffffffffffffffffffffffffffffffffffff163373ffffffffffffffffffffffffffffffffffffffff16146102e9576040517f74a2152700000000000000000000000000000000000000000000000000000000815260040160405180910390fd5b60006102fa88888888888888610442565b90506001600082815260200190815260200160002060009054906101000a900460ff161561035f57806040517f995042be0000000000000000000000000000000000000000000000000000000081526004016103569190610c42565b60405180910390fd5b600a4261036c9190610d68565b82108061038557506103e8426103829190610d68565b82115b156103c95742826040517f1a9616c20000000000000000000000000000000000000000000000000000000081526004016103c0929190610d9c565b60405180910390fd5b600180600083815260200190815260200160002060006101000a81548160ff021916908315150217905550807f3c22f47140594040d205a5533cfedd86c9ab8622c39ead03affb2d97052c794c898989898989896040516104309796959493929190610e3f565b60405180910390a25050505050505050565b6000878787878787876040516020016104619796959493929190610e3f565b604051602081830303815290604052805190602001209050979650505050505050565b600a81565b606060008054906101000a900473ffffffffffffffffffffffffffffffffffffffff1673ffffffffffffffffffffffffffffffffffffffff163373ffffffffffffffffffffffffffffffffffffffff1614610510576040517f74a2152700000000000000000000000000000000000000000000000000000000815260040160405180910390fd5b600061052189898989898989610442565b90506001600082815260200190815260200160002060009054906101000a900460ff1661058557806040517f0995c9d500000000000000000000000000000000000000000000000000000000815260040161057c9190610c42565b60405180910390fd5b824210156105cc5742836040517f035fce5b0000000000000000000000000000000000000000000000000000000081526004016105c3929190610d9c565b60405180910390fd5b6103e8836105da9190610d68565b42111561062d57426103e8846105f09190610d68565b6040517f92ae26d1000000000000000000000000000000000000000000000000000000008152600401610624929190610d9c565b60405180910390fd5b6060600088889050111561067d57878760405161064b929190610ed4565b6040518091039020868660405160200161066793929190610f3a565b60405160208183030381529060405290506106c5565b85858080601f016020809104026020016040519081016040528093929190818152602001838380828437600081840152601f19601f8201169050808301925050505050505090505b6000808b73ffffffffffffffffffffffffffffffffffffffff168b846040516106ee9190610f95565b60006040518083038185875af1925050503d806000811461072b576040519150601f19603f3d011682016040523d82523d6000602084013e610730565b606091505b50915091508161076c576040517fd9b4f81e00000000000000000000000000000000000000000000000000000000815260040160405180910390fd5b837fd1d5c3c892c18716bd88852091d1b63dc6849e9d7c37f69d566884bf954d4bd98d8d8d8d8d8d8d6040516107a89796959493929190610e3f565b60405180910390a260006001600086815260200190815260200160002060006101000a81548160ff02191690831515021790555080945050505050979650505050505050565b6103e881565b60008054906101000a900473ffffffffffffffffffffffffffffffffffffffff1673ffffffffffffffffffffffffffffffffffffffff163373ffffffffffffffffffffffffffffffffffffffff1614610879576040517f74a2152700000000000000000000000000000000000000000000000000000000815260040160405180910390fd5b6001600082815260200190815260200160002060009054906101000a900460ff166108db57806040517f0995c9d50000000000000000000000000000000000000000000000000000000081526004016108d29190610c42565b60405180910390fd5b60006001600083815260200190815260200160002060006101000a81548160ff021916908315150217905550807fe8d9861dbc9c663ed3accd261bbe2fe01e0d3d9e5f51fa38523b265c7757a93a60405160405180910390a250565b60008054906101000a900473ffffffffffffffffffffffffffffffffffffffff1681565b600080fd5b600080fd5b6000819050919050565b61097881610965565b811461098357600080fd5b50565b6000813590506109958161096f565b92915050565b6000602082840312156109b1576109b061095b565b5b60006109bf84828501610986565b91505092915050565b60008115159050919050565b6109dd816109c8565b82525050565b60006020820190506109f860008301846109d4565b92915050565b6000819050919050565b610a11816109fe565b82525050565b6000602082019050610a2c6000830184610a08565b92915050565b600073ffffffffffffffffffffffffffffffffffffffff82169050919050565b6000610a5d82610a32565b9050919050565b610a6d81610a52565b8114610a7857600080fd5b50565b600081359050610a8a81610a64565b92915050565b610a99816109fe565b8114610aa457600080fd5b50565b600081359050610ab681610a90565b92915050565b600080fd5b600080fd5b600080fd5b60008083601f840112610ae157610ae0610abc565b5b8235905067ffffffffffffffff811115610afe57610afd610ac1565b5b602083019150836001820283011115610b1a57610b19610ac6565b5b9250929050565b60008083601f840112610b3757610b36610abc565b5b8235905067ffffffffffffffff811115610b5457610b53610ac1565b5b602083019150836001820283011115610b7057610b6f610ac6565b5b9250929050565b600080600080600080600060a0888a031215610b9657610b9561095b565b5b6000610ba48a828b01610a7b565b9750506020610bb58a828b01610aa7565b965050604088013567ffffffffffffffff811115610bd657610bd5610960565b5b610be28a828b01610acb565b9550955050606088013567ffffffffffffffff811115610c0557610c04610960565b5b610c118a828b01610b21565b93509350506080610c248a828b01610aa7565b91505092959891949750929550565b610c3c81610965565b82525050565b6000602082019050610c576000830184610c33565b92915050565b600081519050919050565b600082825260208201905092915050565b60005b83811015610c97578082015181840152602081019050610c7c565b60008484015250505050565b6000601f19601f8301169050919050565b6000610cbf82610c5d565b610cc98185610c68565b9350610cd9818560208601610c79565b610ce281610ca3565b840191505092915050565b60006020820190508181036000830152610d078184610cb4565b905092915050565b610d1881610a52565b82525050565b6000602082019050610d336000830184610d0f565b92915050565b7f4e487b7100000000000000000000000000000000000000000000000000000000600052601160045260246000fd5b6000610d73826109fe565b9150610d7e836109fe565b9250828201905080821115610d9657610d95610d39565b5b92915050565b6000604082019050610db16000830185610a08565b610dbe6020830184610a08565b9392505050565b600082825260208201905092915050565b82818337600083830152505050565b6000610df18385610dc5565b9350610dfe838584610dd6565b610e0783610ca3565b840190509392505050565b6000610e1e8385610c68565b9350610e2b838584610dd6565b610e3483610ca3565b840190509392505050565b600060a082019050610e54600083018a610d0f565b610e616020830189610a08565b8181036040830152610e74818789610de5565b90508181036060830152610e89818587610e12565b9050610e986080830184610a08565b98975050505050505050565b600081905092915050565b6000610ebb8385610ea4565b9350610ec8838584610dd6565b82840190509392505050565b6000610ee1828486610eaf565b91508190509392505050565b60007fffffffff0000000000000000000000000000000000000000000000000000000082169050919050565b6000819050919050565b610f34610f2f82610eed565b610f19565b82525050565b6000610f468286610f23565b600482019150610f57828486610eaf565b9150819050949350505050565b6000610f6f82610c5d565b610f798185610ea4565b9350610f89818560208601610c79565b80840191505092915050565b6000610fa18284610f64565b91508190509291505056fea2646970667358221220b6cdda6aa01b0b66b31d65a68017e9a513e7f99ff7f62ea4c9a4b0a61faba16464736f6c63430008120033",
			"opcodes": "PUSH1 0x80 PUSH1 0x40 MSTORE CALLVALUE DUP1 ISZERO PUSH2 0x10 JUMPI PUSH1 0x0 DUP1 REVERT JUMPDEST POP CALLER PUSH1 0x0 DUP1 PUSH2 0x100 EXP DUP2 SLOAD DUP2 PUSH20 0xFFFFFFFFFFFFFFFFFFFFFFFFFFFFFFFFFFFFFFFF MUL NOT AND SWAP1 DUP4 PUSH20 0xFFFFFFFFFFFFFFFFFFFFFFFFFFFFFFFFFFFFFFFF AND MUL OR SWAP1 SSTORE POP PUSH2 0xFE2 DUP1 PUSH2 0x60 PUSH1 0x0 CODECOPY PUSH1 0x0 RETURN INVALID PUSH1 0x80 PUSH1 0x40 MSTORE PUSH1 0x4 CALLDATASIZE LT PUSH2 0x8A JUMPI PUSH1 0x0 CALLDATALOAD PUSH1 0xE0 SHR DUP1 PUSH4 0x9F81AED7 GT PUSH2 0x59 JUMPI DUP1 PUSH4 0x9F81AED7 EQ PUSH2 0x164 JUMPI DUP1 PUSH4 0xB0F8B142 EQ PUSH2 0x18F JUMPI DUP1 PUSH4 0xC1A287E2 EQ PUSH2 0x1BF JUMPI DUP1 PUSH4 0xC4D252F5 EQ PUSH2 0x1EA JUMPI DUP1 PUSH4 0xE3978240 EQ PUSH2 0x213 JUMPI PUSH2 0x91 JUMP JUMPDEST DUP1 PUSH4 0x237EE8E1 EQ PUSH2 0x96 JUMPI DUP1 PUSH4 0x4125FF90 EQ PUSH2 0xD3 JUMPI DUP1 PUSH4 0x4B9915A5 EQ PUSH2 0xFE JUMPI DUP1 PUSH4 0x8A1CE0B6 EQ PUSH2 0x127 JUMPI PUSH2 0x91 JUMP JUMPDEST CALLDATASIZE PUSH2 0x91 JUMPI STOP JUMPDEST PUSH1 0x0 DUP1 REVERT JUMPDEST CALLVALUE DUP1 ISZERO PUSH2 0xA2 JUMPI PUSH1 0x0 DUP1 REVERT JUMPDEST POP PUSH2 0xBD PUSH1 0x4 DUP1 CALLDATASIZE SUB DUP2 ADD SWAP1 PUSH2 0xB8 SWAP2 SWAP1 PUSH2 0x99B JUMP JUMPDEST PUSH2 0x23E JUMP JUMPDEST PUSH1 0x40 MLOAD PUSH2 0xCA SWAP2 SWAP1 PUSH2 0x9E3 JUMP JUMPDEST PUSH1 0x40 MLOAD DUP1 SWAP2 SUB SWAP1 RETURN JUMPDEST CALLVALUE DUP1 ISZERO PUSH2 0xDF JUMPI PUSH1 0x0 DUP1 REVERT JUMPDEST POP PUSH2 0xE8 PUSH2 0x25E JUMP JUMPDEST PUSH1 0x40 MLOAD PUSH2 0xF5 SWAP2 SWAP1 PUSH2 0xA17 JUMP JUMPDEST PUSH1 0x40 MLOAD DUP1 SWAP2 SUB SWAP1 RETURN JUMPDEST CALLVALUE DUP1 ISZERO PUSH2 0x10A JUMPI PUSH1 0x0 DUP1 REVERT JUMPDEST POP PUSH2 0x125 PUSH1 0x4 DUP1 CALLDATASIZE SUB DUP2 ADD SWAP1 PUSH2 0x120 SWAP2 SWAP1 PUSH2 0xB77 JUMP JUMPDEST PUSH2 0x264 JUMP JUMPDEST STOP JUMPDEST CALLVALUE DUP1 ISZERO PUSH2 0x133 JUMPI PUSH1 0x0 DUP1 REVERT JUMPDEST POP PUSH2 0x14E PUSH1 0x4 DUP1 CALLDATASIZE SUB DUP2 ADD SWAP1 PUSH2 0x149 SWAP2 SWAP1 PUSH2 0xB77 JUMP JUMPDEST PUSH2 0x442 JUMP JUMPDEST PUSH1 0x40 MLOAD PUSH2 0x15B SWAP2 SWAP1 PUSH2 0xC42 JUMP JUMPDEST PUSH1 0x40 MLOAD DUP1 SWAP2 SUB SWAP1 RETURN JUMPDEST CALLVALUE DUP1 ISZERO PUSH2 0x170 JUMPI PUSH1 0x0 DUP1 REVERT JUMPDEST POP PUSH2 0x179 PUSH2 0x484 JUMP JUMPDEST PUSH1 0x40 MLOAD PUSH2 0x186 SWAP2 SWAP1 PUSH2 0xA17 JUMP JUMPDEST PUSH1 0x40 MLOAD DUP1 SWAP2 SUB SWAP1 RETURN JUMPDEST PUSH2 0x1A9 PUSH1 0x4 DUP1 CALLDATASIZE SUB DUP2 ADD SWAP1 PUSH2 0x1A4 SWAP2 SWAP1 PUSH2 0xB77 JUMP JUMPDEST PUSH2 0x489 JUMP JUMPDEST PUSH1 0x40 MLOAD PUSH2 0x1B6 SWAP2 SWAP1 PUSH2 0xCED JUMP JUMPDEST PUSH1 0x40 MLOAD DUP1 SWAP2 SUB SWAP1 RETURN JUMPDEST CALLVALUE DUP1 ISZERO PUSH2 0x1CB JUMPI PUSH1 0x0 DUP1 REVERT JUMPDEST POP PUSH2 0x1D4 PUSH2 0x7EE JUMP JUMPDEST PUSH1 0x40 MLOAD PUSH2 0x1E1 SWAP2 SWAP1 PUSH2 0xA17 JUMP JUMPDEST PUSH1 0x40 MLOAD DUP1 SWAP2 SUB SWAP1 RETURN JUMPDEST CALLVALUE DUP1 ISZERO PUSH2 0x1F6 JUMPI PUSH1 0x0 DUP1 REVERT JUMPDEST POP PUSH2 0x211 PUSH1 0x4 DUP1 CALLDATASIZE SUB DUP2 ADD SWAP1 PUSH2 0x20C SWAP2 SWAP1 PUSH2 0x99B JUMP JUMPDEST PUSH2 0x7F4 JUMP JUMPDEST STOP JUMPDEST CALLVALUE DUP1 ISZERO PUSH2 0x21F JUMPI PUSH1 0x0 DUP1 REVERT JUMPDEST POP PUSH2 0x228 PUSH2 0x937 JUMP JUMPDEST PUSH1 0x40 MLOAD PUSH2 0x235 SWAP2 SWAP1 PUSH2 0xD1E JUMP JUMPDEST PUSH1 0x40 MLOAD DUP1 SWAP2 SUB SWAP1 RETURN JUMPDEST PUSH1 0x1 PUSH1 0x20 MSTORE DUP1 PUSH1 0x0 MSTORE PUSH1 0x40 PUSH1 0x0 KECCAK256 PUSH1 0x0 SWAP2 POP SLOAD SWAP1 PUSH2 0x100 EXP SWAP1 DIV PUSH1 0xFF AND DUP2 JUMP JUMPDEST PUSH2 0x3E8 DUP2 JUMP JUMPDEST PUSH1 0x0 DUP1 SLOAD SWAP1 PUSH2 0x100 EXP SWAP1 DIV PUSH20 0xFFFFFFFFFFFFFFFFFFFFFFFFFFFFFFFFFFFFFFFF AND PUSH20 0xFFFFFFFFFFFFFFFFFFFFFFFFFFFFFFFFFFFFFFFF AND CALLER PUSH20 0xFFFFFFFFFFFFFFFFFFFFFFFFFFFFFFFFFFFFFFFF AND EQ PUSH2 0x2E9 JUMPI PUSH1 0x40 MLOAD PUSH32 0x74A2152700000000000000000000000000000000000000000000000000000000 DUP2 MSTORE PUSH1 0x4 ADD PUSH1 0x40 MLOAD DUP1 SWAP2 SUB SWAP1 REVERT JUMPDEST PUSH1 0x0 PUSH2 0x2FA DUP9 DUP9 DUP9 DUP9 DUP9 DUP9 DUP9 PUSH2 0x442 JUMP JUMPDEST SWAP1 POP PUSH1 0x1 PUSH1 0x0 DUP3 DUP2 MSTORE PUSH1 0x20 ADD SWAP1 DUP2 MSTORE PUSH1 0x20 ADD PUSH1 0x0 KECCAK256 PUSH1 0x0 SWAP1 SLOAD SWAP1 PUSH2 0x100 EXP SWAP1 DIV PUSH1 0xFF AND ISZERO PUSH2 0x35F JUMPI DUP1 PUSH1 0x40 MLOAD PUSH32 0x995042BE00000000000000000000000000000000000000000000000000000000 DUP2 MSTORE PUSH1 0x4 ADD PUSH2 0x356 SWAP2 SWAP1 PUSH2 0xC42 JUMP JUMPDEST PUSH1 0x40 MLOAD DUP1 SWAP2 SUB SWAP1 REVERT JUMPDEST PUSH1 0xA TIMESTAMP PUSH2 0x36C SWAP2 SWAP1 PUSH2 0xD68 JUMP JUMPDEST DUP3 LT DUP1 PUSH2 0x385 JUMPI POP PUSH2 0x3E8 TIMESTAMP PUSH2 0x382 SWAP2 SWAP1 PUSH2 0xD68 JUMP JUMPDEST DUP3 GT JUMPDEST ISZERO PUSH2 0x3C9 JUMPI TIMESTAMP DUP3 PUSH1 0x40 MLOAD PUSH32 0x1A9616C200000000000000000000000000000000000000000000000000000000 DUP2 MSTORE PUSH1 0x4 ADD PUSH2 0x3C0 SWAP3 SWAP2 SWAP1 PUSH2 0xD9C JUMP JUMPDEST PUSH1 0x40 MLOAD DUP1 SWAP2 SUB SWAP1 REVERT JUMPDEST PUSH1 0x1 DUP1 PUSH1 0x0 DUP4 DUP2 MSTORE PUSH1 0x20 ADD SWAP1 DUP2 MSTORE PUSH1 0x20 ADD PUSH1 0x0 KECCAK256 PUSH1 0x0 PUSH2 0x100 EXP DUP2 SLOAD DUP2 PUSH1 0xFF MUL NOT AND SWAP1 DUP4 ISZERO ISZERO MUL OR SWAP1 SSTORE POP DUP1 PUSH32 0x3C22F47140594040D205A5533CFEDD86C9AB8622C39EAD03AFFB2D97052C794C DUP10 DUP10 DUP10 DUP10 DUP10 DUP10 DUP10 PUSH1 0x40 MLOAD PUSH2 0x430 SWAP8 SWAP7 SWAP6 SWAP5 SWAP4 SWAP3 SWAP2 SWAP1 PUSH2 0xE3F JUMP JUMPDEST PUSH1 0x40 MLOAD DUP1 SWAP2 SUB SWAP1 LOG2 POP POP POP POP POP POP POP POP JUMP JUMPDEST PUSH1 0x0 DUP8 DUP8 DUP8 DUP8 DUP8 DUP8 DUP8 PUSH1 0x40 MLOAD PUSH1 0x20 ADD PUSH2 0x461 SWAP8 SWAP7 SWAP6 SWAP5 SWAP4 SWAP3 SWAP2 SWAP1 PUSH2 0xE3F JUMP JUMPDEST PUSH1 0x40 MLOAD PUSH1 0x20 DUP2 DUP4 SUB SUB DUP2 MSTORE SWAP1 PUSH1 0x40 MSTORE DUP1 MLOAD SWAP1 PUSH1 0x20 ADD KECCAK256 SWAP1 POP SWAP8 SWAP7 POP POP POP POP POP POP POP JUMP JUMPDEST PUSH1 0xA DUP2 JUMP JUMPDEST PUSH1 0x60 PUSH1 0x0 DUP1 SLOAD SWAP1 PUSH2 0x100 EXP SWAP1 DIV PUSH20 0xFFFFFFFFFFFFFFFFFFFFFFFFFFFFFFFFFFFFFFFF AND PUSH20 0xFFFFFFFFFFFFFFFFFFFFFFFFFFFFFFFFFFFFFFFF AND CALLER PUSH20 0xFFFFFFFFFFFFFFFFFFFFFFFFFFFFFFFFFFFFFFFF AND EQ PUSH2 0x510 JUMPI PUSH1 0x40 MLOAD PUSH32 0x74A2152700000000000000000000000000000000000000000000000000000000 DUP2 MSTORE PUSH1 0x4 ADD PUSH1 0x40 MLOAD DUP1 SWAP2 SUB SWAP1 REVERT JUMPDEST PUSH1 0x0 PUSH2 0x521 DUP10 DUP10 DUP10 DUP10 DUP10 DUP10 DUP10 PUSH2 0x442 JUMP JUMPDEST SWAP1 POP PUSH1 0x1 PUSH1 0x0 DUP3 DUP2 MSTORE PUSH1 0x20 ADD SWAP1 DUP2 MSTORE PUSH1 0x20 ADD PUSH1 0x0 KECCAK256 PUSH1 0x0 SWAP1 SLOAD SWAP1 PUSH2 0x100 EXP SWAP1 DIV PUSH1 0xFF AND PUSH2 0x585 JUMPI DUP1 PUSH1 0x40 MLOAD PUSH32 0x995C9D500000000000000000000000000000000000000000000000000000000 DUP2 MSTORE PUSH1 0x4 ADD PUSH2 0x57C SWAP2 SWAP1 PUSH2 0xC42 JUMP JUMPDEST PUSH1 0x40 MLOAD DUP1 SWAP2 SUB SWAP1 REVERT JUMPDEST DUP3 TIMESTAMP LT ISZERO PUSH2 0x5CC JUMPI TIMESTAMP DUP4 PUSH1 0x40 MLOAD PUSH32 0x35FCE5B00000000000000000000000000000000000000000000000000000000 DUP2 MSTORE PUSH1 0x4 ADD PUSH2 0x5C3 SWAP3 SWAP2 SWAP1 PUSH2 0xD9C JUMP JUMPDEST PUSH1 0x40 MLOAD DUP1 SWAP2 SUB SWAP1 REVERT JUMPDEST PUSH2 0x3E8 DUP4 PUSH2 0x5DA SWAP2 SWAP1 PUSH2 0xD68 JUMP JUMPDEST TIMESTAMP GT ISZERO PUSH2 0x62D JUMPI TIMESTAMP PUSH2 0x3E8 DUP5 PUSH2 0x5F0 SWAP2 SWAP1 PUSH2 0xD68 JUMP JUMPDEST PUSH1 0x40 MLOAD PUSH32 0x92AE26D100000000000000000000000000000000000000000000000000000000 DUP2 MSTORE PUSH1 0x4 ADD PUSH2 0x624 SWAP3 SWAP2 SWAP1 PUSH2 0xD9C JUMP JUMPDEST PUSH1 0x40 MLOAD DUP1 SWAP2 SUB SWAP1 REVERT JUMPDEST PUSH1 0x60 PUSH1 0x0 DUP9 DUP9 SWAP1 POP GT ISZERO PUSH2 0x67D JUMPI DUP8 DUP8 PUSH1 0x40 MLOAD PUSH2 0x64B SWAP3 SWAP2 SWAP1 PUSH2 0xED4 JUMP JUMPDEST PUSH1 0x40 MLOAD DUP1 SWAP2 SUB SWAP1 KECCAK256 DUP7 DUP7 PUSH1 0x40 MLOAD PUSH1 0x20 ADD PUSH2 0x667 SWAP4 SWAP3 SWAP2 SWAP1 PUSH2 0xF3A JUMP JUMPDEST PUSH1 0x40 MLOAD PUSH1 0x20 DUP2 DUP4 SUB SUB DUP2 MSTORE SWAP1 PUSH1 0x40 MSTORE SWAP1 POP PUSH2 0x6C5 JUMP JUMPDEST DUP6 DUP6 DUP1 DUP1 PUSH1 0x1F ADD PUSH1 0x20 DUP1 SWAP2 DIV MUL PUSH1 0x20 ADD PUSH1 0x40 MLOAD SWAP1 DUP2 ADD PUSH1 0x40 MSTORE DUP1 SWAP4 SWAP3 SWAP2 SWAP1 DUP2 DUP2 MSTORE PUSH1 0x20 ADD DUP4 DUP4 DUP1 DUP3 DUP5 CALLDATACOPY PUSH1 0x0 DUP2 DUP5 ADD MSTORE PUSH1 0x1F NOT PUSH1 0x1F DUP3 ADD AND SWAP1 POP DUP1 DUP4 ADD SWAP3 POP POP POP POP POP POP POP SWAP1 POP JUMPDEST PUSH1 0x0 DUP1 DUP12 PUSH20 0xFFFFFFFFFFFFFFFFFFFFFFFFFFFFFFFFFFFFFFFF AND DUP12 DUP5 PUSH1 0x40 MLOAD PUSH2 0x6EE SWAP2 SWAP1 PUSH2 0xF95 JUMP JUMPDEST PUSH1 0x0 PUSH1 0x40 MLOAD DUP1 DUP4 SUB DUP2 DUP6 DUP8 GAS CALL SWAP3 POP POP POP RETURNDATASIZE DUP1 PUSH1 0x0 DUP2 EQ PUSH2 0x72B JUMPI PUSH1 0x40 MLOAD SWAP2 POP PUSH1 0x1F NOT PUSH1 0x3F RETURNDATASIZE ADD AND DUP3 ADD PUSH1 0x40 MSTORE RETURNDATASIZE DUP3 MSTORE RETURNDATASIZE PUSH1 0x0 PUSH1 0x20 DUP5 ADD RETURNDATACOPY PUSH2 0x730 JUMP JUMPDEST PUSH1 0x60 SWAP2 POP JUMPDEST POP SWAP2 POP SWAP2 POP DUP2 PUSH2 0x76C JUMPI PUSH1 0x40 MLOAD PUSH32 0xD9B4F81E00000000000000000000000000000000000000000000000000000000 DUP2 MSTORE PUSH1 0x4 ADD PUSH1 0x40 MLOAD DUP1 SWAP2 SUB SWAP1 REVERT JUMPDEST DUP4 PUSH32 0xD1D5C3C892C18716BD88852091D1B63DC6849E9D7C37F69D566884BF954D4BD9 DUP14 DUP14 DUP14 DUP14 DUP14 DUP14 DUP14 PUSH1 0x40 MLOAD PUSH2 0x7A8 SWAP8 SWAP7 SWAP6 SWAP5 SWAP4 SWAP3 SWAP2 SWAP1 PUSH2 0xE3F JUMP JUMPDEST PUSH1 0x40 MLOAD DUP1 SWAP2 SUB SWAP1 LOG2 PUSH1 0x0 PUSH1 0x1 PUSH1 0x0 DUP7 DUP2 MSTORE PUSH1 0x20 ADD SWAP1 DUP2 MSTORE PUSH1 0x20 ADD PUSH1 0x0 KECCAK256 PUSH1 0x0 PUSH2 0x100 EXP DUP2 SLOAD DUP2 PUSH1 0xFF MUL NOT AND SWAP1 DUP4 ISZERO ISZERO MUL OR SWAP1 SSTORE POP DUP1 SWAP5 POP POP POP POP POP SWAP8 SWAP7 POP POP POP POP POP POP POP JUMP JUMPDEST PUSH2 0x3E8 DUP2 JUMP JUMPDEST PUSH1 0x0 DUP1 SLOAD SWAP1 PUSH2 0x100 EXP SWAP1 DIV PUSH20 0xFFFFFFFFFFFFFFFFFFFFFFFFFFFFFFFFFFFFFFFF AND PUSH20 0xFFFFFFFFFFFFFFFFFFFFFFFFFFFFFFFFFFFFFFFF AND CALLER PUSH20 0xFFFFFFFFFFFFFFFFFFFFFFFFFFFFFFFFFFFFFFFF AND EQ PUSH2 0x879 JUMPI PUSH1 0x40 MLOAD PUSH32 0x74A2152700000000000000000000000000000000000000000000000000000000 DUP2 MSTORE PUSH1 0x4 ADD PUSH1 0x40 MLOAD DUP1 SWAP2 SUB SWAP1 REVERT JUMPDEST PUSH1 0x1 PUSH1 0x0 DUP3 DUP2 MSTORE PUSH1 0x20 ADD SWAP1 DUP2 MSTORE PUSH1 0x20 ADD PUSH1 0x0 KECCAK256 PUSH1 0x0 SWAP1 SLOAD SWAP1 PUSH2 0x100 EXP SWAP1 DIV PUSH1 0xFF AND PUSH2 0x8DB JUMPI DUP1 PUSH1 0x40 MLOAD PUSH32 0x995C9D500000000000000000000000000000000000000000000000000000000 DUP2 MSTORE PUSH1 0x4 ADD PUSH2 0x8D2 SWAP2 SWAP1 PUSH2 0xC42 JUMP JUMPDEST PUSH1 0x40 MLOAD DUP1 SWAP2 SUB SWAP1 REVERT JUMPDEST PUSH1 0x0 PUSH1 0x1 PUSH1 0x0 DUP4 DUP2 MSTORE PUSH1 0x20 ADD SWAP1 DUP2 MSTORE PUSH1 0x20 ADD PUSH1 0x0 KECCAK256 PUSH1 0x0 PUSH2 0x100 EXP DUP2 SLOAD DUP2 PUSH1 0xFF MUL NOT AND SWAP1 DUP4 ISZERO ISZERO MUL OR SWAP1 SSTORE POP DUP1 PUSH32 0xE8D9861DBC9C663ED3ACCD261BBE2FE01E0D3D9E5F51FA38523B265C7757A93A PUSH1 0x40 MLOAD PUSH1 0x40 MLOAD DUP1 SWAP2 SUB SWAP1 LOG2 POP JUMP JUMPDEST PUSH1 0x0 DUP1 SLOAD SWAP1 PUSH2 0x100 EXP SWAP1 DIV PUSH20 0xFFFFFFFFFFFFFFFFFFFFFFFFFFFFFFFFFFFFFFFF AND DUP2 JUMP JUMPDEST PUSH1 0x0 DUP1 REVERT JUMPDEST PUSH1 0x0 DUP1 REVERT JUMPDEST PUSH1 0x0 DUP2 SWAP1 POP SWAP2 SWAP1 POP JUMP JUMPDEST PUSH2 0x978 DUP2 PUSH2 0x965 JUMP JUMPDEST DUP2 EQ PUSH2 0x983 JUMPI PUSH1 0x0 DUP1 REVERT JUMPDEST POP JUMP JUMPDEST PUSH1 0x0 DUP2 CALLDATALOAD SWAP1 POP PUSH2 0x995 DUP2 PUSH2 0x96F JUMP JUMPDEST SWAP3 SWAP2 POP POP JUMP JUMPDEST PUSH1 0x0 PUSH1 0x20 DUP3 DUP5 SUB SLT ISZERO PUSH2 0x9B1 JUMPI PUSH2 0x9B0 PUSH2 0x95B JUMP JUMPDEST JUMPDEST PUSH1 0x0 PUSH2 0x9BF DUP5 DUP3 DUP6 ADD PUSH2 0x986 JUMP JUMPDEST SWAP2 POP POP SWAP3 SWAP2 POP POP JUMP JUMPDEST PUSH1 0x0 DUP2 ISZERO ISZERO SWAP1 POP SWAP2 SWAP1 POP JUMP JUMPDEST PUSH2 0x9DD DUP2 PUSH2 0x9C8 JUMP JUMPDEST DUP3 MSTORE POP POP JUMP JUMPDEST PUSH1 0x0 PUSH1 0x20 DUP3 ADD SWAP1 POP PUSH2 0x9F8 PUSH1 0x0 DUP4 ADD DUP5 PUSH2 0x9D4 JUMP JUMPDEST SWAP3 SWAP2 POP POP JUMP JUMPDEST PUSH1 0x0 DUP2 SWAP1 POP SWAP2 SWAP1 POP JUMP JUMPDEST PUSH2 0xA11 DUP2 PUSH2 0x9FE JUMP JUMPDEST DUP3 MSTORE POP POP JUMP JUMPDEST PUSH1 0x0 PUSH1 0x20 DUP3 ADD SWAP1 POP PUSH2 0xA2C PUSH1 0x0 DUP4 ADD DUP5 PUSH2 0xA08 JUMP JUMPDEST SWAP3 SWAP2 POP POP JUMP JUMPDEST PUSH1 0x0 PUSH20 0xFFFFFFFFFFFFFFFFFFFFFFFFFFFFFFFFFFFFFFFF DUP3 AND SWAP1 POP SWAP2 SWAP1 POP JUMP JUMPDEST PUSH1 0x0 PUSH2 0xA5D DUP3 PUSH2 0xA32 JUMP JUMPDEST SWAP1 POP SWAP2 SWAP1 POP JUMP JUMPDEST PUSH2 0xA6D DUP2 PUSH2 0xA52 JUMP JUMPDEST DUP2 EQ PUSH2 0xA78 JUMPI PUSH1 0x0 DUP1 REVERT JUMPDEST POP JUMP JUMPDEST PUSH1 0x0 DUP2 CALLDATALOAD SWAP1 POP PUSH2 0xA8A DUP2 PUSH2 0xA64 JUMP JUMPDEST SWAP3 SWAP2 POP POP JUMP JUMPDEST PUSH2 0xA99 DUP2 PUSH2 0x9FE JUMP JUMPDEST DUP2 EQ PUSH2 0xAA4 JUMPI PUSH1 0x0 DUP1 REVERT JUMPDEST POP JUMP JUMPDEST PUSH1 0x0 DUP2 CALLDATALOAD SWAP1 POP PUSH2 0xAB6 DUP2 PUSH2 0xA90 JUMP JUMPDEST SWAP3 SWAP2 POP POP JUMP JUMPDEST PUSH1 0x0 DUP1 REVERT JUMPDEST PUSH1 0x0 DUP1 REVERT JUMPDEST PUSH1 0x0 DUP1 REVERT JUMPDEST PUSH1 0x0 DUP1 DUP4 PUSH1 0x1F DUP5 ADD SLT PUSH2 0xAE1 JUMPI PUSH2 0xAE0 PUSH2 0xABC JUMP JUMPDEST JUMPDEST DUP3 CALLDATALOAD SWAP1 POP PUSH8 0xFFFFFFFFFFFFFFFF DUP2 GT ISZERO PUSH2 0xAFE JUMPI PUSH2 0xAFD PUSH2 0xAC1 JUMP JUMPDEST JUMPDEST PUSH1 0x20 DUP4 ADD SWAP2 POP DUP4 PUSH1 0x1 DUP3 MUL DUP4 ADD GT ISZERO PUSH2 0xB1A JUMPI PUSH2 0xB19 PUSH2 0xAC6 JUMP JUMPDEST JUMPDEST SWAP3 POP SWAP3 SWAP1 POP JUMP JUMPDEST PUSH1 0x0 DUP1 DUP4 PUSH1 0x1F DUP5 ADD SLT PUSH2 0xB37 JUMPI PUSH2 0xB36 PUSH2 0xABC JUMP JUMPDEST JUMPDEST DUP3 CALLDATALOAD SWAP1 POP PUSH8 0xFFFFFFFFFFFFFFFF DUP2 GT ISZERO PUSH2 0xB54 JUMPI PUSH2 0xB53 PUSH2 0xAC1 JUMP JUMPDEST JUMPDEST PUSH1 0x20 DUP4 ADD SWAP2 POP DUP4 PUSH1 0x1 DUP3 MUL DUP4 ADD GT ISZERO PUSH2 0xB70 JUMPI PUSH2 0xB6F PUSH2 0xAC6 JUMP JUMPDEST JUMPDEST SWAP3 POP SWAP3 SWAP1 POP JUMP JUMPDEST PUSH1 0x0 DUP1 PUSH1 0x0 DUP1 PUSH1 0x0 DUP1 PUSH1 0x0 PUSH1 0xA0 DUP9 DUP11 SUB SLT ISZERO PUSH2 0xB96 JUMPI PUSH2 0xB95 PUSH2 0x95B JUMP JUMPDEST JUMPDEST PUSH1 0x0 PUSH2 0xBA4 DUP11 DUP3 DUP12 ADD PUSH2 0xA7B JUMP JUMPDEST SWAP8 POP POP PUSH1 0x20 PUSH2 0xBB5 DUP11 DUP3 DUP12 ADD PUSH2 0xAA7 JUMP JUMPDEST SWAP7 POP POP PUSH1 0x40 DUP9 ADD CALLDATALOAD PUSH8 0xFFFFFFFFFFFFFFFF DUP2 GT ISZERO PUSH2 0xBD6 JUMPI PUSH2 0xBD5 PUSH2 0x960 JUMP JUMPDEST JUMPDEST PUSH2 0xBE2 DUP11 DUP3 DUP12 ADD PUSH2 0xACB JUMP JUMPDEST SWAP6 POP SWAP6 POP POP PUSH1 0x60 DUP9 ADD CALLDATALOAD PUSH8 0xFFFFFFFFFFFFFFFF DUP2 GT ISZERO PUSH2 0xC05 JUMPI PUSH2 0xC04 PUSH2 0x960 JUMP JUMPDEST JUMPDEST PUSH2 0xC11 DUP11 DUP3 DUP12 ADD PUSH2 0xB21 JUMP JUMPDEST SWAP4 POP SWAP4 POP POP PUSH1 0x80 PUSH2 0xC24 DUP11 DUP3 DUP12 ADD PUSH2 0xAA7 JUMP JUMPDEST SWAP2 POP POP SWAP3 SWAP6 SWAP9 SWAP2 SWAP5 SWAP8 POP SWAP3 SWAP6 POP JUMP JUMPDEST PUSH2 0xC3C DUP2 PUSH2 0x965 JUMP JUMPDEST DUP3 MSTORE POP POP JUMP JUMPDEST PUSH1 0x0 PUSH1 0x20 DUP3 ADD SWAP1 POP PUSH2 0xC57 PUSH1 0x0 DUP4 ADD DUP5 PUSH2 0xC33 JUMP JUMPDEST SWAP3 SWAP2 POP POP JUMP JUMPDEST PUSH1 0x0 DUP2 MLOAD SWAP1 POP SWAP2 SWAP1 POP JUMP JUMPDEST PUSH1 0x0 DUP3 DUP3 MSTORE PUSH1 0x20 DUP3 ADD SWAP1 POP SWAP3 SWAP2 POP POP JUMP JUMPDEST PUSH1 0x0 JUMPDEST DUP4 DUP2 LT ISZERO PUSH2 0xC97 JUMPI DUP1 DUP3 ADD MLOAD DUP2 DUP5 ADD MSTORE PUSH1 0x20 DUP2 ADD SWAP1 POP PUSH2 0xC7C JUMP JUMPDEST PUSH1 0x0 DUP5 DUP5 ADD MSTORE POP POP POP POP JUMP JUMPDEST PUSH1 0x0 PUSH1 0x1F NOT PUSH1 0x1F DUP4 ADD AND SWAP1 POP SWAP2 SWAP1 POP JUMP JUMPDEST PUSH1 0x0 PUSH2 0xCBF DUP3 PUSH2 0xC5D JUMP JUMPDEST PUSH2 0xCC9 DUP2 DUP6 PUSH2 0xC68 JUMP JUMPDEST SWAP4 POP PUSH2 0xCD9 DUP2 DUP6 PUSH1 0x20 DUP7 ADD PUSH2 0xC79 JUMP JUMPDEST PUSH2 0xCE2 DUP2 PUSH2 0xCA3 JUMP JUMPDEST DUP5 ADD SWAP2 POP POP SWAP3 SWAP2 POP POP JUMP JUMPDEST PUSH1 0x0 PUSH1 0x20 DUP3 ADD SWAP1 POP DUP2 DUP2 SUB PUSH1 0x0 DUP4 ADD MSTORE PUSH2 0xD07 DUP2 DUP5 PUSH2 0xCB4 JUMP JUMPDEST SWAP1 POP SWAP3 SWAP2 POP POP JUMP JUMPDEST PUSH2 0xD18 DUP2 PUSH2 0xA52 JUMP JUMPDEST DUP3 MSTORE POP POP JUMP JUMPDEST PUSH1 0x0 PUSH1 0x20 DUP3 ADD SWAP1 POP PUSH2 0xD33 PUSH1 0x0 DUP4 ADD DUP5 PUSH2 0xD0F JUMP JUMPDEST SWAP3 SWAP2 POP POP JUMP JUMPDEST PUSH32 0x4E487B7100000000000000000000000000000000000000000000000000000000 PUSH1 0x0 MSTORE PUSH1 0x11 PUSH1 0x4 MSTORE PUSH1 0x24 PUSH1 0x0 REVERT JUMPDEST PUSH1 0x0 PUSH2 0xD73 DUP3 PUSH2 0x9FE JUMP JUMPDEST SWAP2 POP PUSH2 0xD7E DUP4 PUSH2 0x9FE JUMP JUMPDEST SWAP3 POP DUP3 DUP3 ADD SWAP1 POP DUP1 DUP3 GT ISZERO PUSH2 0xD96 JUMPI PUSH2 0xD95 PUSH2 0xD39 JUMP JUMPDEST JUMPDEST SWAP3 SWAP2 POP POP JUMP JUMPDEST PUSH1 0x0 PUSH1 0x40 DUP3 ADD SWAP1 POP PUSH2 0xDB1 PUSH1 0x0 DUP4 ADD DUP6 PUSH2 0xA08 JUMP JUMPDEST PUSH2 0xDBE PUSH1 0x20 DUP4 ADD DUP5 PUSH2 0xA08 JUMP JUMPDEST SWAP4 SWAP3 POP POP POP JUMP JUMPDEST PUSH1 0x0 DUP3 DUP3 MSTORE PUSH1 0x20 DUP3 ADD SWAP1 POP SWAP3 SWAP2 POP POP JUMP JUMPDEST DUP3 DUP2 DUP4 CALLDATACOPY PUSH1 0x0 DUP4 DUP4 ADD MSTORE POP POP POP JUMP JUMPDEST PUSH1 0x0 PUSH2 0xDF1 DUP4 DUP6 PUSH2 0xDC5 JUMP JUMPDEST SWAP4 POP PUSH2 0xDFE DUP4 DUP6 DUP5 PUSH2 0xDD6 JUMP JUMPDEST PUSH2 0xE07 DUP4 PUSH2 0xCA3 JUMP JUMPDEST DUP5 ADD SWAP1 POP SWAP4 SWAP3 POP POP POP JUMP JUMPDEST PUSH1 0x0 PUSH2 0xE1E DUP4 DUP6 PUSH2 0xC68 JUMP JUMPDEST SWAP4 POP PUSH2 0xE2B DUP4 DUP6 DUP5 PUSH2 0xDD6 JUMP JUMPDEST PUSH2 0xE34 DUP4 PUSH2 0xCA3 JUMP JUMPDEST DUP5 ADD SWAP1 POP SWAP4 SWAP3 POP POP POP JUMP JUMPDEST PUSH1 0x0 PUSH1 0xA0 DUP3 ADD SWAP1 POP PUSH2 0xE54 PUSH1 0x0 DUP4 ADD DUP11 PUSH2 0xD0F JUMP JUMPDEST PUSH2 0xE61 PUSH1 0x20 DUP4 ADD DUP10 PUSH2 0xA08 JUMP JUMPDEST DUP2 DUP2 SUB PUSH1 0x40 DUP4 ADD MSTORE PUSH2 0xE74 DUP2 DUP8 DUP10 PUSH2 0xDE5 JUMP JUMPDEST SWAP1 POP DUP2 DUP2 SUB PUSH1 0x60 DUP4 ADD MSTORE PUSH2 0xE89 DUP2 DUP6 DUP8 PUSH2 0xE12 JUMP JUMPDEST SWAP1 POP PUSH2 0xE98 PUSH1 0x80 DUP4 ADD DUP5 PUSH2 0xA08 JUMP JUMPDEST SWAP9 SWAP8 POP POP POP POP POP POP POP POP JUMP JUMPDEST PUSH1 0x0 DUP2 SWAP1 POP SWAP3 SWAP2 POP POP JUMP JUMPDEST PUSH1 0x0 PUSH2 0xEBB DUP4 DUP6 PUSH2 0xEA4 JUMP JUMPDEST SWAP4 POP PUSH2 0xEC8 DUP4 DUP6 DUP5 PUSH2 0xDD6 JUMP JUMPDEST DUP3 DUP5 ADD SWAP1 POP SWAP4 SWAP3 POP POP POP JUMP JUMPDEST PUSH1 0x0 PUSH2 0xEE1 DUP3 DUP5 DUP7 PUSH2 0xEAF JUMP JUMPDEST SWAP2 POP DUP2 SWAP1 POP SWAP4 SWAP3 POP POP POP JUMP JUMPDEST PUSH1 0x0 PUSH32 0xFFFFFFFF00000000000000000000000000000000000000000000000000000000 DUP3 AND SWAP1 POP SWAP2 SWAP1 POP JUMP JUMPDEST PUSH1 0x0 DUP2 SWAP1 POP SWAP2 SWAP1 POP JUMP JUMPDEST PUSH2 0xF34 PUSH2 0xF2F DUP3 PUSH2 0xEED JUMP JUMPDEST PUSH2 0xF19 JUMP JUMPDEST DUP3 MSTORE POP POP JUMP JUMPDEST PUSH1 0x0 PUSH2 0xF46 DUP3 DUP7 PUSH2 0xF23 JUMP JUMPDEST PUSH1 0x4 DUP3 ADD SWAP2 POP PUSH2 0xF57 DUP3 DUP5 DUP7 PUSH2 0xEAF JUMP JUMPDEST SWAP2 POP DUP2 SWAP1 POP SWAP5 SWAP4 POP POP POP POP JUMP JUMPDEST PUSH1 0x0 PUSH2 0xF6F DUP3 PUSH2 0xC5D JUMP JUMPDEST PUSH2 0xF79 DUP2 DUP6 PUSH2 0xEA4 JUMP JUMPDEST SWAP4 POP PUSH2 0xF89 DUP2 DUP6 PUSH1 0x20 DUP7 ADD PUSH2 0xC79 JUMP JUMPDEST DUP1 DUP5 ADD SWAP2 POP POP SWAP3 SWAP2 POP POP JUMP JUMPDEST PUSH1 0x0 PUSH2 0xFA1 DUP3 DUP5 PUSH2 0xF64 JUMP JUMPDEST SWAP2 POP DUP2 SWAP1 POP SWAP3 SWAP2 POP POP JUMP INVALID LOG2 PUSH5 0x6970667358 0x22 SLT KECCAK256 0xB6 0xCD 0xDA PUSH11 0xA01B0B66B31D65A68017E9 0xA5 SGT 0xE7 0xF9 SWAP16 0xF7 0xF6 0x2E LOG4 0xC9 LOG4 0xB0 0xA6 0x1F 0xAB LOG1 PUSH5 0x64736F6C63 NUMBER STOP ADDMOD SLT STOP CALLER "
		},
		"gasEstimates": {
			"creation": {
				"codeDepositCost": "813200",
				"executionCost": "25117",
				"totalCost": "838317"
			},
			"external": {
				"GRACE_PERIOD()": "373",
				"MAX_DELAY()": "352",
				"MIN_DELAY()": "329",
				"cancel(bytes32)": "infinite",
				"execute(address,uint256,string,bytes,uint256)": "infinite",
				"getTxId(address,uint256,string,bytes,uint256)": "infinite",
				"m_queued(bytes32)": "2797",
				"queue(address,uint256,string,bytes,uint256)": "infinite",
				"s_owner()": "2599"
			}
		},
		"methodIdentifiers": {
			"GRACE_PERIOD()": "c1a287e2",
			"MAX_DELAY()": "4125ff90",
			"MIN_DELAY()": "9f81aed7",
			"cancel(bytes32)": "c4d252f5",
			"execute(address,uint256,string,bytes,uint256)": "b0f8b142",
			"getTxId(address,uint256,string,bytes,uint256)": "8a1ce0b6",
			"m_queued(bytes32)": "237ee8e1",
			"queue(address,uint256,string,bytes,uint256)": "4b9915a5",
			"s_owner()": "e3978240"
		}
	},
	"abi": [
		{
			"inputs": [],
			"stateMutability": "nonpayable",
			"type": "constructor"
		},
		{
			"inputs": [
				{
					"internalType": "bytes32",
					"name": "txId",
					"type": "bytes32"
				}
			],
			"name": "AlreadyQueuedError",
			"type": "error"
		},
		{
			"inputs": [],
			"name": "NotOwnerError",
			"type": "error"
		},
		{
			"inputs": [
				{
					"internalType": "bytes32",
					"name": "txId",
					"type": "bytes32"
				}
			],
			"name": "NotQueuedError",
			"type": "error"
		},
		{
			"inputs": [
				{
					"internalType": "uint256",
					"name": "blockTimestamp",
					"type": "uint256"
				},
				{
					"internalType": "uint256",
					"name": "expiresAt",
					"type": "uint256"
				}
			],
			"name": "TimestampExpiredError",
			"type": "error"
		},
		{
			"inputs": [
				{
					"internalType": "uint256",
					"name": "blockTimestamp",
					"type": "uint256"
				},
				{
					"internalType": "uint256",
					"name": "timestamp",
					"type": "uint256"
				}
			],
			"name": "TimestampNotInRangeError",
			"type": "error"
		},
		{
			"inputs": [
				{
					"internalType": "uint256",
					"name": "blockTimestamp",
					"type": "uint256"
				},
				{
					"internalType": "uint256",
					"name": "timestamp",
					"type": "uint256"
				}
			],
			"name": "TimestampNotPassedError",
			"type": "error"
		},
		{
			"inputs": [],
			"name": "TxFailedError",
			"type": "error"
		},
		{
			"anonymous": false,
			"inputs": [
				{
					"indexed": true,
					"internalType": "bytes32",
					"name": "txId",
					"type": "bytes32"
				}
			],
			"name": "Cancel",
			"type": "event"
		},
		{
			"anonymous": false,
			"inputs": [
				{
					"indexed": true,
					"internalType": "bytes32",
					"name": "txId",
					"type": "bytes32"
				},
				{
					"indexed": false,
					"internalType": "address",
					"name": "_target",
					"type": "address"
				},
				{
					"indexed": false,
					"internalType": "uint256",
					"name": "value",
					"type": "uint256"
				},
				{
					"indexed": false,
					"internalType": "string",
					"name": "_func",
					"type": "string"
				},
				{
					"indexed": false,
					"internalType": "bytes",
					"name": "_data",
					"type": "bytes"
				},
				{
					"indexed": false,
					"internalType": "uint256",
					"name": "_timestamp",
					"type": "uint256"
				}
			],
			"name": "Execute",
			"type": "event"
		},
		{
			"anonymous": false,
			"inputs": [
				{
					"indexed": true,
					"internalType": "bytes32",
					"name": "txId",
					"type": "bytes32"
				},
				{
					"indexed": false,
					"internalType": "address",
					"name": "_target",
					"type": "address"
				},
				{
					"indexed": false,
					"internalType": "uint256",
					"name": "value",
					"type": "uint256"
				},
				{
					"indexed": false,
					"internalType": "string",
					"name": "_func",
					"type": "string"
				},
				{
					"indexed": false,
					"internalType": "bytes",
					"name": "_data",
					"type": "bytes"
				},
				{
					"indexed": false,
					"internalType": "uint256",
					"name": "_timestamp",
					"type": "uint256"
				}
			],
			"name": "Queue",
			"type": "event"
		},
		{
			"inputs": [],
			"name": "GRACE_PERIOD",
			"outputs": [
				{
					"internalType": "uint256",
					"name": "",
					"type": "uint256"
				}
			],
			"stateMutability": "view",
			"type": "function"
		},
		{
			"inputs": [],
			"name": "MAX_DELAY",
			"outputs": [
				{
					"internalType": "uint256",
					"name": "",
					"type": "uint256"
				}
			],
			"stateMutability": "view",
			"type": "function"
		},
		{
			"inputs": [],
			"name": "MIN_DELAY",
			"outputs": [
				{
					"internalType": "uint256",
					"name": "",
					"type": "uint256"
				}
			],
			"stateMutability": "view",
			"type": "function"
		},
		{
			"inputs": [
				{
					"internalType": "bytes32",
					"name": "_txId",
					"type": "bytes32"
				}
			],
			"name": "cancel",
			"outputs": [],
			"stateMutability": "nonpayable",
			"type": "function"
		},
		{
			"inputs": [
				{
					"internalType": "address",
					"name": "_target",
					"type": "address"
				},
				{
					"internalType": "uint256",
					"name": "_value",
					"type": "uint256"
				},
				{
					"internalType": "string",
					"name": "_func",
					"type": "string"
				},
				{
					"internalType": "bytes",
					"name": "_data",
					"type": "bytes"
				},
				{
					"internalType": "uint256",
					"name": "_timestamp",
					"type": "uint256"
				}
			],
			"name": "execute",
			"outputs": [
				{
					"internalType": "bytes",
					"name": "",
					"type": "bytes"
				}
			],
			"stateMutability": "payable",
			"type": "function"
		},
		{
			"inputs": [
				{
					"internalType": "address",
					"name": "_target",
					"type": "address"
				},
				{
					"internalType": "uint256",
					"name": "_value",
					"type": "uint256"
				},
				{
					"internalType": "string",
					"name": "_func",
					"type": "string"
				},
				{
					"internalType": "bytes",
					"name": "_data",
					"type": "bytes"
				},
				{
					"internalType": "uint256",
					"name": "_timestamp",
					"type": "uint256"
				}
			],
			"name": "getTxId",
			"outputs": [
				{
					"internalType": "bytes32",
					"name": "txId",
					"type": "bytes32"
				}
			],
			"stateMutability": "pure",
			"type": "function"
		},
		{
			"inputs": [
				{
					"internalType": "bytes32",
					"name": "",
					"type": "bytes32"
				}
			],
			"name": "m_queued",
			"outputs": [
				{
					"internalType": "bool",
					"name": "",
					"type": "bool"
				}
			],
			"stateMutability": "view",
			"type": "function"
		},
		{
			"inputs": [
				{
					"internalType": "address",
					"name": "_target",
					"type": "address"
				},
				{
					"internalType": "uint256",
					"name": "_value",
					"type": "uint256"
				},
				{
					"internalType": "string",
					"name": "_func",
					"type": "string"
				},
				{
					"internalType": "bytes",
					"name": "_data",
					"type": "bytes"
				},
				{
					"internalType": "uint256",
					"name": "_timestamp",
					"type": "uint256"
				}
			],
			"name": "queue",
			"outputs": [],
			"stateMutability": "nonpayable",
			"type": "function"
		},
		{
			"inputs": [],
			"name": "s_owner",
			"outputs": [
				{
					"internalType": "address",
					"name": "",
					"type": "address"
				}
			],
			"stateMutability": "view",
			"type": "function"
		},
		{
			"stateMutability": "payable",
			"type": "receive"
		}
	]
}