{
	"CrowdFund/CrowdFund.sol": {
		"CrowdFund": {
			"abi": [
				{
					"inputs": [
						{
							"internalType": "address",
							"name": "_token",
							"type": "address"
						}
					],
					"stateMutability": "nonpayable",
					"type": "constructor"
				},
				{
					"anonymous": false,
					"inputs": [
						{
							"indexed": false,
							"internalType": "uint256",
							"name": "id",
							"type": "uint256"
						}
					],
					"name": "Cancel",
					"type": "event"
				},
				{
					"anonymous": false,
					"inputs": [
						{
							"indexed": false,
							"internalType": "uint256",
							"name": "id",
							"type": "uint256"
						}
					],
					"name": "Claim",
					"type": "event"
				},
				{
					"anonymous": false,
					"inputs": [
						{
							"indexed": false,
							"internalType": "uint256",
							"name": "id",
							"type": "uint256"
						},
						{
							"indexed": true,
							"internalType": "address",
							"name": "creator",
							"type": "address"
						},
						{
							"indexed": false,
							"internalType": "uint256",
							"name": "goal",
							"type": "uint256"
						},
						{
							"indexed": false,
							"internalType": "uint32",
							"name": "startAt",
							"type": "uint32"
						},
						{
							"indexed": false,
							"internalType": "uint32",
							"name": "endAt",
							"type": "uint32"
						}
					],
					"name": "Launch",
					"type": "event"
				},
				{
					"anonymous": false,
					"inputs": [
						{
							"indexed": true,
							"internalType": "uint256",
							"name": "id",
							"type": "uint256"
						},
						{
							"indexed": true,
							"internalType": "address",
							"name": "caller",
							"type": "address"
						},
						{
							"indexed": false,
							"internalType": "uint256",
							"name": "amount",
							"type": "uint256"
						}
					],
					"name": "Pledge",
					"type": "event"
				},
				{
					"anonymous": false,
					"inputs": [
						{
							"indexed": true,
							"internalType": "uint256",
							"name": "id",
							"type": "uint256"
						},
						{
							"indexed": true,
							"internalType": "address",
							"name": "caller",
							"type": "address"
						},
						{
							"indexed": false,
							"internalType": "uint256",
							"name": "amount",
							"type": "uint256"
						}
					],
					"name": "Refund",
					"type": "event"
				},
				{
					"anonymous": false,
					"inputs": [
						{
							"indexed": true,
							"internalType": "uint256",
							"name": "id",
							"type": "uint256"
						},
						{
							"indexed": true,
							"internalType": "address",
							"name": "caller",
							"type": "address"
						},
						{
							"indexed": false,
							"internalType": "uint256",
							"name": "amount",
							"type": "uint256"
						}
					],
					"name": "Unpledge",
					"type": "event"
				},
				{
					"inputs": [
						{
							"internalType": "uint256",
							"name": "_id",
							"type": "uint256"
						}
					],
					"name": "cancel",
					"outputs": [],
					"stateMutability": "nonpayable",
					"type": "function"
				},
				{
					"inputs": [
						{
							"internalType": "uint256",
							"name": "_id",
							"type": "uint256"
						}
					],
					"name": "claim",
					"outputs": [],
					"stateMutability": "nonpayable",
					"type": "function"
				},
				{
					"inputs": [
						{
							"internalType": "uint256",
							"name": "_goal",
							"type": "uint256"
						},
						{
							"internalType": "uint32",
							"name": "_startAt",
							"type": "uint32"
						},
						{
							"internalType": "uint32",
							"name": "_endAt",
							"type": "uint32"
						}
					],
					"name": "launch",
					"outputs": [],
					"stateMutability": "nonpayable",
					"type": "function"
				},
				{
					"inputs": [
						{
							"internalType": "uint256",
							"name": "_id",
							"type": "uint256"
						},
						{
							"internalType": "uint256",
							"name": "_amount",
							"type": "uint256"
						}
					],
					"name": "pledge",
					"outputs": [],
					"stateMutability": "nonpayable",
					"type": "function"
				},
				{
					"inputs": [
						{
							"internalType": "uint256",
							"name": "_id",
							"type": "uint256"
						}
					],
					"name": "refund",
					"outputs": [],
					"stateMutability": "nonpayable",
					"type": "function"
				},
				{
					"inputs": [
						{
							"internalType": "uint256",
							"name": "",
							"type": "uint256"
						}
					],
					"name": "s_campaigns",
					"outputs": [
						{
							"internalType": "address",
							"name": "s_creator",
							"type": "address"
						},
						{
							"internalType": "uint256",
							"name": "s_goal",
							"type": "uint256"
						},
						{
							"internalType": "uint256",
							"name": "s_pledged",
							"type": "uint256"
						},
						{
							"internalType": "uint32",
							"name": "s_startAt",
							"type": "uint32"
						},
						{
							"internalType": "uint32",
							"name": "s_endAt",
							"type": "uint32"
						},
						{
							"internalType": "bool",
							"name": "s_claimed",
							"type": "bool"
						}
					],
					"stateMutability": "view",
					"type": "function"
				},
				{
					"inputs": [],
					"name": "s_count",
					"outputs": [
						{
							"internalType": "uint256",
							"name": "",
							"type": "uint256"
						}
					],
					"stateMutability": "view",
					"type": "function"
				},
				{
					"inputs": [
						{
							"internalType": "uint256",
							"name": "",
							"type": "uint256"
						},
						{
							"internalType": "address",
							"name": "",
							"type": "address"
						}
					],
					"name": "s_pledgeAmount",
					"outputs": [
						{
							"internalType": "uint256",
							"name": "",
							"type": "uint256"
						}
					],
					"stateMutability": "view",
					"type": "function"
				},
				{
					"inputs": [],
					"name": "s_token",
					"outputs": [
						{
							"internalType": "contract IERC20",
							"name": "",
							"type": "address"
						}
					],
					"stateMutability": "view",
					"type": "function"
				},
				{
					"inputs": [
						{
							"internalType": "uint256",
							"name": "_id",
							"type": "uint256"
						},
						{
							"internalType": "uint256",
							"name": "_amount",
							"type": "uint256"
						}
					],
					"name": "unpledge",
					"outputs": [],
					"stateMutability": "nonpayable",
					"type": "function"
				}
			],
			"devdoc": {
				"kind": "dev",
				"methods": {},
				"version": 1
			},
			"evm": {
				"assembly": "    /* \"CrowdFund/CrowdFund.sol\":162:5116  contract CrowdFund{... */\n  mstore(0x40, 0xa0)\n    /* \"CrowdFund/CrowdFund.sol\":1669:1737  constructor(address _token){... */\n  callvalue\n  dup1\n  iszero\n  tag_1\n  jumpi\n  0x00\n  dup1\n  revert\ntag_1:\n  pop\n  mload(0x40)\n  sub(codesize, bytecodeSize)\n  dup1\n  bytecodeSize\n  dup4\n  codecopy\n  dup2\n  dup2\n  add\n  0x40\n  mstore\n  dup2\n  add\n  swap1\n  tag_2\n  swap2\n  swap1\n  tag_3\n  jump\t// in\ntag_2:\n    /* \"CrowdFund/CrowdFund.sol\":1723:1729  _token */\n  dup1\n    /* \"CrowdFund/CrowdFund.sol\":1706:1730  s_token = IERC20(_token) */\n  0xffffffffffffffffffffffffffffffffffffffff\n  and\n  0x80\n  dup2\n  0xffffffffffffffffffffffffffffffffffffffff\n  and\n  dup2\n  mstore\n  pop\n  pop\n    /* \"CrowdFund/CrowdFund.sol\":1669:1737  constructor(address _token){... */\n  pop\n    /* \"CrowdFund/CrowdFund.sol\":162:5116  contract CrowdFund{... */\n  jump(tag_6)\n    /* \"#utility.yul\":88:205   */\ntag_8:\n    /* \"#utility.yul\":197:198   */\n  0x00\n    /* \"#utility.yul\":194:195   */\n  dup1\n    /* \"#utility.yul\":187:199   */\n  revert\n    /* \"#utility.yul\":334:460   */\ntag_10:\n    /* \"#utility.yul\":371:378   */\n  0x00\n    /* \"#utility.yul\":411:453   */\n  0xffffffffffffffffffffffffffffffffffffffff\n    /* \"#utility.yul\":404:409   */\n  dup3\n    /* \"#utility.yul\":400:454   */\n  and\n    /* \"#utility.yul\":389:454   */\n  swap1\n  pop\n    /* \"#utility.yul\":334:460   */\n  swap2\n  swap1\n  pop\n  jump\t// out\n    /* \"#utility.yul\":466:562   */\ntag_11:\n    /* \"#utility.yul\":503:510   */\n  0x00\n    /* \"#utility.yul\":532:556   */\n  tag_20\n    /* \"#utility.yul\":550:555   */\n  dup3\n    /* \"#utility.yul\":532:556   */\n  tag_10\n  jump\t// in\ntag_20:\n    /* \"#utility.yul\":521:556   */\n  swap1\n  pop\n    /* \"#utility.yul\":466:562   */\n  swap2\n  swap1\n  pop\n  jump\t// out\n    /* \"#utility.yul\":568:690   */\ntag_12:\n    /* \"#utility.yul\":641:665   */\n  tag_22\n    /* \"#utility.yul\":659:664   */\n  dup2\n    /* \"#utility.yul\":641:665   */\n  tag_11\n  jump\t// in\ntag_22:\n    /* \"#utility.yul\":634:639   */\n  dup2\n    /* \"#utility.yul\":631:666   */\n  eq\n    /* \"#utility.yul\":621:684   */\n  tag_23\n  jumpi\n    /* \"#utility.yul\":680:681   */\n  0x00\n    /* \"#utility.yul\":677:678   */\n  dup1\n    /* \"#utility.yul\":670:682   */\n  revert\n    /* \"#utility.yul\":621:684   */\ntag_23:\n    /* \"#utility.yul\":568:690   */\n  pop\n  jump\t// out\n    /* \"#utility.yul\":696:839   */\ntag_13:\n    /* \"#utility.yul\":753:758   */\n  0x00\n    /* \"#utility.yul\":784:790   */\n  dup2\n    /* \"#utility.yul\":778:791   */\n  mload\n    /* \"#utility.yul\":769:791   */\n  swap1\n  pop\n    /* \"#utility.yul\":800:833   */\n  tag_25\n    /* \"#utility.yul\":827:832   */\n  dup2\n    /* \"#utility.yul\":800:833   */\n  tag_12\n  jump\t// in\ntag_25:\n    /* \"#utility.yul\":696:839   */\n  swap3\n  swap2\n  pop\n  pop\n  jump\t// out\n    /* \"#utility.yul\":845:1196   */\ntag_3:\n    /* \"#utility.yul\":915:921   */\n  0x00\n    /* \"#utility.yul\":964:966   */\n  0x20\n    /* \"#utility.yul\":952:961   */\n  dup3\n    /* \"#utility.yul\":943:950   */\n  dup5\n    /* \"#utility.yul\":939:962   */\n  sub\n    /* \"#utility.yul\":935:967   */\n  slt\n    /* \"#utility.yul\":932:1051   */\n  iszero\n  tag_27\n  jumpi\n    /* \"#utility.yul\":970:1049   */\n  tag_28\n  tag_8\n  jump\t// in\ntag_28:\n    /* \"#utility.yul\":932:1051   */\ntag_27:\n    /* \"#utility.yul\":1090:1091   */\n  0x00\n    /* \"#utility.yul\":1115:1179   */\n  tag_29\n    /* \"#utility.yul\":1171:1178   */\n  dup5\n    /* \"#utility.yul\":1162:1168   */\n  dup3\n    /* \"#utility.yul\":1151:1160   */\n  dup6\n    /* \"#utility.yul\":1147:1169   */\n  add\n    /* \"#utility.yul\":1115:1179   */\n  tag_13\n  jump\t// in\ntag_29:\n    /* \"#utility.yul\":1105:1179   */\n  swap2\n  pop\n    /* \"#utility.yul\":1061:1189   */\n  pop\n    /* \"#utility.yul\":845:1196   */\n  swap3\n  swap2\n  pop\n  pop\n  jump\t// out\n    /* \"CrowdFund/CrowdFund.sol\":162:5116  contract CrowdFund{... */\ntag_6:\n  mload(0x80)\n  codecopy(0x00, dataOffset(sub_0), dataSize(sub_0))\n  0x00\n  assignImmutable(\"0x26a975632f70533c9512e57b565b8ce8e2befee6b08dfbc27c4a897a20e2c1d6\")\n  return(0x00, dataSize(sub_0))\nstop\n\nsub_0: assembly {\n        /* \"CrowdFund/CrowdFund.sol\":162:5116  contract CrowdFund{... */\n      mstore(0x40, 0x80)\n      callvalue\n      dup1\n      iszero\n      tag_1\n      jumpi\n      0x00\n      dup1\n      revert\n    tag_1:\n      pop\n      jumpi(tag_2, lt(calldatasize, 0x04))\n      shr(0xe0, calldataload(0x00))\n      dup1\n      0x5cf06e21\n      gt\n      tag_13\n      jumpi\n      dup1\n      0x5cf06e21\n      eq\n      tag_8\n      jumpi\n      dup1\n      0x65156b31\n      eq\n      tag_9\n      jumpi\n      dup1\n      0x711853ab\n      eq\n      tag_10\n      jumpi\n      dup1\n      0xbdaa0021\n      eq\n      tag_11\n      jumpi\n      dup1\n      0xfde327be\n      eq\n      tag_12\n      jumpi\n      jump(tag_2)\n    tag_13:\n      dup1\n      0x19268721\n      eq\n      tag_3\n      jumpi\n      dup1\n      0x278ecde1\n      eq\n      tag_4\n      jumpi\n      dup1\n      0x2c63f146\n      eq\n      tag_5\n      jumpi\n      dup1\n      0x379607f5\n      eq\n      tag_6\n      jumpi\n      dup1\n      0x40e58ee5\n      eq\n      tag_7\n      jumpi\n    tag_2:\n      0x00\n      dup1\n      revert\n        /* \"CrowdFund/CrowdFund.sol\":1599:1662  mapping(uint => mapping(address => uint)) public s_pledgeAmount */\n    tag_3:\n      tag_14\n      0x04\n      dup1\n      calldatasize\n      sub\n      dup2\n      add\n      swap1\n      tag_15\n      swap2\n      swap1\n      tag_16\n      jump\t// in\n    tag_15:\n      tag_17\n      jump\t// in\n    tag_14:\n      mload(0x40)\n      tag_18\n      swap2\n      swap1\n      tag_19\n      jump\t// in\n    tag_18:\n      mload(0x40)\n      dup1\n      swap2\n      sub\n      swap1\n      return\n        /* \"CrowdFund/CrowdFund.sol\":4599:5114  function refund(uint _id) external {... */\n    tag_4:\n      tag_20\n      0x04\n      dup1\n      calldatasize\n      sub\n      dup2\n      add\n      swap1\n      tag_21\n      swap2\n      swap1\n      tag_22\n      jump\t// in\n    tag_21:\n      tag_23\n      jump\t// in\n    tag_20:\n      stop\n        /* \"CrowdFund/CrowdFund.sol\":1744:2348  function launch(uint _goal, uint32 _startAt, uint32 _endAt) external {... */\n    tag_5:\n      tag_24\n      0x04\n      dup1\n      calldatasize\n      sub\n      dup2\n      add\n      swap1\n      tag_25\n      swap2\n      swap1\n      tag_26\n      jump\t// in\n    tag_25:\n      tag_27\n      jump\t// in\n    tag_24:\n      stop\n        /* \"CrowdFund/CrowdFund.sol\":4044:4562  function claim(uint _id) external {... */\n    tag_6:\n      tag_28\n      0x04\n      dup1\n      calldatasize\n      sub\n      dup2\n      add\n      swap1\n      tag_29\n      swap2\n      swap1\n      tag_22\n      jump\t// in\n    tag_29:\n      tag_30\n      jump\t// in\n    tag_28:\n      stop\n        /* \"CrowdFund/CrowdFund.sol\":2446:2747  function cancel(uint _id) external {... */\n    tag_7:\n      tag_31\n      0x04\n      dup1\n      calldatasize\n      sub\n      dup2\n      add\n      swap1\n      tag_32\n      swap2\n      swap1\n      tag_22\n      jump\t// in\n    tag_32:\n      tag_33\n      jump\t// in\n    tag_31:\n      stop\n        /* \"CrowdFund/CrowdFund.sol\":1507:1526  uint public s_count */\n    tag_8:\n      tag_34\n      tag_35\n      jump\t// in\n    tag_34:\n      mload(0x40)\n      tag_36\n      swap2\n      swap1\n      tag_19\n      jump\t// in\n    tag_36:\n      mload(0x40)\n      dup1\n      swap2\n      sub\n      swap1\n      return\n        /* \"CrowdFund/CrowdFund.sol\":1318:1349  IERC20 public immutable s_token */\n    tag_9:\n      tag_37\n      tag_38\n      jump\t// in\n    tag_37:\n      mload(0x40)\n      tag_39\n      swap2\n      swap1\n      tag_40\n      jump\t// in\n    tag_39:\n      mload(0x40)\n      dup1\n      swap2\n      sub\n      swap1\n      return\n        /* \"CrowdFund/CrowdFund.sol\":3625:3949  function unpledge(uint _id, uint _amount) external{... */\n    tag_10:\n      tag_41\n      0x04\n      dup1\n      calldatasize\n      sub\n      dup2\n      add\n      swap1\n      tag_42\n      swap2\n      swap1\n      tag_43\n      jump\t// in\n    tag_42:\n      tag_44\n      jump\t// in\n    tag_41:\n      stop\n        /* \"CrowdFund/CrowdFund.sol\":1416:1460  mapping(uint => Campaign) public s_campaigns */\n    tag_11:\n      tag_45\n      0x04\n      dup1\n      calldatasize\n      sub\n      dup2\n      add\n      swap1\n      tag_46\n      swap2\n      swap1\n      tag_22\n      jump\t// in\n    tag_46:\n      tag_47\n      jump\t// in\n    tag_45:\n      mload(0x40)\n      tag_48\n      swap7\n      swap6\n      swap5\n      swap4\n      swap3\n      swap2\n      swap1\n      tag_49\n      jump\t// in\n    tag_48:\n      mload(0x40)\n      dup1\n      swap2\n      sub\n      swap1\n      return\n        /* \"CrowdFund/CrowdFund.sol\":2825:3554  function pledge(uint _id, uint _amount) external {... */\n    tag_12:\n      tag_50\n      0x04\n      dup1\n      calldatasize\n      sub\n      dup2\n      add\n      swap1\n      tag_51\n      swap2\n      swap1\n      tag_43\n      jump\t// in\n    tag_51:\n      tag_52\n      jump\t// in\n    tag_50:\n      stop\n        /* \"CrowdFund/CrowdFund.sol\":1599:1662  mapping(uint => mapping(address => uint)) public s_pledgeAmount */\n    tag_17:\n      mstore(0x20, 0x02)\n      dup2\n      0x00\n      mstore\n      mstore(0x20, keccak256(0x00, 0x40))\n      dup1\n      0x00\n      mstore\n      keccak256(0x00, 0x40)\n      0x00\n      swap2\n      pop\n      swap2\n      pop\n      pop\n      sload\n      dup2\n      jump\t// out\n        /* \"CrowdFund/CrowdFund.sol\":4599:5114  function refund(uint _id) external {... */\n    tag_23:\n        /* \"CrowdFund/CrowdFund.sol\":4644:4669  Campaign storage campaign */\n      0x00\n        /* \"CrowdFund/CrowdFund.sol\":4672:4683  s_campaigns */\n      dup1\n        /* \"CrowdFund/CrowdFund.sol\":4672:4688  s_campaigns[_id] */\n      0x00\n        /* \"CrowdFund/CrowdFund.sol\":4684:4687  _id */\n      dup4\n        /* \"CrowdFund/CrowdFund.sol\":4672:4688  s_campaigns[_id] */\n      dup2\n      mstore\n      0x20\n      add\n      swap1\n      dup2\n      mstore\n      0x20\n      add\n      0x00\n      keccak256\n        /* \"CrowdFund/CrowdFund.sol\":4644:4688  Campaign storage campaign = s_campaigns[_id] */\n      swap1\n      pop\n        /* \"CrowdFund/CrowdFund.sol\":4724:4732  campaign */\n      dup1\n        /* \"CrowdFund/CrowdFund.sol\":4724:4740  campaign.s_endAt */\n      0x03\n      add\n      0x04\n      swap1\n      sload\n      swap1\n      0x0100\n      exp\n      swap1\n      div\n      0xffffffff\n      and\n        /* \"CrowdFund/CrowdFund.sol\":4706:4740  block.timestamp > campaign.s_endAt */\n      0xffffffff\n      and\n        /* \"CrowdFund/CrowdFund.sol\":4706:4721  block.timestamp */\n      timestamp\n        /* \"CrowdFund/CrowdFund.sol\":4706:4740  block.timestamp > campaign.s_endAt */\n      gt\n        /* \"CrowdFund/CrowdFund.sol\":4698:4754  require(block.timestamp > campaign.s_endAt, \"Not Ended\") */\n      tag_54\n      jumpi\n      mload(0x40)\n      0x08c379a000000000000000000000000000000000000000000000000000000000\n      dup2\n      mstore\n      0x04\n      add\n      tag_55\n      swap1\n      tag_56\n      jump\t// in\n    tag_55:\n      mload(0x40)\n      dup1\n      swap2\n      sub\n      swap1\n      revert\n    tag_54:\n        /* \"CrowdFund/CrowdFund.sol\":4794:4802  campaign */\n      dup1\n        /* \"CrowdFund/CrowdFund.sol\":4794:4809  campaign.s_goal */\n      0x01\n      add\n      sload\n        /* \"CrowdFund/CrowdFund.sol\":4772:4780  campaign */\n      dup2\n        /* \"CrowdFund/CrowdFund.sol\":4772:4790  campaign.s_pledged */\n      0x02\n      add\n      sload\n        /* \"CrowdFund/CrowdFund.sol\":4772:4809  campaign.s_pledged <= campaign.s_goal */\n      gt\n      iszero\n        /* \"CrowdFund/CrowdFund.sol\":4764:4836  require(campaign.s_pledged <= campaign.s_goal, \"Pledged less than goal\") */\n      tag_57\n      jumpi\n      mload(0x40)\n      0x08c379a000000000000000000000000000000000000000000000000000000000\n      dup2\n      mstore\n      0x04\n      add\n      tag_58\n      swap1\n      tag_59\n      jump\t// in\n    tag_58:\n      mload(0x40)\n      dup1\n      swap2\n      sub\n      swap1\n      revert\n    tag_57:\n        /* \"CrowdFund/CrowdFund.sol\":4931:4939  uint bal */\n      0x00\n        /* \"CrowdFund/CrowdFund.sol\":4942:4956  s_pledgeAmount */\n      0x02\n        /* \"CrowdFund/CrowdFund.sol\":4942:4961  s_pledgeAmount[_id] */\n      0x00\n        /* \"CrowdFund/CrowdFund.sol\":4957:4960  _id */\n      dup5\n        /* \"CrowdFund/CrowdFund.sol\":4942:4961  s_pledgeAmount[_id] */\n      dup2\n      mstore\n      0x20\n      add\n      swap1\n      dup2\n      mstore\n      0x20\n      add\n      0x00\n      keccak256\n        /* \"CrowdFund/CrowdFund.sol\":4942:4973  s_pledgeAmount[_id][msg.sender] */\n      0x00\n        /* \"CrowdFund/CrowdFund.sol\":4962:4972  msg.sender */\n      caller\n        /* \"CrowdFund/CrowdFund.sol\":4942:4973  s_pledgeAmount[_id][msg.sender] */\n      0xffffffffffffffffffffffffffffffffffffffff\n      and\n      0xffffffffffffffffffffffffffffffffffffffff\n      and\n      dup2\n      mstore\n      0x20\n      add\n      swap1\n      dup2\n      mstore\n      0x20\n      add\n      0x00\n      keccak256\n      sload\n        /* \"CrowdFund/CrowdFund.sol\":4931:4973  uint bal = s_pledgeAmount[_id][msg.sender] */\n      swap1\n      pop\n        /* \"CrowdFund/CrowdFund.sol\":5017:5018  0 */\n      0x00\n        /* \"CrowdFund/CrowdFund.sol\":4983:4997  s_pledgeAmount */\n      0x02\n        /* \"CrowdFund/CrowdFund.sol\":4983:5002  s_pledgeAmount[_id] */\n      0x00\n        /* \"CrowdFund/CrowdFund.sol\":4998:5001  _id */\n      dup6\n        /* \"CrowdFund/CrowdFund.sol\":4983:5002  s_pledgeAmount[_id] */\n      dup2\n      mstore\n      0x20\n      add\n      swap1\n      dup2\n      mstore\n      0x20\n      add\n      0x00\n      keccak256\n        /* \"CrowdFund/CrowdFund.sol\":4983:5014  s_pledgeAmount[_id][msg.sender] */\n      0x00\n        /* \"CrowdFund/CrowdFund.sol\":5003:5013  msg.sender */\n      caller\n        /* \"CrowdFund/CrowdFund.sol\":4983:5014  s_pledgeAmount[_id][msg.sender] */\n      0xffffffffffffffffffffffffffffffffffffffff\n      and\n      0xffffffffffffffffffffffffffffffffffffffff\n      and\n      dup2\n      mstore\n      0x20\n      add\n      swap1\n      dup2\n      mstore\n      0x20\n      add\n      0x00\n      keccak256\n        /* \"CrowdFund/CrowdFund.sol\":4983:5018  s_pledgeAmount[_id][msg.sender] = 0 */\n      dup2\n      swap1\n      sstore\n      pop\n        /* \"CrowdFund/CrowdFund.sol\":5028:5035  s_token */\n      immutable(\"0x26a975632f70533c9512e57b565b8ce8e2befee6b08dfbc27c4a897a20e2c1d6\")\n        /* \"CrowdFund/CrowdFund.sol\":5028:5044  s_token.transfer */\n      0xffffffffffffffffffffffffffffffffffffffff\n      and\n      0xa9059cbb\n        /* \"CrowdFund/CrowdFund.sol\":5045:5055  msg.sender */\n      caller\n        /* \"CrowdFund/CrowdFund.sol\":5057:5060  bal */\n      dup4\n        /* \"CrowdFund/CrowdFund.sol\":5028:5061  s_token.transfer(msg.sender, bal) */\n      mload(0x40)\n      dup4\n      0xffffffff\n      and\n      0xe0\n      shl\n      dup2\n      mstore\n      0x04\n      add\n      tag_60\n      swap3\n      swap2\n      swap1\n      tag_61\n      jump\t// in\n    tag_60:\n      0x20\n      mload(0x40)\n      dup1\n      dup4\n      sub\n      dup2\n      0x00\n      dup8\n      gas\n      call\n      iszero\n      dup1\n      iszero\n      tag_63\n      jumpi\n      returndatasize\n      0x00\n      dup1\n      returndatacopy\n      revert(0x00, returndatasize)\n    tag_63:\n      pop\n      pop\n      pop\n      pop\n      mload(0x40)\n      returndatasize\n      not(0x1f)\n      0x1f\n      dup3\n      add\n      and\n      dup3\n      add\n      dup1\n      0x40\n      mstore\n      pop\n      dup2\n      add\n      swap1\n      tag_64\n      swap2\n      swap1\n      tag_65\n      jump\t// in\n    tag_64:\n      pop\n        /* \"CrowdFund/CrowdFund.sol\":5089:5099  msg.sender */\n      caller\n        /* \"CrowdFund/CrowdFund.sol\":5077:5105  Refund(_id, msg.sender, bal) */\n      0xffffffffffffffffffffffffffffffffffffffff\n      and\n        /* \"CrowdFund/CrowdFund.sol\":5084:5087  _id */\n      dup4\n        /* \"CrowdFund/CrowdFund.sol\":5077:5105  Refund(_id, msg.sender, bal) */\n      0x21e12a7cad0da5928167e1084ea4d5fdf8d9af66657a2543a9ac76a0ca081477\n        /* \"CrowdFund/CrowdFund.sol\":5101:5104  bal */\n      dup4\n        /* \"CrowdFund/CrowdFund.sol\":5077:5105  Refund(_id, msg.sender, bal) */\n      mload(0x40)\n      tag_66\n      swap2\n      swap1\n      tag_19\n      jump\t// in\n    tag_66:\n      mload(0x40)\n      dup1\n      swap2\n      sub\n      swap1\n      log3\n        /* \"CrowdFund/CrowdFund.sol\":4634:5114  {... */\n      pop\n      pop\n        /* \"CrowdFund/CrowdFund.sol\":4599:5114  function refund(uint _id) external {... */\n      pop\n      jump\t// out\n        /* \"CrowdFund/CrowdFund.sol\":1744:2348  function launch(uint _goal, uint32 _startAt, uint32 _endAt) external {... */\n    tag_27:\n        /* \"CrowdFund/CrowdFund.sol\":1843:1858  block.timestamp */\n      timestamp\n        /* \"CrowdFund/CrowdFund.sol\":1831:1839  _startAt */\n      dup3\n        /* \"CrowdFund/CrowdFund.sol\":1831:1858  _startAt >= block.timestamp */\n      0xffffffff\n      and\n      lt\n      iszero\n        /* \"CrowdFund/CrowdFund.sol\":1823:1877  require(_startAt >= block.timestamp, \"start at < now\") */\n      tag_68\n      jumpi\n      mload(0x40)\n      0x08c379a000000000000000000000000000000000000000000000000000000000\n      dup2\n      mstore\n      0x04\n      add\n      tag_69\n      swap1\n      tag_70\n      jump\t// in\n    tag_69:\n      mload(0x40)\n      dup1\n      swap2\n      sub\n      swap1\n      revert\n    tag_68:\n        /* \"CrowdFund/CrowdFund.sol\":1905:1913  _startAt */\n      dup2\n        /* \"CrowdFund/CrowdFund.sol\":1895:1913  _endAt >= _startAt */\n      0xffffffff\n      and\n        /* \"CrowdFund/CrowdFund.sol\":1895:1901  _endAt */\n      dup2\n        /* \"CrowdFund/CrowdFund.sol\":1895:1913  _endAt >= _startAt */\n      0xffffffff\n      and\n      lt\n      iszero\n        /* \"CrowdFund/CrowdFund.sol\":1887:1935  require(_endAt >= _startAt, \"End at < start at\") */\n      tag_71\n      jumpi\n      mload(0x40)\n      0x08c379a000000000000000000000000000000000000000000000000000000000\n      dup2\n      mstore\n      0x04\n      add\n      tag_72\n      swap1\n      tag_73\n      jump\t// in\n    tag_72:\n      mload(0x40)\n      dup1\n      swap2\n      sub\n      swap1\n      revert\n    tag_71:\n        /* \"CrowdFund/CrowdFund.sol\":1981:1988  90 days */\n      0x76a700\n        /* \"CrowdFund/CrowdFund.sol\":1963:1978  block.timestamp */\n      timestamp\n        /* \"CrowdFund/CrowdFund.sol\":1963:1988  block.timestamp + 90 days */\n      tag_74\n      swap2\n      swap1\n      tag_75\n      jump\t// in\n    tag_74:\n        /* \"CrowdFund/CrowdFund.sol\":1953:1959  _endAt */\n      dup2\n        /* \"CrowdFund/CrowdFund.sol\":1953:1988  _endAt <= block.timestamp + 90 days */\n      0xffffffff\n      and\n      gt\n      iszero\n        /* \"CrowdFund/CrowdFund.sol\":1945:2014  require(_endAt <= block.timestamp + 90 days, \"end at > max duration\") */\n      tag_76\n      jumpi\n      mload(0x40)\n      0x08c379a000000000000000000000000000000000000000000000000000000000\n      dup2\n      mstore\n      0x04\n      add\n      tag_77\n      swap1\n      tag_78\n      jump\t// in\n    tag_77:\n      mload(0x40)\n      dup1\n      swap2\n      sub\n      swap1\n      revert\n    tag_76:\n        /* \"CrowdFund/CrowdFund.sol\":2036:2037  1 */\n      0x01\n        /* \"CrowdFund/CrowdFund.sol\":2025:2032  s_count */\n      dup1\n      0x00\n        /* \"CrowdFund/CrowdFund.sol\":2025:2037  s_count += 1 */\n      dup3\n      dup3\n      sload\n      tag_79\n      swap2\n      swap1\n      tag_75\n      jump\t// in\n    tag_79:\n      swap3\n      pop\n      pop\n      dup2\n      swap1\n      sstore\n      pop\n        /* \"CrowdFund/CrowdFund.sol\":2070:2272  Campaign({... */\n      mload(0x40)\n      dup1\n      0xc0\n      add\n      0x40\n      mstore\n      dup1\n        /* \"CrowdFund/CrowdFund.sol\":2104:2114  msg.sender */\n      caller\n        /* \"CrowdFund/CrowdFund.sol\":2070:2272  Campaign({... */\n      0xffffffffffffffffffffffffffffffffffffffff\n      and\n      dup2\n      mstore\n      0x20\n      add\n        /* \"CrowdFund/CrowdFund.sol\":2136:2141  _goal */\n      dup5\n        /* \"CrowdFund/CrowdFund.sol\":2070:2272  Campaign({... */\n      dup2\n      mstore\n      0x20\n      add\n        /* \"CrowdFund/CrowdFund.sol\":2166:2167  0 */\n      0x00\n        /* \"CrowdFund/CrowdFund.sol\":2070:2272  Campaign({... */\n      dup2\n      mstore\n      0x20\n      add\n        /* \"CrowdFund/CrowdFund.sol\":2193:2201  _startAt */\n      dup4\n        /* \"CrowdFund/CrowdFund.sol\":2070:2272  Campaign({... */\n      0xffffffff\n      and\n      dup2\n      mstore\n      0x20\n      add\n        /* \"CrowdFund/CrowdFund.sol\":2225:2231  _endAt */\n      dup3\n        /* \"CrowdFund/CrowdFund.sol\":2070:2272  Campaign({... */\n      0xffffffff\n      and\n      dup2\n      mstore\n      0x20\n      add\n        /* \"CrowdFund/CrowdFund.sol\":2256:2261  false */\n      0x00\n        /* \"CrowdFund/CrowdFund.sol\":2070:2272  Campaign({... */\n      iszero\n      iszero\n      dup2\n      mstore\n      pop\n        /* \"CrowdFund/CrowdFund.sol\":2047:2058  s_campaigns */\n      0x00\n        /* \"CrowdFund/CrowdFund.sol\":2047:2067  s_campaigns[s_count] */\n      dup1\n        /* \"CrowdFund/CrowdFund.sol\":2059:2066  s_count */\n      sload(0x01)\n        /* \"CrowdFund/CrowdFund.sol\":2047:2067  s_campaigns[s_count] */\n      dup2\n      mstore\n      0x20\n      add\n      swap1\n      dup2\n      mstore\n      0x20\n      add\n      0x00\n      keccak256\n        /* \"CrowdFund/CrowdFund.sol\":2047:2272  s_campaigns[s_count] = Campaign({... */\n      0x00\n      dup3\n      add\n      mload\n      dup2\n      0x00\n      add\n      exp(0x0100, 0x00)\n      dup2\n      sload\n      dup2\n      0xffffffffffffffffffffffffffffffffffffffff\n      mul\n      not\n      and\n      swap1\n      dup4\n      0xffffffffffffffffffffffffffffffffffffffff\n      and\n      mul\n      or\n      swap1\n      sstore\n      pop\n      0x20\n      dup3\n      add\n      mload\n      dup2\n      0x01\n      add\n      sstore\n      0x40\n      dup3\n      add\n      mload\n      dup2\n      0x02\n      add\n      sstore\n      0x60\n      dup3\n      add\n      mload\n      dup2\n      0x03\n      add\n      exp(0x0100, 0x00)\n      dup2\n      sload\n      dup2\n      0xffffffff\n      mul\n      not\n      and\n      swap1\n      dup4\n      0xffffffff\n      and\n      mul\n      or\n      swap1\n      sstore\n      pop\n      0x80\n      dup3\n      add\n      mload\n      dup2\n      0x03\n      add\n      exp(0x0100, 0x04)\n      dup2\n      sload\n      dup2\n      0xffffffff\n      mul\n      not\n      and\n      swap1\n      dup4\n      0xffffffff\n      and\n      mul\n      or\n      swap1\n      sstore\n      pop\n      0xa0\n      dup3\n      add\n      mload\n      dup2\n      0x03\n      add\n      exp(0x0100, 0x08)\n      dup2\n      sload\n      dup2\n      0xff\n      mul\n      not\n      and\n      swap1\n      dup4\n      iszero\n      iszero\n      mul\n      or\n      swap1\n      sstore\n      pop\n      swap1\n      pop\n      pop\n        /* \"CrowdFund/CrowdFund.sol\":2304:2314  msg.sender */\n      caller\n        /* \"CrowdFund/CrowdFund.sol\":2288:2340  Launch(s_count, msg.sender, _goal, _startAt, _endAt) */\n      0xffffffffffffffffffffffffffffffffffffffff\n      and\n      0x0601cd0d650b473037e838a2696d41e654433d065b3f56b28d1d3302e44a304f\n        /* \"CrowdFund/CrowdFund.sol\":2295:2302  s_count */\n      sload(0x01)\n        /* \"CrowdFund/CrowdFund.sol\":2316:2321  _goal */\n      dup6\n        /* \"CrowdFund/CrowdFund.sol\":2323:2331  _startAt */\n      dup6\n        /* \"CrowdFund/CrowdFund.sol\":2333:2339  _endAt */\n      dup6\n        /* \"CrowdFund/CrowdFund.sol\":2288:2340  Launch(s_count, msg.sender, _goal, _startAt, _endAt) */\n      mload(0x40)\n      tag_80\n      swap5\n      swap4\n      swap3\n      swap2\n      swap1\n      tag_81\n      jump\t// in\n    tag_80:\n      mload(0x40)\n      dup1\n      swap2\n      sub\n      swap1\n      log2\n        /* \"CrowdFund/CrowdFund.sol\":1744:2348  function launch(uint _goal, uint32 _startAt, uint32 _endAt) external {... */\n      pop\n      pop\n      pop\n      jump\t// out\n        /* \"CrowdFund/CrowdFund.sol\":4044:4562  function claim(uint _id) external {... */\n    tag_30:\n        /* \"CrowdFund/CrowdFund.sol\":4088:4113  Campaign storage campaign */\n      0x00\n        /* \"CrowdFund/CrowdFund.sol\":4116:4127  s_campaigns */\n      dup1\n        /* \"CrowdFund/CrowdFund.sol\":4116:4132  s_campaigns[_id] */\n      0x00\n        /* \"CrowdFund/CrowdFund.sol\":4128:4131  _id */\n      dup4\n        /* \"CrowdFund/CrowdFund.sol\":4116:4132  s_campaigns[_id] */\n      dup2\n      mstore\n      0x20\n      add\n      swap1\n      dup2\n      mstore\n      0x20\n      add\n      0x00\n      keccak256\n        /* \"CrowdFund/CrowdFund.sol\":4088:4132  Campaign storage campaign = s_campaigns[_id] */\n      swap1\n      pop\n        /* \"CrowdFund/CrowdFund.sol\":4164:4172  campaign */\n      dup1\n        /* \"CrowdFund/CrowdFund.sol\":4164:4182  campaign.s_creator */\n      0x00\n      add\n      0x00\n      swap1\n      sload\n      swap1\n      0x0100\n      exp\n      swap1\n      div\n      0xffffffffffffffffffffffffffffffffffffffff\n      and\n        /* \"CrowdFund/CrowdFund.sol\":4150:4182  msg.sender == campaign.s_creator */\n      0xffffffffffffffffffffffffffffffffffffffff\n      and\n        /* \"CrowdFund/CrowdFund.sol\":4150:4160  msg.sender */\n      caller\n        /* \"CrowdFund/CrowdFund.sol\":4150:4182  msg.sender == campaign.s_creator */\n      0xffffffffffffffffffffffffffffffffffffffff\n      and\n      eq\n        /* \"CrowdFund/CrowdFund.sol\":4142:4229  require(msg.sender == campaign.s_creator, \"Sender is not the creator of this campaign\") */\n      tag_83\n      jumpi\n      mload(0x40)\n      0x08c379a000000000000000000000000000000000000000000000000000000000\n      dup2\n      mstore\n      0x04\n      add\n      tag_84\n      swap1\n      tag_85\n      jump\t// in\n    tag_84:\n      mload(0x40)\n      dup1\n      swap2\n      sub\n      swap1\n      revert\n    tag_83:\n        /* \"CrowdFund/CrowdFund.sol\":4265:4273  campaign */\n      dup1\n        /* \"CrowdFund/CrowdFund.sol\":4265:4281  campaign.s_endAt */\n      0x03\n      add\n      0x04\n      swap1\n      sload\n      swap1\n      0x0100\n      exp\n      swap1\n      div\n      0xffffffff\n      and\n        /* \"CrowdFund/CrowdFund.sol\":4247:4281  block.timestamp > campaign.s_endAt */\n      0xffffffff\n      and\n        /* \"CrowdFund/CrowdFund.sol\":4247:4262  block.timestamp */\n      timestamp\n        /* \"CrowdFund/CrowdFund.sol\":4247:4281  block.timestamp > campaign.s_endAt */\n      gt\n        /* \"CrowdFund/CrowdFund.sol\":4239:4295  require(block.timestamp > campaign.s_endAt, \"Not Ended\") */\n      tag_86\n      jumpi\n      mload(0x40)\n      0x08c379a000000000000000000000000000000000000000000000000000000000\n      dup2\n      mstore\n      0x04\n      add\n      tag_87\n      swap1\n      tag_56\n      jump\t// in\n    tag_87:\n      mload(0x40)\n      dup1\n      swap2\n      sub\n      swap1\n      revert\n    tag_86:\n        /* \"CrowdFund/CrowdFund.sol\":4335:4343  campaign */\n      dup1\n        /* \"CrowdFund/CrowdFund.sol\":4335:4350  campaign.s_goal */\n      0x01\n      add\n      sload\n        /* \"CrowdFund/CrowdFund.sol\":4313:4321  campaign */\n      dup2\n        /* \"CrowdFund/CrowdFund.sol\":4313:4331  campaign.s_pledged */\n      0x02\n      add\n      sload\n        /* \"CrowdFund/CrowdFund.sol\":4313:4350  campaign.s_pledged >= campaign.s_goal */\n      lt\n      iszero\n        /* \"CrowdFund/CrowdFund.sol\":4305:4377  require(campaign.s_pledged >= campaign.s_goal, \"Pledged less than goal\") */\n      tag_88\n      jumpi\n      mload(0x40)\n      0x08c379a000000000000000000000000000000000000000000000000000000000\n      dup2\n      mstore\n      0x04\n      add\n      tag_89\n      swap1\n      tag_59\n      jump\t// in\n    tag_89:\n      mload(0x40)\n      dup1\n      swap2\n      sub\n      swap1\n      revert\n    tag_88:\n        /* \"CrowdFund/CrowdFund.sol\":4396:4404  campaign */\n      dup1\n        /* \"CrowdFund/CrowdFund.sol\":4396:4414  campaign.s_claimed */\n      0x03\n      add\n      0x08\n      swap1\n      sload\n      swap1\n      0x0100\n      exp\n      swap1\n      div\n      0xff\n      and\n        /* \"CrowdFund/CrowdFund.sol\":4395:4414  !campaign.s_claimed */\n      iszero\n        /* \"CrowdFund/CrowdFund.sol\":4387:4434  require(!campaign.s_claimed, \"Already claimed\") */\n      tag_90\n      jumpi\n      mload(0x40)\n      0x08c379a000000000000000000000000000000000000000000000000000000000\n      dup2\n      mstore\n      0x04\n      add\n      tag_91\n      swap1\n      tag_92\n      jump\t// in\n    tag_91:\n      mload(0x40)\n      dup1\n      swap2\n      sub\n      swap1\n      revert\n    tag_90:\n        /* \"CrowdFund/CrowdFund.sol\":4466:4470  true */\n      0x01\n        /* \"CrowdFund/CrowdFund.sol\":4445:4453  campaign */\n      dup2\n        /* \"CrowdFund/CrowdFund.sol\":4445:4463  campaign.s_claimed */\n      0x03\n      add\n      0x08\n        /* \"CrowdFund/CrowdFund.sol\":4445:4470  campaign.s_claimed = true */\n      0x0100\n      exp\n      dup2\n      sload\n      dup2\n      0xff\n      mul\n      not\n      and\n      swap1\n      dup4\n      iszero\n      iszero\n      mul\n      or\n      swap1\n      sstore\n      pop\n        /* \"CrowdFund/CrowdFund.sol\":4480:4487  s_token */\n      immutable(\"0x26a975632f70533c9512e57b565b8ce8e2befee6b08dfbc27c4a897a20e2c1d6\")\n        /* \"CrowdFund/CrowdFund.sol\":4480:4496  s_token.transfer */\n      0xffffffffffffffffffffffffffffffffffffffff\n      and\n      0xa9059cbb\n        /* \"CrowdFund/CrowdFund.sol\":4497:4507  msg.sender */\n      caller\n        /* \"CrowdFund/CrowdFund.sol\":4509:4517  campaign */\n      dup4\n        /* \"CrowdFund/CrowdFund.sol\":4509:4527  campaign.s_pledged */\n      0x02\n      add\n      sload\n        /* \"CrowdFund/CrowdFund.sol\":4480:4528  s_token.transfer(msg.sender, campaign.s_pledged) */\n      mload(0x40)\n      dup4\n      0xffffffff\n      and\n      0xe0\n      shl\n      dup2\n      mstore\n      0x04\n      add\n      tag_93\n      swap3\n      swap2\n      swap1\n      tag_61\n      jump\t// in\n    tag_93:\n      0x20\n      mload(0x40)\n      dup1\n      dup4\n      sub\n      dup2\n      0x00\n      dup8\n      gas\n      call\n      iszero\n      dup1\n      iszero\n      tag_95\n      jumpi\n      returndatasize\n      0x00\n      dup1\n      returndatacopy\n      revert(0x00, returndatasize)\n    tag_95:\n      pop\n      pop\n      pop\n      pop\n      mload(0x40)\n      returndatasize\n      not(0x1f)\n      0x1f\n      dup3\n      add\n      and\n      dup3\n      add\n      dup1\n      0x40\n      mstore\n      pop\n      dup2\n      add\n      swap1\n      tag_96\n      swap2\n      swap1\n      tag_65\n      jump\t// in\n    tag_96:\n      pop\n        /* \"CrowdFund/CrowdFund.sol\":4544:4554  Claim(_id) */\n      0x7bb2b3c10797baccb6f8c4791f1edd6ca2f0d028ee0eda64b01a9a57e3a653f7\n        /* \"CrowdFund/CrowdFund.sol\":4550:4553  _id */\n      dup3\n        /* \"CrowdFund/CrowdFund.sol\":4544:4554  Claim(_id) */\n      mload(0x40)\n      tag_97\n      swap2\n      swap1\n      tag_19\n      jump\t// in\n    tag_97:\n      mload(0x40)\n      dup1\n      swap2\n      sub\n      swap1\n      log1\n        /* \"CrowdFund/CrowdFund.sol\":4078:4562  {... */\n      pop\n        /* \"CrowdFund/CrowdFund.sol\":4044:4562  function claim(uint _id) external {... */\n      pop\n      jump\t// out\n        /* \"CrowdFund/CrowdFund.sol\":2446:2747  function cancel(uint _id) external {... */\n    tag_33:\n        /* \"CrowdFund/CrowdFund.sol\":2491:2515  Campaign memory campagin */\n      0x00\n        /* \"CrowdFund/CrowdFund.sol\":2518:2529  s_campaigns */\n      dup1\n        /* \"CrowdFund/CrowdFund.sol\":2518:2534  s_campaigns[_id] */\n      0x00\n        /* \"CrowdFund/CrowdFund.sol\":2530:2533  _id */\n      dup4\n        /* \"CrowdFund/CrowdFund.sol\":2518:2534  s_campaigns[_id] */\n      dup2\n      mstore\n      0x20\n      add\n      swap1\n      dup2\n      mstore\n      0x20\n      add\n      0x00\n      keccak256\n        /* \"CrowdFund/CrowdFund.sol\":2491:2534  Campaign memory campagin = s_campaigns[_id] */\n      mload(0x40)\n      dup1\n      0xc0\n      add\n      0x40\n      mstore\n      swap1\n      dup2\n      0x00\n      dup3\n      add\n      0x00\n      swap1\n      sload\n      swap1\n      0x0100\n      exp\n      swap1\n      div\n      0xffffffffffffffffffffffffffffffffffffffff\n      and\n      0xffffffffffffffffffffffffffffffffffffffff\n      and\n      0xffffffffffffffffffffffffffffffffffffffff\n      and\n      dup2\n      mstore\n      0x20\n      add\n      0x01\n      dup3\n      add\n      sload\n      dup2\n      mstore\n      0x20\n      add\n      0x02\n      dup3\n      add\n      sload\n      dup2\n      mstore\n      0x20\n      add\n      0x03\n      dup3\n      add\n      0x00\n      swap1\n      sload\n      swap1\n      0x0100\n      exp\n      swap1\n      div\n      0xffffffff\n      and\n      0xffffffff\n      and\n      0xffffffff\n      and\n      dup2\n      mstore\n      0x20\n      add\n      0x03\n      dup3\n      add\n      0x04\n      swap1\n      sload\n      swap1\n      0x0100\n      exp\n      swap1\n      div\n      0xffffffff\n      and\n      0xffffffff\n      and\n      0xffffffff\n      and\n      dup2\n      mstore\n      0x20\n      add\n      0x03\n      dup3\n      add\n      0x08\n      swap1\n      sload\n      swap1\n      0x0100\n      exp\n      swap1\n      div\n      0xff\n      and\n      iszero\n      iszero\n      iszero\n      iszero\n      dup2\n      mstore\n      pop\n      pop\n      swap1\n      pop\n        /* \"CrowdFund/CrowdFund.sol\":2566:2574  campagin */\n      dup1\n        /* \"CrowdFund/CrowdFund.sol\":2566:2584  campagin.s_creator */\n      0x00\n      add\n      mload\n        /* \"CrowdFund/CrowdFund.sol\":2552:2584  msg.sender == campagin.s_creator */\n      0xffffffffffffffffffffffffffffffffffffffff\n      and\n        /* \"CrowdFund/CrowdFund.sol\":2552:2562  msg.sender */\n      caller\n        /* \"CrowdFund/CrowdFund.sol\":2552:2584  msg.sender == campagin.s_creator */\n      0xffffffffffffffffffffffffffffffffffffffff\n      and\n      eq\n        /* \"CrowdFund/CrowdFund.sol\":2544:2629  require(msg.sender == campagin.s_creator, \"Only the creator may cancel the campaign\") */\n      tag_99\n      jumpi\n      mload(0x40)\n      0x08c379a000000000000000000000000000000000000000000000000000000000\n      dup2\n      mstore\n      0x04\n      add\n      tag_100\n      swap1\n      tag_101\n      jump\t// in\n    tag_100:\n      mload(0x40)\n      dup1\n      swap2\n      sub\n      swap1\n      revert\n    tag_99:\n        /* \"CrowdFund/CrowdFund.sol\":2665:2673  campagin */\n      dup1\n        /* \"CrowdFund/CrowdFund.sol\":2665:2683  campagin.s_startAt */\n      0x60\n      add\n      mload\n        /* \"CrowdFund/CrowdFund.sol\":2647:2683  block.timestamp < campagin.s_startAt */\n      0xffffffff\n      and\n        /* \"CrowdFund/CrowdFund.sol\":2647:2662  block.timestamp */\n      timestamp\n        /* \"CrowdFund/CrowdFund.sol\":2647:2683  block.timestamp < campagin.s_startAt */\n      lt\n        /* \"CrowdFund/CrowdFund.sol\":2639:2712  require(block.timestamp < campagin.s_startAt, \"Campaign not yet started\") */\n      tag_102\n      jumpi\n      mload(0x40)\n      0x08c379a000000000000000000000000000000000000000000000000000000000\n      dup2\n      mstore\n      0x04\n      add\n      tag_103\n      swap1\n      tag_104\n      jump\t// in\n    tag_103:\n      mload(0x40)\n      dup1\n      swap2\n      sub\n      swap1\n      revert\n    tag_102:\n        /* \"CrowdFund/CrowdFund.sol\":2727:2738  Cancel(_id) */\n      0x8bf30e7ff26833413be5f69e1d373744864d600b664204b4a2f9844a8eedb9ed\n        /* \"CrowdFund/CrowdFund.sol\":2734:2737  _id */\n      dup3\n        /* \"CrowdFund/CrowdFund.sol\":2727:2738  Cancel(_id) */\n      mload(0x40)\n      tag_105\n      swap2\n      swap1\n      tag_19\n      jump\t// in\n    tag_105:\n      mload(0x40)\n      dup1\n      swap2\n      sub\n      swap1\n      log1\n        /* \"CrowdFund/CrowdFund.sol\":2481:2747  {... */\n      pop\n        /* \"CrowdFund/CrowdFund.sol\":2446:2747  function cancel(uint _id) external {... */\n      pop\n      jump\t// out\n        /* \"CrowdFund/CrowdFund.sol\":1507:1526  uint public s_count */\n    tag_35:\n      sload(0x01)\n      dup2\n      jump\t// out\n        /* \"CrowdFund/CrowdFund.sol\":1318:1349  IERC20 public immutable s_token */\n    tag_38:\n      immutable(\"0x26a975632f70533c9512e57b565b8ce8e2befee6b08dfbc27c4a897a20e2c1d6\")\n      dup2\n      jump\t// out\n        /* \"CrowdFund/CrowdFund.sol\":3625:3949  function unpledge(uint _id, uint _amount) external{... */\n    tag_44:\n        /* \"CrowdFund/CrowdFund.sol\":3685:3710  Campaign storage campaign */\n      0x00\n        /* \"CrowdFund/CrowdFund.sol\":3713:3724  s_campaigns */\n      dup1\n        /* \"CrowdFund/CrowdFund.sol\":3713:3729  s_campaigns[_id] */\n      0x00\n        /* \"CrowdFund/CrowdFund.sol\":3725:3728  _id */\n      dup5\n        /* \"CrowdFund/CrowdFund.sol\":3713:3729  s_campaigns[_id] */\n      dup2\n      mstore\n      0x20\n      add\n      swap1\n      dup2\n      mstore\n      0x20\n      add\n      0x00\n      keccak256\n        /* \"CrowdFund/CrowdFund.sol\":3685:3729  Campaign storage campaign = s_campaigns[_id] */\n      swap1\n      pop\n        /* \"CrowdFund/CrowdFund.sol\":3766:3774  campaign */\n      dup1\n        /* \"CrowdFund/CrowdFund.sol\":3766:3782  campaign.s_endAt */\n      0x03\n      add\n      0x04\n      swap1\n      sload\n      swap1\n      0x0100\n      exp\n      swap1\n      div\n      0xffffffff\n      and\n        /* \"CrowdFund/CrowdFund.sol\":3747:3782  block.timestamp <= campaign.s_endAt */\n      0xffffffff\n      and\n        /* \"CrowdFund/CrowdFund.sol\":3747:3762  block.timestamp */\n      timestamp\n        /* \"CrowdFund/CrowdFund.sol\":3747:3782  block.timestamp <= campaign.s_endAt */\n      gt\n      iszero\n        /* \"CrowdFund/CrowdFund.sol\":3739:3805  require(block.timestamp <= campaign.s_endAt, \"Campaign has Ended\") */\n      tag_107\n      jumpi\n      mload(0x40)\n      0x08c379a000000000000000000000000000000000000000000000000000000000\n      dup2\n      mstore\n      0x04\n      add\n      tag_108\n      swap1\n      tag_109\n      jump\t// in\n    tag_108:\n      mload(0x40)\n      dup1\n      swap2\n      sub\n      swap1\n      revert\n    tag_107:\n        /* \"CrowdFund/CrowdFund.sol\":3838:3845  _amount */\n      dup2\n        /* \"CrowdFund/CrowdFund.sol\":3816:3824  campaign */\n      dup2\n        /* \"CrowdFund/CrowdFund.sol\":3816:3834  campaign.s_pledged */\n      0x02\n      add\n      0x00\n        /* \"CrowdFund/CrowdFund.sol\":3816:3845  campaign.s_pledged -= _amount */\n      dup3\n      dup3\n      sload\n      tag_110\n      swap2\n      swap1\n      tag_111\n      jump\t// in\n    tag_110:\n      swap3\n      pop\n      pop\n      dup2\n      swap1\n      sstore\n      pop\n        /* \"CrowdFund/CrowdFund.sol\":3855:3862  s_token */\n      immutable(\"0x26a975632f70533c9512e57b565b8ce8e2befee6b08dfbc27c4a897a20e2c1d6\")\n        /* \"CrowdFund/CrowdFund.sol\":3855:3871  s_token.transfer */\n      0xffffffffffffffffffffffffffffffffffffffff\n      and\n      0xa9059cbb\n        /* \"CrowdFund/CrowdFund.sol\":3872:3882  msg.sender */\n      caller\n        /* \"CrowdFund/CrowdFund.sol\":3884:3891  _amount */\n      dup5\n        /* \"CrowdFund/CrowdFund.sol\":3855:3892  s_token.transfer(msg.sender, _amount) */\n      mload(0x40)\n      dup4\n      0xffffffff\n      and\n      0xe0\n      shl\n      dup2\n      mstore\n      0x04\n      add\n      tag_112\n      swap3\n      swap2\n      swap1\n      tag_61\n      jump\t// in\n    tag_112:\n      0x20\n      mload(0x40)\n      dup1\n      dup4\n      sub\n      dup2\n      0x00\n      dup8\n      gas\n      call\n      iszero\n      dup1\n      iszero\n      tag_114\n      jumpi\n      returndatasize\n      0x00\n      dup1\n      returndatacopy\n      revert(0x00, returndatasize)\n    tag_114:\n      pop\n      pop\n      pop\n      pop\n      mload(0x40)\n      returndatasize\n      not(0x1f)\n      0x1f\n      dup3\n      add\n      and\n      dup3\n      add\n      dup1\n      0x40\n      mstore\n      pop\n      dup2\n      add\n      swap1\n      tag_115\n      swap2\n      swap1\n      tag_65\n      jump\t// in\n    tag_115:\n      pop\n        /* \"CrowdFund/CrowdFund.sol\":3921:3931  msg.sender */\n      caller\n        /* \"CrowdFund/CrowdFund.sol\":3907:3941  Unpledge(_id, msg.sender, _amount) */\n      0xffffffffffffffffffffffffffffffffffffffff\n      and\n        /* \"CrowdFund/CrowdFund.sol\":3916:3919  _id */\n      dup4\n        /* \"CrowdFund/CrowdFund.sol\":3907:3941  Unpledge(_id, msg.sender, _amount) */\n      0x2eeeab891b26a214d1b25749f88a406bdea852bd8c9bfda977e0ef8114c180ba\n        /* \"CrowdFund/CrowdFund.sol\":3933:3940  _amount */\n      dup5\n        /* \"CrowdFund/CrowdFund.sol\":3907:3941  Unpledge(_id, msg.sender, _amount) */\n      mload(0x40)\n      tag_116\n      swap2\n      swap1\n      tag_19\n      jump\t// in\n    tag_116:\n      mload(0x40)\n      dup1\n      swap2\n      sub\n      swap1\n      log3\n        /* \"CrowdFund/CrowdFund.sol\":3675:3949  {... */\n      pop\n        /* \"CrowdFund/CrowdFund.sol\":3625:3949  function unpledge(uint _id, uint _amount) external{... */\n      pop\n      pop\n      jump\t// out\n        /* \"CrowdFund/CrowdFund.sol\":1416:1460  mapping(uint => Campaign) public s_campaigns */\n    tag_47:\n      mstore(0x20, 0x00)\n      dup1\n      0x00\n      mstore\n      keccak256(0x00, 0x40)\n      0x00\n      swap2\n      pop\n      swap1\n      pop\n      dup1\n      0x00\n      add\n      0x00\n      swap1\n      sload\n      swap1\n      0x0100\n      exp\n      swap1\n      div\n      0xffffffffffffffffffffffffffffffffffffffff\n      and\n      swap1\n      dup1\n      0x01\n      add\n      sload\n      swap1\n      dup1\n      0x02\n      add\n      sload\n      swap1\n      dup1\n      0x03\n      add\n      0x00\n      swap1\n      sload\n      swap1\n      0x0100\n      exp\n      swap1\n      div\n      0xffffffff\n      and\n      swap1\n      dup1\n      0x03\n      add\n      0x04\n      swap1\n      sload\n      swap1\n      0x0100\n      exp\n      swap1\n      div\n      0xffffffff\n      and\n      swap1\n      dup1\n      0x03\n      add\n      0x08\n      swap1\n      sload\n      swap1\n      0x0100\n      exp\n      swap1\n      div\n      0xff\n      and\n      swap1\n      pop\n      dup7\n      jump\t// out\n        /* \"CrowdFund/CrowdFund.sol\":2825:3554  function pledge(uint _id, uint _amount) external {... */\n    tag_52:\n        /* \"CrowdFund/CrowdFund.sol\":2967:2992  Campaign storage campaign */\n      0x00\n        /* \"CrowdFund/CrowdFund.sol\":2995:3006  s_campaigns */\n      dup1\n        /* \"CrowdFund/CrowdFund.sol\":2995:3011  s_campaigns[_id] */\n      0x00\n        /* \"CrowdFund/CrowdFund.sol\":3007:3010  _id */\n      dup5\n        /* \"CrowdFund/CrowdFund.sol\":2995:3011  s_campaigns[_id] */\n      dup2\n      mstore\n      0x20\n      add\n      swap1\n      dup2\n      mstore\n      0x20\n      add\n      0x00\n      keccak256\n        /* \"CrowdFund/CrowdFund.sol\":2967:3011  Campaign storage campaign = s_campaigns[_id] */\n      swap1\n      pop\n        /* \"CrowdFund/CrowdFund.sol\":3048:3056  campaign */\n      dup1\n        /* \"CrowdFund/CrowdFund.sol\":3048:3066  campaign.s_startAt */\n      0x03\n      add\n      0x00\n      swap1\n      sload\n      swap1\n      0x0100\n      exp\n      swap1\n      div\n      0xffffffff\n      and\n        /* \"CrowdFund/CrowdFund.sol\":3029:3066  block.timestamp >= campaign.s_startAt */\n      0xffffffff\n      and\n        /* \"CrowdFund/CrowdFund.sol\":3029:3044  block.timestamp */\n      timestamp\n        /* \"CrowdFund/CrowdFund.sol\":3029:3066  block.timestamp >= campaign.s_startAt */\n      lt\n      iszero\n        /* \"CrowdFund/CrowdFund.sol\":3021:3082  require(block.timestamp >= campaign.s_startAt, \"Not Started\") */\n      tag_118\n      jumpi\n      mload(0x40)\n      0x08c379a000000000000000000000000000000000000000000000000000000000\n      dup2\n      mstore\n      0x04\n      add\n      tag_119\n      swap1\n      tag_120\n      jump\t// in\n    tag_119:\n      mload(0x40)\n      dup1\n      swap2\n      sub\n      swap1\n      revert\n    tag_118:\n        /* \"CrowdFund/CrowdFund.sol\":3267:3275  campaign */\n      dup1\n        /* \"CrowdFund/CrowdFund.sol\":3267:3283  campaign.s_endAt */\n      0x03\n      add\n      0x04\n      swap1\n      sload\n      swap1\n      0x0100\n      exp\n      swap1\n      div\n      0xffffffff\n      and\n        /* \"CrowdFund/CrowdFund.sol\":3248:3283  block.timestamp <= campaign.s_endAt */\n      0xffffffff\n      and\n        /* \"CrowdFund/CrowdFund.sol\":3248:3263  block.timestamp */\n      timestamp\n        /* \"CrowdFund/CrowdFund.sol\":3248:3283  block.timestamp <= campaign.s_endAt */\n      gt\n      iszero\n        /* \"CrowdFund/CrowdFund.sol\":3240:3302  require(block.timestamp <= campaign.s_endAt, \"Campagin Ended\") */\n      tag_121\n      jumpi\n      mload(0x40)\n      0x08c379a000000000000000000000000000000000000000000000000000000000\n      dup2\n      mstore\n      0x04\n      add\n      tag_122\n      swap1\n      tag_123\n      jump\t// in\n    tag_122:\n      mload(0x40)\n      dup1\n      swap2\n      sub\n      swap1\n      revert\n    tag_121:\n        /* \"CrowdFund/CrowdFund.sol\":3351:3358  s_token */\n      immutable(\"0x26a975632f70533c9512e57b565b8ce8e2befee6b08dfbc27c4a897a20e2c1d6\")\n        /* \"CrowdFund/CrowdFund.sol\":3351:3371  s_token.transferFrom */\n      0xffffffffffffffffffffffffffffffffffffffff\n      and\n      0x23b872dd\n        /* \"CrowdFund/CrowdFund.sol\":3372:3382  msg.sender */\n      caller\n        /* \"CrowdFund/CrowdFund.sol\":3392:3396  this */\n      address\n        /* \"CrowdFund/CrowdFund.sol\":3399:3406  _amount */\n      dup6\n        /* \"CrowdFund/CrowdFund.sol\":3351:3407  s_token.transferFrom(msg.sender, address(this), _amount) */\n      mload(0x40)\n      dup5\n      0xffffffff\n      and\n      0xe0\n      shl\n      dup2\n      mstore\n      0x04\n      add\n      tag_124\n      swap4\n      swap3\n      swap2\n      swap1\n      tag_125\n      jump\t// in\n    tag_124:\n      0x20\n      mload(0x40)\n      dup1\n      dup4\n      sub\n      dup2\n      0x00\n      dup8\n      gas\n      call\n      iszero\n      dup1\n      iszero\n      tag_127\n      jumpi\n      returndatasize\n      0x00\n      dup1\n      returndatacopy\n      revert(0x00, returndatasize)\n    tag_127:\n      pop\n      pop\n      pop\n      pop\n      mload(0x40)\n      returndatasize\n      not(0x1f)\n      0x1f\n      dup3\n      add\n      and\n      dup3\n      add\n      dup1\n      0x40\n      mstore\n      pop\n      dup2\n      add\n      swap1\n      tag_128\n      swap2\n      swap1\n      tag_65\n      jump\t// in\n    tag_128:\n      pop\n        /* \"CrowdFund/CrowdFund.sol\":3439:3446  _amount */\n      dup2\n        /* \"CrowdFund/CrowdFund.sol\":3417:3425  campaign */\n      dup2\n        /* \"CrowdFund/CrowdFund.sol\":3417:3435  campaign.s_pledged */\n      0x02\n      add\n      0x00\n        /* \"CrowdFund/CrowdFund.sol\":3417:3446  campaign.s_pledged += _amount */\n      dup3\n      dup3\n      sload\n      tag_129\n      swap2\n      swap1\n      tag_75\n      jump\t// in\n    tag_129:\n      swap3\n      pop\n      pop\n      dup2\n      swap1\n      sstore\n      pop\n        /* \"CrowdFund/CrowdFund.sol\":3491:3498  _amount */\n      dup2\n        /* \"CrowdFund/CrowdFund.sol\":3456:3470  s_pledgeAmount */\n      0x02\n        /* \"CrowdFund/CrowdFund.sol\":3456:3475  s_pledgeAmount[_id] */\n      0x00\n        /* \"CrowdFund/CrowdFund.sol\":3471:3474  _id */\n      dup6\n        /* \"CrowdFund/CrowdFund.sol\":3456:3475  s_pledgeAmount[_id] */\n      dup2\n      mstore\n      0x20\n      add\n      swap1\n      dup2\n      mstore\n      0x20\n      add\n      0x00\n      keccak256\n        /* \"CrowdFund/CrowdFund.sol\":3456:3487  s_pledgeAmount[_id][msg.sender] */\n      0x00\n        /* \"CrowdFund/CrowdFund.sol\":3476:3486  msg.sender */\n      caller\n        /* \"CrowdFund/CrowdFund.sol\":3456:3487  s_pledgeAmount[_id][msg.sender] */\n      0xffffffffffffffffffffffffffffffffffffffff\n      and\n      0xffffffffffffffffffffffffffffffffffffffff\n      and\n      dup2\n      mstore\n      0x20\n      add\n      swap1\n      dup2\n      mstore\n      0x20\n      add\n      0x00\n      keccak256\n      0x00\n        /* \"CrowdFund/CrowdFund.sol\":3456:3498  s_pledgeAmount[_id][msg.sender] += _amount */\n      dup3\n      dup3\n      sload\n      tag_130\n      swap2\n      swap1\n      tag_75\n      jump\t// in\n    tag_130:\n      swap3\n      pop\n      pop\n      dup2\n      swap1\n      sstore\n      pop\n        /* \"CrowdFund/CrowdFund.sol\":3526:3536  msg.sender */\n      caller\n        /* \"CrowdFund/CrowdFund.sol\":3514:3546  Pledge(_id, msg.sender, _amount) */\n      0xffffffffffffffffffffffffffffffffffffffff\n      and\n        /* \"CrowdFund/CrowdFund.sol\":3521:3524  _id */\n      dup4\n        /* \"CrowdFund/CrowdFund.sol\":3514:3546  Pledge(_id, msg.sender, _amount) */\n      0x06bdb975df800a73232998e71ed585d536222f1dfeaa622d7f62a23ada686c82\n        /* \"CrowdFund/CrowdFund.sol\":3538:3545  _amount */\n      dup5\n        /* \"CrowdFund/CrowdFund.sol\":3514:3546  Pledge(_id, msg.sender, _amount) */\n      mload(0x40)\n      tag_131\n      swap2\n      swap1\n      tag_19\n      jump\t// in\n    tag_131:\n      mload(0x40)\n      dup1\n      swap2\n      sub\n      swap1\n      log3\n        /* \"CrowdFund/CrowdFund.sol\":2874:3554  {... */\n      pop\n        /* \"CrowdFund/CrowdFund.sol\":2825:3554  function pledge(uint _id, uint _amount) external {... */\n      pop\n      pop\n      jump\t// out\n        /* \"#utility.yul\":88:205   */\n    tag_133:\n        /* \"#utility.yul\":197:198   */\n      0x00\n        /* \"#utility.yul\":194:195   */\n      dup1\n        /* \"#utility.yul\":187:199   */\n      revert\n        /* \"#utility.yul\":334:411   */\n    tag_135:\n        /* \"#utility.yul\":371:378   */\n      0x00\n        /* \"#utility.yul\":400:405   */\n      dup2\n        /* \"#utility.yul\":389:405   */\n      swap1\n      pop\n        /* \"#utility.yul\":334:411   */\n      swap2\n      swap1\n      pop\n      jump\t// out\n        /* \"#utility.yul\":417:539   */\n    tag_136:\n        /* \"#utility.yul\":490:514   */\n      tag_189\n        /* \"#utility.yul\":508:513   */\n      dup2\n        /* \"#utility.yul\":490:514   */\n      tag_135\n      jump\t// in\n    tag_189:\n        /* \"#utility.yul\":483:488   */\n      dup2\n        /* \"#utility.yul\":480:515   */\n      eq\n        /* \"#utility.yul\":470:533   */\n      tag_190\n      jumpi\n        /* \"#utility.yul\":529:530   */\n      0x00\n        /* \"#utility.yul\":526:527   */\n      dup1\n        /* \"#utility.yul\":519:531   */\n      revert\n        /* \"#utility.yul\":470:533   */\n    tag_190:\n        /* \"#utility.yul\":417:539   */\n      pop\n      jump\t// out\n        /* \"#utility.yul\":545:684   */\n    tag_137:\n        /* \"#utility.yul\":591:596   */\n      0x00\n        /* \"#utility.yul\":629:635   */\n      dup2\n        /* \"#utility.yul\":616:636   */\n      calldataload\n        /* \"#utility.yul\":607:636   */\n      swap1\n      pop\n        /* \"#utility.yul\":645:678   */\n      tag_192\n        /* \"#utility.yul\":672:677   */\n      dup2\n        /* \"#utility.yul\":645:678   */\n      tag_136\n      jump\t// in\n    tag_192:\n        /* \"#utility.yul\":545:684   */\n      swap3\n      swap2\n      pop\n      pop\n      jump\t// out\n        /* \"#utility.yul\":690:816   */\n    tag_138:\n        /* \"#utility.yul\":727:734   */\n      0x00\n        /* \"#utility.yul\":767:809   */\n      0xffffffffffffffffffffffffffffffffffffffff\n        /* \"#utility.yul\":760:765   */\n      dup3\n        /* \"#utility.yul\":756:810   */\n      and\n        /* \"#utility.yul\":745:810   */\n      swap1\n      pop\n        /* \"#utility.yul\":690:816   */\n      swap2\n      swap1\n      pop\n      jump\t// out\n        /* \"#utility.yul\":822:918   */\n    tag_139:\n        /* \"#utility.yul\":859:866   */\n      0x00\n        /* \"#utility.yul\":888:912   */\n      tag_195\n        /* \"#utility.yul\":906:911   */\n      dup3\n        /* \"#utility.yul\":888:912   */\n      tag_138\n      jump\t// in\n    tag_195:\n        /* \"#utility.yul\":877:912   */\n      swap1\n      pop\n        /* \"#utility.yul\":822:918   */\n      swap2\n      swap1\n      pop\n      jump\t// out\n        /* \"#utility.yul\":924:1046   */\n    tag_140:\n        /* \"#utility.yul\":997:1021   */\n      tag_197\n        /* \"#utility.yul\":1015:1020   */\n      dup2\n        /* \"#utility.yul\":997:1021   */\n      tag_139\n      jump\t// in\n    tag_197:\n        /* \"#utility.yul\":990:995   */\n      dup2\n        /* \"#utility.yul\":987:1022   */\n      eq\n        /* \"#utility.yul\":977:1040   */\n      tag_198\n      jumpi\n        /* \"#utility.yul\":1036:1037   */\n      0x00\n        /* \"#utility.yul\":1033:1034   */\n      dup1\n        /* \"#utility.yul\":1026:1038   */\n      revert\n        /* \"#utility.yul\":977:1040   */\n    tag_198:\n        /* \"#utility.yul\":924:1046   */\n      pop\n      jump\t// out\n        /* \"#utility.yul\":1052:1191   */\n    tag_141:\n        /* \"#utility.yul\":1098:1103   */\n      0x00\n        /* \"#utility.yul\":1136:1142   */\n      dup2\n        /* \"#utility.yul\":1123:1143   */\n      calldataload\n        /* \"#utility.yul\":1114:1143   */\n      swap1\n      pop\n        /* \"#utility.yul\":1152:1185   */\n      tag_200\n        /* \"#utility.yul\":1179:1184   */\n      dup2\n        /* \"#utility.yul\":1152:1185   */\n      tag_140\n      jump\t// in\n    tag_200:\n        /* \"#utility.yul\":1052:1191   */\n      swap3\n      swap2\n      pop\n      pop\n      jump\t// out\n        /* \"#utility.yul\":1197:1671   */\n    tag_16:\n        /* \"#utility.yul\":1265:1271   */\n      0x00\n        /* \"#utility.yul\":1273:1279   */\n      dup1\n        /* \"#utility.yul\":1322:1324   */\n      0x40\n        /* \"#utility.yul\":1310:1319   */\n      dup4\n        /* \"#utility.yul\":1301:1308   */\n      dup6\n        /* \"#utility.yul\":1297:1320   */\n      sub\n        /* \"#utility.yul\":1293:1325   */\n      slt\n        /* \"#utility.yul\":1290:1409   */\n      iszero\n      tag_202\n      jumpi\n        /* \"#utility.yul\":1328:1407   */\n      tag_203\n      tag_133\n      jump\t// in\n    tag_203:\n        /* \"#utility.yul\":1290:1409   */\n    tag_202:\n        /* \"#utility.yul\":1448:1449   */\n      0x00\n        /* \"#utility.yul\":1473:1526   */\n      tag_204\n        /* \"#utility.yul\":1518:1525   */\n      dup6\n        /* \"#utility.yul\":1509:1515   */\n      dup3\n        /* \"#utility.yul\":1498:1507   */\n      dup7\n        /* \"#utility.yul\":1494:1516   */\n      add\n        /* \"#utility.yul\":1473:1526   */\n      tag_137\n      jump\t// in\n    tag_204:\n        /* \"#utility.yul\":1463:1526   */\n      swap3\n      pop\n        /* \"#utility.yul\":1419:1536   */\n      pop\n        /* \"#utility.yul\":1575:1577   */\n      0x20\n        /* \"#utility.yul\":1601:1654   */\n      tag_205\n        /* \"#utility.yul\":1646:1653   */\n      dup6\n        /* \"#utility.yul\":1637:1643   */\n      dup3\n        /* \"#utility.yul\":1626:1635   */\n      dup7\n        /* \"#utility.yul\":1622:1644   */\n      add\n        /* \"#utility.yul\":1601:1654   */\n      tag_141\n      jump\t// in\n    tag_205:\n        /* \"#utility.yul\":1591:1654   */\n      swap2\n      pop\n        /* \"#utility.yul\":1546:1664   */\n      pop\n        /* \"#utility.yul\":1197:1671   */\n      swap3\n      pop\n      swap3\n      swap1\n      pop\n      jump\t// out\n        /* \"#utility.yul\":1677:1795   */\n    tag_142:\n        /* \"#utility.yul\":1764:1788   */\n      tag_207\n        /* \"#utility.yul\":1782:1787   */\n      dup2\n        /* \"#utility.yul\":1764:1788   */\n      tag_135\n      jump\t// in\n    tag_207:\n        /* \"#utility.yul\":1759:1762   */\n      dup3\n        /* \"#utility.yul\":1752:1789   */\n      mstore\n        /* \"#utility.yul\":1677:1795   */\n      pop\n      pop\n      jump\t// out\n        /* \"#utility.yul\":1801:2023   */\n    tag_19:\n        /* \"#utility.yul\":1894:1898   */\n      0x00\n        /* \"#utility.yul\":1932:1934   */\n      0x20\n        /* \"#utility.yul\":1921:1930   */\n      dup3\n        /* \"#utility.yul\":1917:1935   */\n      add\n        /* \"#utility.yul\":1909:1935   */\n      swap1\n      pop\n        /* \"#utility.yul\":1945:2016   */\n      tag_209\n        /* \"#utility.yul\":2013:2014   */\n      0x00\n        /* \"#utility.yul\":2002:2011   */\n      dup4\n        /* \"#utility.yul\":1998:2015   */\n      add\n        /* \"#utility.yul\":1989:1995   */\n      dup5\n        /* \"#utility.yul\":1945:2016   */\n      tag_142\n      jump\t// in\n    tag_209:\n        /* \"#utility.yul\":1801:2023   */\n      swap3\n      swap2\n      pop\n      pop\n      jump\t// out\n        /* \"#utility.yul\":2029:2358   */\n    tag_22:\n        /* \"#utility.yul\":2088:2094   */\n      0x00\n        /* \"#utility.yul\":2137:2139   */\n      0x20\n        /* \"#utility.yul\":2125:2134   */\n      dup3\n        /* \"#utility.yul\":2116:2123   */\n      dup5\n        /* \"#utility.yul\":2112:2135   */\n      sub\n        /* \"#utility.yul\":2108:2140   */\n      slt\n        /* \"#utility.yul\":2105:2224   */\n      iszero\n      tag_211\n      jumpi\n        /* \"#utility.yul\":2143:2222   */\n      tag_212\n      tag_133\n      jump\t// in\n    tag_212:\n        /* \"#utility.yul\":2105:2224   */\n    tag_211:\n        /* \"#utility.yul\":2263:2264   */\n      0x00\n        /* \"#utility.yul\":2288:2341   */\n      tag_213\n        /* \"#utility.yul\":2333:2340   */\n      dup5\n        /* \"#utility.yul\":2324:2330   */\n      dup3\n        /* \"#utility.yul\":2313:2322   */\n      dup6\n        /* \"#utility.yul\":2309:2331   */\n      add\n        /* \"#utility.yul\":2288:2341   */\n      tag_137\n      jump\t// in\n    tag_213:\n        /* \"#utility.yul\":2278:2341   */\n      swap2\n      pop\n        /* \"#utility.yul\":2234:2351   */\n      pop\n        /* \"#utility.yul\":2029:2358   */\n      swap3\n      swap2\n      pop\n      pop\n      jump\t// out\n        /* \"#utility.yul\":2364:2457   */\n    tag_143:\n        /* \"#utility.yul\":2400:2407   */\n      0x00\n        /* \"#utility.yul\":2440:2450   */\n      0xffffffff\n        /* \"#utility.yul\":2433:2438   */\n      dup3\n        /* \"#utility.yul\":2429:2451   */\n      and\n        /* \"#utility.yul\":2418:2451   */\n      swap1\n      pop\n        /* \"#utility.yul\":2364:2457   */\n      swap2\n      swap1\n      pop\n      jump\t// out\n        /* \"#utility.yul\":2463:2583   */\n    tag_144:\n        /* \"#utility.yul\":2535:2558   */\n      tag_216\n        /* \"#utility.yul\":2552:2557   */\n      dup2\n        /* \"#utility.yul\":2535:2558   */\n      tag_143\n      jump\t// in\n    tag_216:\n        /* \"#utility.yul\":2528:2533   */\n      dup2\n        /* \"#utility.yul\":2525:2559   */\n      eq\n        /* \"#utility.yul\":2515:2577   */\n      tag_217\n      jumpi\n        /* \"#utility.yul\":2573:2574   */\n      0x00\n        /* \"#utility.yul\":2570:2571   */\n      dup1\n        /* \"#utility.yul\":2563:2575   */\n      revert\n        /* \"#utility.yul\":2515:2577   */\n    tag_217:\n        /* \"#utility.yul\":2463:2583   */\n      pop\n      jump\t// out\n        /* \"#utility.yul\":2589:2726   */\n    tag_145:\n        /* \"#utility.yul\":2634:2639   */\n      0x00\n        /* \"#utility.yul\":2672:2678   */\n      dup2\n        /* \"#utility.yul\":2659:2679   */\n      calldataload\n        /* \"#utility.yul\":2650:2679   */\n      swap1\n      pop\n        /* \"#utility.yul\":2688:2720   */\n      tag_219\n        /* \"#utility.yul\":2714:2719   */\n      dup2\n        /* \"#utility.yul\":2688:2720   */\n      tag_144\n      jump\t// in\n    tag_219:\n        /* \"#utility.yul\":2589:2726   */\n      swap3\n      swap2\n      pop\n      pop\n      jump\t// out\n        /* \"#utility.yul\":2732:3347   */\n    tag_26:\n        /* \"#utility.yul\":2807:2813   */\n      0x00\n        /* \"#utility.yul\":2815:2821   */\n      dup1\n        /* \"#utility.yul\":2823:2829   */\n      0x00\n        /* \"#utility.yul\":2872:2874   */\n      0x60\n        /* \"#utility.yul\":2860:2869   */\n      dup5\n        /* \"#utility.yul\":2851:2858   */\n      dup7\n        /* \"#utility.yul\":2847:2870   */\n      sub\n        /* \"#utility.yul\":2843:2875   */\n      slt\n        /* \"#utility.yul\":2840:2959   */\n      iszero\n      tag_221\n      jumpi\n        /* \"#utility.yul\":2878:2957   */\n      tag_222\n      tag_133\n      jump\t// in\n    tag_222:\n        /* \"#utility.yul\":2840:2959   */\n    tag_221:\n        /* \"#utility.yul\":2998:2999   */\n      0x00\n        /* \"#utility.yul\":3023:3076   */\n      tag_223\n        /* \"#utility.yul\":3068:3075   */\n      dup7\n        /* \"#utility.yul\":3059:3065   */\n      dup3\n        /* \"#utility.yul\":3048:3057   */\n      dup8\n        /* \"#utility.yul\":3044:3066   */\n      add\n        /* \"#utility.yul\":3023:3076   */\n      tag_137\n      jump\t// in\n    tag_223:\n        /* \"#utility.yul\":3013:3076   */\n      swap4\n      pop\n        /* \"#utility.yul\":2969:3086   */\n      pop\n        /* \"#utility.yul\":3125:3127   */\n      0x20\n        /* \"#utility.yul\":3151:3203   */\n      tag_224\n        /* \"#utility.yul\":3195:3202   */\n      dup7\n        /* \"#utility.yul\":3186:3192   */\n      dup3\n        /* \"#utility.yul\":3175:3184   */\n      dup8\n        /* \"#utility.yul\":3171:3193   */\n      add\n        /* \"#utility.yul\":3151:3203   */\n      tag_145\n      jump\t// in\n    tag_224:\n        /* \"#utility.yul\":3141:3203   */\n      swap3\n      pop\n        /* \"#utility.yul\":3096:3213   */\n      pop\n        /* \"#utility.yul\":3252:3254   */\n      0x40\n        /* \"#utility.yul\":3278:3330   */\n      tag_225\n        /* \"#utility.yul\":3322:3329   */\n      dup7\n        /* \"#utility.yul\":3313:3319   */\n      dup3\n        /* \"#utility.yul\":3302:3311   */\n      dup8\n        /* \"#utility.yul\":3298:3320   */\n      add\n        /* \"#utility.yul\":3278:3330   */\n      tag_145\n      jump\t// in\n    tag_225:\n        /* \"#utility.yul\":3268:3330   */\n      swap2\n      pop\n        /* \"#utility.yul\":3223:3340   */\n      pop\n        /* \"#utility.yul\":2732:3347   */\n      swap3\n      pop\n      swap3\n      pop\n      swap3\n      jump\t// out\n        /* \"#utility.yul\":3353:3413   */\n    tag_146:\n        /* \"#utility.yul\":3381:3384   */\n      0x00\n        /* \"#utility.yul\":3402:3407   */\n      dup2\n        /* \"#utility.yul\":3395:3407   */\n      swap1\n      pop\n        /* \"#utility.yul\":3353:3413   */\n      swap2\n      swap1\n      pop\n      jump\t// out\n        /* \"#utility.yul\":3419:3561   */\n    tag_147:\n        /* \"#utility.yul\":3469:3478   */\n      0x00\n        /* \"#utility.yul\":3502:3555   */\n      tag_228\n        /* \"#utility.yul\":3520:3554   */\n      tag_229\n        /* \"#utility.yul\":3529:3553   */\n      tag_230\n        /* \"#utility.yul\":3547:3552   */\n      dup5\n        /* \"#utility.yul\":3529:3553   */\n      tag_138\n      jump\t// in\n    tag_230:\n        /* \"#utility.yul\":3520:3554   */\n      tag_146\n      jump\t// in\n    tag_229:\n        /* \"#utility.yul\":3502:3555   */\n      tag_138\n      jump\t// in\n    tag_228:\n        /* \"#utility.yul\":3489:3555   */\n      swap1\n      pop\n        /* \"#utility.yul\":3419:3561   */\n      swap2\n      swap1\n      pop\n      jump\t// out\n        /* \"#utility.yul\":3567:3693   */\n    tag_148:\n        /* \"#utility.yul\":3617:3626   */\n      0x00\n        /* \"#utility.yul\":3650:3687   */\n      tag_232\n        /* \"#utility.yul\":3681:3686   */\n      dup3\n        /* \"#utility.yul\":3650:3687   */\n      tag_147\n      jump\t// in\n    tag_232:\n        /* \"#utility.yul\":3637:3687   */\n      swap1\n      pop\n        /* \"#utility.yul\":3567:3693   */\n      swap2\n      swap1\n      pop\n      jump\t// out\n        /* \"#utility.yul\":3699:3838   */\n    tag_149:\n        /* \"#utility.yul\":3762:3771   */\n      0x00\n        /* \"#utility.yul\":3795:3832   */\n      tag_234\n        /* \"#utility.yul\":3826:3831   */\n      dup3\n        /* \"#utility.yul\":3795:3832   */\n      tag_148\n      jump\t// in\n    tag_234:\n        /* \"#utility.yul\":3782:3832   */\n      swap1\n      pop\n        /* \"#utility.yul\":3699:3838   */\n      swap2\n      swap1\n      pop\n      jump\t// out\n        /* \"#utility.yul\":3844:4001   */\n    tag_150:\n        /* \"#utility.yul\":3944:3994   */\n      tag_236\n        /* \"#utility.yul\":3988:3993   */\n      dup2\n        /* \"#utility.yul\":3944:3994   */\n      tag_149\n      jump\t// in\n    tag_236:\n        /* \"#utility.yul\":3939:3942   */\n      dup3\n        /* \"#utility.yul\":3932:3995   */\n      mstore\n        /* \"#utility.yul\":3844:4001   */\n      pop\n      pop\n      jump\t// out\n        /* \"#utility.yul\":4007:4255   */\n    tag_40:\n        /* \"#utility.yul\":4113:4117   */\n      0x00\n        /* \"#utility.yul\":4151:4153   */\n      0x20\n        /* \"#utility.yul\":4140:4149   */\n      dup3\n        /* \"#utility.yul\":4136:4154   */\n      add\n        /* \"#utility.yul\":4128:4154   */\n      swap1\n      pop\n        /* \"#utility.yul\":4164:4248   */\n      tag_238\n        /* \"#utility.yul\":4245:4246   */\n      0x00\n        /* \"#utility.yul\":4234:4243   */\n      dup4\n        /* \"#utility.yul\":4230:4247   */\n      add\n        /* \"#utility.yul\":4221:4227   */\n      dup5\n        /* \"#utility.yul\":4164:4248   */\n      tag_150\n      jump\t// in\n    tag_238:\n        /* \"#utility.yul\":4007:4255   */\n      swap3\n      swap2\n      pop\n      pop\n      jump\t// out\n        /* \"#utility.yul\":4261:4735   */\n    tag_43:\n        /* \"#utility.yul\":4329:4335   */\n      0x00\n        /* \"#utility.yul\":4337:4343   */\n      dup1\n        /* \"#utility.yul\":4386:4388   */\n      0x40\n        /* \"#utility.yul\":4374:4383   */\n      dup4\n        /* \"#utility.yul\":4365:4372   */\n      dup6\n        /* \"#utility.yul\":4361:4384   */\n      sub\n        /* \"#utility.yul\":4357:4389   */\n      slt\n        /* \"#utility.yul\":4354:4473   */\n      iszero\n      tag_240\n      jumpi\n        /* \"#utility.yul\":4392:4471   */\n      tag_241\n      tag_133\n      jump\t// in\n    tag_241:\n        /* \"#utility.yul\":4354:4473   */\n    tag_240:\n        /* \"#utility.yul\":4512:4513   */\n      0x00\n        /* \"#utility.yul\":4537:4590   */\n      tag_242\n        /* \"#utility.yul\":4582:4589   */\n      dup6\n        /* \"#utility.yul\":4573:4579   */\n      dup3\n        /* \"#utility.yul\":4562:4571   */\n      dup7\n        /* \"#utility.yul\":4558:4580   */\n      add\n        /* \"#utility.yul\":4537:4590   */\n      tag_137\n      jump\t// in\n    tag_242:\n        /* \"#utility.yul\":4527:4590   */\n      swap3\n      pop\n        /* \"#utility.yul\":4483:4600   */\n      pop\n        /* \"#utility.yul\":4639:4641   */\n      0x20\n        /* \"#utility.yul\":4665:4718   */\n      tag_243\n        /* \"#utility.yul\":4710:4717   */\n      dup6\n        /* \"#utility.yul\":4701:4707   */\n      dup3\n        /* \"#utility.yul\":4690:4699   */\n      dup7\n        /* \"#utility.yul\":4686:4708   */\n      add\n        /* \"#utility.yul\":4665:4718   */\n      tag_137\n      jump\t// in\n    tag_243:\n        /* \"#utility.yul\":4655:4718   */\n      swap2\n      pop\n        /* \"#utility.yul\":4610:4728   */\n      pop\n        /* \"#utility.yul\":4261:4735   */\n      swap3\n      pop\n      swap3\n      swap1\n      pop\n      jump\t// out\n        /* \"#utility.yul\":4741:4859   */\n    tag_151:\n        /* \"#utility.yul\":4828:4852   */\n      tag_245\n        /* \"#utility.yul\":4846:4851   */\n      dup2\n        /* \"#utility.yul\":4828:4852   */\n      tag_139\n      jump\t// in\n    tag_245:\n        /* \"#utility.yul\":4823:4826   */\n      dup3\n        /* \"#utility.yul\":4816:4853   */\n      mstore\n        /* \"#utility.yul\":4741:4859   */\n      pop\n      pop\n      jump\t// out\n        /* \"#utility.yul\":4865:4980   */\n    tag_152:\n        /* \"#utility.yul\":4950:4973   */\n      tag_247\n        /* \"#utility.yul\":4967:4972   */\n      dup2\n        /* \"#utility.yul\":4950:4973   */\n      tag_143\n      jump\t// in\n    tag_247:\n        /* \"#utility.yul\":4945:4948   */\n      dup3\n        /* \"#utility.yul\":4938:4974   */\n      mstore\n        /* \"#utility.yul\":4865:4980   */\n      pop\n      pop\n      jump\t// out\n        /* \"#utility.yul\":4986:5076   */\n    tag_153:\n        /* \"#utility.yul\":5020:5027   */\n      0x00\n        /* \"#utility.yul\":5063:5068   */\n      dup2\n        /* \"#utility.yul\":5056:5069   */\n      iszero\n        /* \"#utility.yul\":5049:5070   */\n      iszero\n        /* \"#utility.yul\":5038:5070   */\n      swap1\n      pop\n        /* \"#utility.yul\":4986:5076   */\n      swap2\n      swap1\n      pop\n      jump\t// out\n        /* \"#utility.yul\":5082:5191   */\n    tag_154:\n        /* \"#utility.yul\":5163:5184   */\n      tag_250\n        /* \"#utility.yul\":5178:5183   */\n      dup2\n        /* \"#utility.yul\":5163:5184   */\n      tag_153\n      jump\t// in\n    tag_250:\n        /* \"#utility.yul\":5158:5161   */\n      dup3\n        /* \"#utility.yul\":5151:5185   */\n      mstore\n        /* \"#utility.yul\":5082:5191   */\n      pop\n      pop\n      jump\t// out\n        /* \"#utility.yul\":5197:5952   */\n    tag_49:\n        /* \"#utility.yul\":5420:5424   */\n      0x00\n        /* \"#utility.yul\":5458:5461   */\n      0xc0\n        /* \"#utility.yul\":5447:5456   */\n      dup3\n        /* \"#utility.yul\":5443:5462   */\n      add\n        /* \"#utility.yul\":5435:5462   */\n      swap1\n      pop\n        /* \"#utility.yul\":5472:5543   */\n      tag_252\n        /* \"#utility.yul\":5540:5541   */\n      0x00\n        /* \"#utility.yul\":5529:5538   */\n      dup4\n        /* \"#utility.yul\":5525:5542   */\n      add\n        /* \"#utility.yul\":5516:5522   */\n      dup10\n        /* \"#utility.yul\":5472:5543   */\n      tag_151\n      jump\t// in\n    tag_252:\n        /* \"#utility.yul\":5553:5625   */\n      tag_253\n        /* \"#utility.yul\":5621:5623   */\n      0x20\n        /* \"#utility.yul\":5610:5619   */\n      dup4\n        /* \"#utility.yul\":5606:5624   */\n      add\n        /* \"#utility.yul\":5597:5603   */\n      dup9\n        /* \"#utility.yul\":5553:5625   */\n      tag_142\n      jump\t// in\n    tag_253:\n        /* \"#utility.yul\":5635:5707   */\n      tag_254\n        /* \"#utility.yul\":5703:5705   */\n      0x40\n        /* \"#utility.yul\":5692:5701   */\n      dup4\n        /* \"#utility.yul\":5688:5706   */\n      add\n        /* \"#utility.yul\":5679:5685   */\n      dup8\n        /* \"#utility.yul\":5635:5707   */\n      tag_142\n      jump\t// in\n    tag_254:\n        /* \"#utility.yul\":5717:5787   */\n      tag_255\n        /* \"#utility.yul\":5783:5785   */\n      0x60\n        /* \"#utility.yul\":5772:5781   */\n      dup4\n        /* \"#utility.yul\":5768:5786   */\n      add\n        /* \"#utility.yul\":5759:5765   */\n      dup7\n        /* \"#utility.yul\":5717:5787   */\n      tag_152\n      jump\t// in\n    tag_255:\n        /* \"#utility.yul\":5797:5868   */\n      tag_256\n        /* \"#utility.yul\":5863:5866   */\n      0x80\n        /* \"#utility.yul\":5852:5861   */\n      dup4\n        /* \"#utility.yul\":5848:5867   */\n      add\n        /* \"#utility.yul\":5839:5845   */\n      dup6\n        /* \"#utility.yul\":5797:5868   */\n      tag_152\n      jump\t// in\n    tag_256:\n        /* \"#utility.yul\":5878:5945   */\n      tag_257\n        /* \"#utility.yul\":5940:5943   */\n      0xa0\n        /* \"#utility.yul\":5929:5938   */\n      dup4\n        /* \"#utility.yul\":5925:5944   */\n      add\n        /* \"#utility.yul\":5916:5922   */\n      dup5\n        /* \"#utility.yul\":5878:5945   */\n      tag_154\n      jump\t// in\n    tag_257:\n        /* \"#utility.yul\":5197:5952   */\n      swap8\n      swap7\n      pop\n      pop\n      pop\n      pop\n      pop\n      pop\n      pop\n      jump\t// out\n        /* \"#utility.yul\":5958:6127   */\n    tag_155:\n        /* \"#utility.yul\":6042:6053   */\n      0x00\n        /* \"#utility.yul\":6076:6082   */\n      dup3\n        /* \"#utility.yul\":6071:6074   */\n      dup3\n        /* \"#utility.yul\":6064:6083   */\n      mstore\n        /* \"#utility.yul\":6116:6120   */\n      0x20\n        /* \"#utility.yul\":6111:6114   */\n      dup3\n        /* \"#utility.yul\":6107:6121   */\n      add\n        /* \"#utility.yul\":6092:6121   */\n      swap1\n      pop\n        /* \"#utility.yul\":5958:6127   */\n      swap3\n      swap2\n      pop\n      pop\n      jump\t// out\n        /* \"#utility.yul\":6133:6292   */\n    tag_156:\n        /* \"#utility.yul\":6273:6284   */\n      0x4e6f7420456e6465640000000000000000000000000000000000000000000000\n        /* \"#utility.yul\":6269:6270   */\n      0x00\n        /* \"#utility.yul\":6261:6267   */\n      dup3\n        /* \"#utility.yul\":6257:6271   */\n      add\n        /* \"#utility.yul\":6250:6285   */\n      mstore\n        /* \"#utility.yul\":6133:6292   */\n      pop\n      jump\t// out\n        /* \"#utility.yul\":6298:6663   */\n    tag_157:\n        /* \"#utility.yul\":6440:6443   */\n      0x00\n        /* \"#utility.yul\":6461:6527   */\n      tag_261\n        /* \"#utility.yul\":6525:6526   */\n      0x09\n        /* \"#utility.yul\":6520:6523   */\n      dup4\n        /* \"#utility.yul\":6461:6527   */\n      tag_155\n      jump\t// in\n    tag_261:\n        /* \"#utility.yul\":6454:6527   */\n      swap2\n      pop\n        /* \"#utility.yul\":6536:6629   */\n      tag_262\n        /* \"#utility.yul\":6625:6628   */\n      dup3\n        /* \"#utility.yul\":6536:6629   */\n      tag_156\n      jump\t// in\n    tag_262:\n        /* \"#utility.yul\":6654:6656   */\n      0x20\n        /* \"#utility.yul\":6649:6652   */\n      dup3\n        /* \"#utility.yul\":6645:6657   */\n      add\n        /* \"#utility.yul\":6638:6657   */\n      swap1\n      pop\n        /* \"#utility.yul\":6298:6663   */\n      swap2\n      swap1\n      pop\n      jump\t// out\n        /* \"#utility.yul\":6669:7088   */\n    tag_56:\n        /* \"#utility.yul\":6835:6839   */\n      0x00\n        /* \"#utility.yul\":6873:6875   */\n      0x20\n        /* \"#utility.yul\":6862:6871   */\n      dup3\n        /* \"#utility.yul\":6858:6876   */\n      add\n        /* \"#utility.yul\":6850:6876   */\n      swap1\n      pop\n        /* \"#utility.yul\":6922:6931   */\n      dup2\n        /* \"#utility.yul\":6916:6920   */\n      dup2\n        /* \"#utility.yul\":6912:6932   */\n      sub\n        /* \"#utility.yul\":6908:6909   */\n      0x00\n        /* \"#utility.yul\":6897:6906   */\n      dup4\n        /* \"#utility.yul\":6893:6910   */\n      add\n        /* \"#utility.yul\":6886:6933   */\n      mstore\n        /* \"#utility.yul\":6950:7081   */\n      tag_264\n        /* \"#utility.yul\":7076:7080   */\n      dup2\n        /* \"#utility.yul\":6950:7081   */\n      tag_157\n      jump\t// in\n    tag_264:\n        /* \"#utility.yul\":6942:7081   */\n      swap1\n      pop\n        /* \"#utility.yul\":6669:7088   */\n      swap2\n      swap1\n      pop\n      jump\t// out\n        /* \"#utility.yul\":7094:7266   */\n    tag_158:\n        /* \"#utility.yul\":7234:7258   */\n      0x506c6564676564206c657373207468616e20676f616c00000000000000000000\n        /* \"#utility.yul\":7230:7231   */\n      0x00\n        /* \"#utility.yul\":7222:7228   */\n      dup3\n        /* \"#utility.yul\":7218:7232   */\n      add\n        /* \"#utility.yul\":7211:7259   */\n      mstore\n        /* \"#utility.yul\":7094:7266   */\n      pop\n      jump\t// out\n        /* \"#utility.yul\":7272:7638   */\n    tag_159:\n        /* \"#utility.yul\":7414:7417   */\n      0x00\n        /* \"#utility.yul\":7435:7502   */\n      tag_267\n        /* \"#utility.yul\":7499:7501   */\n      0x16\n        /* \"#utility.yul\":7494:7497   */\n      dup4\n        /* \"#utility.yul\":7435:7502   */\n      tag_155\n      jump\t// in\n    tag_267:\n        /* \"#utility.yul\":7428:7502   */\n      swap2\n      pop\n        /* \"#utility.yul\":7511:7604   */\n      tag_268\n        /* \"#utility.yul\":7600:7603   */\n      dup3\n        /* \"#utility.yul\":7511:7604   */\n      tag_158\n      jump\t// in\n    tag_268:\n        /* \"#utility.yul\":7629:7631   */\n      0x20\n        /* \"#utility.yul\":7624:7627   */\n      dup3\n        /* \"#utility.yul\":7620:7632   */\n      add\n        /* \"#utility.yul\":7613:7632   */\n      swap1\n      pop\n        /* \"#utility.yul\":7272:7638   */\n      swap2\n      swap1\n      pop\n      jump\t// out\n        /* \"#utility.yul\":7644:8063   */\n    tag_59:\n        /* \"#utility.yul\":7810:7814   */\n      0x00\n        /* \"#utility.yul\":7848:7850   */\n      0x20\n        /* \"#utility.yul\":7837:7846   */\n      dup3\n        /* \"#utility.yul\":7833:7851   */\n      add\n        /* \"#utility.yul\":7825:7851   */\n      swap1\n      pop\n        /* \"#utility.yul\":7897:7906   */\n      dup2\n        /* \"#utility.yul\":7891:7895   */\n      dup2\n        /* \"#utility.yul\":7887:7907   */\n      sub\n        /* \"#utility.yul\":7883:7884   */\n      0x00\n        /* \"#utility.yul\":7872:7881   */\n      dup4\n        /* \"#utility.yul\":7868:7885   */\n      add\n        /* \"#utility.yul\":7861:7908   */\n      mstore\n        /* \"#utility.yul\":7925:8056   */\n      tag_270\n        /* \"#utility.yul\":8051:8055   */\n      dup2\n        /* \"#utility.yul\":7925:8056   */\n      tag_159\n      jump\t// in\n    tag_270:\n        /* \"#utility.yul\":7917:8056   */\n      swap1\n      pop\n        /* \"#utility.yul\":7644:8063   */\n      swap2\n      swap1\n      pop\n      jump\t// out\n        /* \"#utility.yul\":8069:8401   */\n    tag_61:\n        /* \"#utility.yul\":8190:8194   */\n      0x00\n        /* \"#utility.yul\":8228:8230   */\n      0x40\n        /* \"#utility.yul\":8217:8226   */\n      dup3\n        /* \"#utility.yul\":8213:8231   */\n      add\n        /* \"#utility.yul\":8205:8231   */\n      swap1\n      pop\n        /* \"#utility.yul\":8241:8312   */\n      tag_272\n        /* \"#utility.yul\":8309:8310   */\n      0x00\n        /* \"#utility.yul\":8298:8307   */\n      dup4\n        /* \"#utility.yul\":8294:8311   */\n      add\n        /* \"#utility.yul\":8285:8291   */\n      dup6\n        /* \"#utility.yul\":8241:8312   */\n      tag_151\n      jump\t// in\n    tag_272:\n        /* \"#utility.yul\":8322:8394   */\n      tag_273\n        /* \"#utility.yul\":8390:8392   */\n      0x20\n        /* \"#utility.yul\":8379:8388   */\n      dup4\n        /* \"#utility.yul\":8375:8393   */\n      add\n        /* \"#utility.yul\":8366:8372   */\n      dup5\n        /* \"#utility.yul\":8322:8394   */\n      tag_142\n      jump\t// in\n    tag_273:\n        /* \"#utility.yul\":8069:8401   */\n      swap4\n      swap3\n      pop\n      pop\n      pop\n      jump\t// out\n        /* \"#utility.yul\":8407:8523   */\n    tag_160:\n        /* \"#utility.yul\":8477:8498   */\n      tag_275\n        /* \"#utility.yul\":8492:8497   */\n      dup2\n        /* \"#utility.yul\":8477:8498   */\n      tag_153\n      jump\t// in\n    tag_275:\n        /* \"#utility.yul\":8470:8475   */\n      dup2\n        /* \"#utility.yul\":8467:8499   */\n      eq\n        /* \"#utility.yul\":8457:8517   */\n      tag_276\n      jumpi\n        /* \"#utility.yul\":8513:8514   */\n      0x00\n        /* \"#utility.yul\":8510:8511   */\n      dup1\n        /* \"#utility.yul\":8503:8515   */\n      revert\n        /* \"#utility.yul\":8457:8517   */\n    tag_276:\n        /* \"#utility.yul\":8407:8523   */\n      pop\n      jump\t// out\n        /* \"#utility.yul\":8529:8666   */\n    tag_161:\n        /* \"#utility.yul\":8583:8588   */\n      0x00\n        /* \"#utility.yul\":8614:8620   */\n      dup2\n        /* \"#utility.yul\":8608:8621   */\n      mload\n        /* \"#utility.yul\":8599:8621   */\n      swap1\n      pop\n        /* \"#utility.yul\":8630:8660   */\n      tag_278\n        /* \"#utility.yul\":8654:8659   */\n      dup2\n        /* \"#utility.yul\":8630:8660   */\n      tag_160\n      jump\t// in\n    tag_278:\n        /* \"#utility.yul\":8529:8666   */\n      swap3\n      swap2\n      pop\n      pop\n      jump\t// out\n        /* \"#utility.yul\":8672:9017   */\n    tag_65:\n        /* \"#utility.yul\":8739:8745   */\n      0x00\n        /* \"#utility.yul\":8788:8790   */\n      0x20\n        /* \"#utility.yul\":8776:8785   */\n      dup3\n        /* \"#utility.yul\":8767:8774   */\n      dup5\n        /* \"#utility.yul\":8763:8786   */\n      sub\n        /* \"#utility.yul\":8759:8791   */\n      slt\n        /* \"#utility.yul\":8756:8875   */\n      iszero\n      tag_280\n      jumpi\n        /* \"#utility.yul\":8794:8873   */\n      tag_281\n      tag_133\n      jump\t// in\n    tag_281:\n        /* \"#utility.yul\":8756:8875   */\n    tag_280:\n        /* \"#utility.yul\":8914:8915   */\n      0x00\n        /* \"#utility.yul\":8939:9000   */\n      tag_282\n        /* \"#utility.yul\":8992:8999   */\n      dup5\n        /* \"#utility.yul\":8983:8989   */\n      dup3\n        /* \"#utility.yul\":8972:8981   */\n      dup6\n        /* \"#utility.yul\":8968:8990   */\n      add\n        /* \"#utility.yul\":8939:9000   */\n      tag_161\n      jump\t// in\n    tag_282:\n        /* \"#utility.yul\":8929:9000   */\n      swap2\n      pop\n        /* \"#utility.yul\":8885:9010   */\n      pop\n        /* \"#utility.yul\":8672:9017   */\n      swap3\n      swap2\n      pop\n      pop\n      jump\t// out\n        /* \"#utility.yul\":9023:9187   */\n    tag_162:\n        /* \"#utility.yul\":9163:9179   */\n      0x7374617274206174203c206e6f77000000000000000000000000000000000000\n        /* \"#utility.yul\":9159:9160   */\n      0x00\n        /* \"#utility.yul\":9151:9157   */\n      dup3\n        /* \"#utility.yul\":9147:9161   */\n      add\n        /* \"#utility.yul\":9140:9180   */\n      mstore\n        /* \"#utility.yul\":9023:9187   */\n      pop\n      jump\t// out\n        /* \"#utility.yul\":9193:9559   */\n    tag_163:\n        /* \"#utility.yul\":9335:9338   */\n      0x00\n        /* \"#utility.yul\":9356:9423   */\n      tag_285\n        /* \"#utility.yul\":9420:9422   */\n      0x0e\n        /* \"#utility.yul\":9415:9418   */\n      dup4\n        /* \"#utility.yul\":9356:9423   */\n      tag_155\n      jump\t// in\n    tag_285:\n        /* \"#utility.yul\":9349:9423   */\n      swap2\n      pop\n        /* \"#utility.yul\":9432:9525   */\n      tag_286\n        /* \"#utility.yul\":9521:9524   */\n      dup3\n        /* \"#utility.yul\":9432:9525   */\n      tag_162\n      jump\t// in\n    tag_286:\n        /* \"#utility.yul\":9550:9552   */\n      0x20\n        /* \"#utility.yul\":9545:9548   */\n      dup3\n        /* \"#utility.yul\":9541:9553   */\n      add\n        /* \"#utility.yul\":9534:9553   */\n      swap1\n      pop\n        /* \"#utility.yul\":9193:9559   */\n      swap2\n      swap1\n      pop\n      jump\t// out\n        /* \"#utility.yul\":9565:9984   */\n    tag_70:\n        /* \"#utility.yul\":9731:9735   */\n      0x00\n        /* \"#utility.yul\":9769:9771   */\n      0x20\n        /* \"#utility.yul\":9758:9767   */\n      dup3\n        /* \"#utility.yul\":9754:9772   */\n      add\n        /* \"#utility.yul\":9746:9772   */\n      swap1\n      pop\n        /* \"#utility.yul\":9818:9827   */\n      dup2\n        /* \"#utility.yul\":9812:9816   */\n      dup2\n        /* \"#utility.yul\":9808:9828   */\n      sub\n        /* \"#utility.yul\":9804:9805   */\n      0x00\n        /* \"#utility.yul\":9793:9802   */\n      dup4\n        /* \"#utility.yul\":9789:9806   */\n      add\n        /* \"#utility.yul\":9782:9829   */\n      mstore\n        /* \"#utility.yul\":9846:9977   */\n      tag_288\n        /* \"#utility.yul\":9972:9976   */\n      dup2\n        /* \"#utility.yul\":9846:9977   */\n      tag_163\n      jump\t// in\n    tag_288:\n        /* \"#utility.yul\":9838:9977   */\n      swap1\n      pop\n        /* \"#utility.yul\":9565:9984   */\n      swap2\n      swap1\n      pop\n      jump\t// out\n        /* \"#utility.yul\":9990:10157   */\n    tag_164:\n        /* \"#utility.yul\":10130:10149   */\n      0x456e64206174203c207374617274206174000000000000000000000000000000\n        /* \"#utility.yul\":10126:10127   */\n      0x00\n        /* \"#utility.yul\":10118:10124   */\n      dup3\n        /* \"#utility.yul\":10114:10128   */\n      add\n        /* \"#utility.yul\":10107:10150   */\n      mstore\n        /* \"#utility.yul\":9990:10157   */\n      pop\n      jump\t// out\n        /* \"#utility.yul\":10163:10529   */\n    tag_165:\n        /* \"#utility.yul\":10305:10308   */\n      0x00\n        /* \"#utility.yul\":10326:10393   */\n      tag_291\n        /* \"#utility.yul\":10390:10392   */\n      0x11\n        /* \"#utility.yul\":10385:10388   */\n      dup4\n        /* \"#utility.yul\":10326:10393   */\n      tag_155\n      jump\t// in\n    tag_291:\n        /* \"#utility.yul\":10319:10393   */\n      swap2\n      pop\n        /* \"#utility.yul\":10402:10495   */\n      tag_292\n        /* \"#utility.yul\":10491:10494   */\n      dup3\n        /* \"#utility.yul\":10402:10495   */\n      tag_164\n      jump\t// in\n    tag_292:\n        /* \"#utility.yul\":10520:10522   */\n      0x20\n        /* \"#utility.yul\":10515:10518   */\n      dup3\n        /* \"#utility.yul\":10511:10523   */\n      add\n        /* \"#utility.yul\":10504:10523   */\n      swap1\n      pop\n        /* \"#utility.yul\":10163:10529   */\n      swap2\n      swap1\n      pop\n      jump\t// out\n        /* \"#utility.yul\":10535:10954   */\n    tag_73:\n        /* \"#utility.yul\":10701:10705   */\n      0x00\n        /* \"#utility.yul\":10739:10741   */\n      0x20\n        /* \"#utility.yul\":10728:10737   */\n      dup3\n        /* \"#utility.yul\":10724:10742   */\n      add\n        /* \"#utility.yul\":10716:10742   */\n      swap1\n      pop\n        /* \"#utility.yul\":10788:10797   */\n      dup2\n        /* \"#utility.yul\":10782:10786   */\n      dup2\n        /* \"#utility.yul\":10778:10798   */\n      sub\n        /* \"#utility.yul\":10774:10775   */\n      0x00\n        /* \"#utility.yul\":10763:10772   */\n      dup4\n        /* \"#utility.yul\":10759:10776   */\n      add\n        /* \"#utility.yul\":10752:10799   */\n      mstore\n        /* \"#utility.yul\":10816:10947   */\n      tag_294\n        /* \"#utility.yul\":10942:10946   */\n      dup2\n        /* \"#utility.yul\":10816:10947   */\n      tag_165\n      jump\t// in\n    tag_294:\n        /* \"#utility.yul\":10808:10947   */\n      swap1\n      pop\n        /* \"#utility.yul\":10535:10954   */\n      swap2\n      swap1\n      pop\n      jump\t// out\n        /* \"#utility.yul\":10960:11140   */\n    tag_166:\n        /* \"#utility.yul\":11008:11085   */\n      0x4e487b7100000000000000000000000000000000000000000000000000000000\n        /* \"#utility.yul\":11005:11006   */\n      0x00\n        /* \"#utility.yul\":10998:11086   */\n      mstore\n        /* \"#utility.yul\":11105:11109   */\n      0x11\n        /* \"#utility.yul\":11102:11103   */\n      0x04\n        /* \"#utility.yul\":11095:11110   */\n      mstore\n        /* \"#utility.yul\":11129:11133   */\n      0x24\n        /* \"#utility.yul\":11126:11127   */\n      0x00\n        /* \"#utility.yul\":11119:11134   */\n      revert\n        /* \"#utility.yul\":11146:11337   */\n    tag_75:\n        /* \"#utility.yul\":11186:11189   */\n      0x00\n        /* \"#utility.yul\":11205:11225   */\n      tag_297\n        /* \"#utility.yul\":11223:11224   */\n      dup3\n        /* \"#utility.yul\":11205:11225   */\n      tag_135\n      jump\t// in\n    tag_297:\n        /* \"#utility.yul\":11200:11225   */\n      swap2\n      pop\n        /* \"#utility.yul\":11239:11259   */\n      tag_298\n        /* \"#utility.yul\":11257:11258   */\n      dup4\n        /* \"#utility.yul\":11239:11259   */\n      tag_135\n      jump\t// in\n    tag_298:\n        /* \"#utility.yul\":11234:11259   */\n      swap3\n      pop\n        /* \"#utility.yul\":11282:11283   */\n      dup3\n        /* \"#utility.yul\":11279:11280   */\n      dup3\n        /* \"#utility.yul\":11275:11284   */\n      add\n        /* \"#utility.yul\":11268:11284   */\n      swap1\n      pop\n        /* \"#utility.yul\":11303:11306   */\n      dup1\n        /* \"#utility.yul\":11300:11301   */\n      dup3\n        /* \"#utility.yul\":11297:11307   */\n      gt\n        /* \"#utility.yul\":11294:11330   */\n      iszero\n      tag_299\n      jumpi\n        /* \"#utility.yul\":11310:11328   */\n      tag_300\n      tag_166\n      jump\t// in\n    tag_300:\n        /* \"#utility.yul\":11294:11330   */\n    tag_299:\n        /* \"#utility.yul\":11146:11337   */\n      swap3\n      swap2\n      pop\n      pop\n      jump\t// out\n        /* \"#utility.yul\":11343:11514   */\n    tag_167:\n        /* \"#utility.yul\":11483:11506   */\n      0x656e64206174203e206d6178206475726174696f6e0000000000000000000000\n        /* \"#utility.yul\":11479:11480   */\n      0x00\n        /* \"#utility.yul\":11471:11477   */\n      dup3\n        /* \"#utility.yul\":11467:11481   */\n      add\n        /* \"#utility.yul\":11460:11507   */\n      mstore\n        /* \"#utility.yul\":11343:11514   */\n      pop\n      jump\t// out\n        /* \"#utility.yul\":11520:11886   */\n    tag_168:\n        /* \"#utility.yul\":11662:11665   */\n      0x00\n        /* \"#utility.yul\":11683:11750   */\n      tag_303\n        /* \"#utility.yul\":11747:11749   */\n      0x15\n        /* \"#utility.yul\":11742:11745   */\n      dup4\n        /* \"#utility.yul\":11683:11750   */\n      tag_155\n      jump\t// in\n    tag_303:\n        /* \"#utility.yul\":11676:11750   */\n      swap2\n      pop\n        /* \"#utility.yul\":11759:11852   */\n      tag_304\n        /* \"#utility.yul\":11848:11851   */\n      dup3\n        /* \"#utility.yul\":11759:11852   */\n      tag_167\n      jump\t// in\n    tag_304:\n        /* \"#utility.yul\":11877:11879   */\n      0x20\n        /* \"#utility.yul\":11872:11875   */\n      dup3\n        /* \"#utility.yul\":11868:11880   */\n      add\n        /* \"#utility.yul\":11861:11880   */\n      swap1\n      pop\n        /* \"#utility.yul\":11520:11886   */\n      swap2\n      swap1\n      pop\n      jump\t// out\n        /* \"#utility.yul\":11892:12311   */\n    tag_78:\n        /* \"#utility.yul\":12058:12062   */\n      0x00\n        /* \"#utility.yul\":12096:12098   */\n      0x20\n        /* \"#utility.yul\":12085:12094   */\n      dup3\n        /* \"#utility.yul\":12081:12099   */\n      add\n        /* \"#utility.yul\":12073:12099   */\n      swap1\n      pop\n        /* \"#utility.yul\":12145:12154   */\n      dup2\n        /* \"#utility.yul\":12139:12143   */\n      dup2\n        /* \"#utility.yul\":12135:12155   */\n      sub\n        /* \"#utility.yul\":12131:12132   */\n      0x00\n        /* \"#utility.yul\":12120:12129   */\n      dup4\n        /* \"#utility.yul\":12116:12133   */\n      add\n        /* \"#utility.yul\":12109:12156   */\n      mstore\n        /* \"#utility.yul\":12173:12304   */\n      tag_306\n        /* \"#utility.yul\":12299:12303   */\n      dup2\n        /* \"#utility.yul\":12173:12304   */\n      tag_168\n      jump\t// in\n    tag_306:\n        /* \"#utility.yul\":12165:12304   */\n      swap1\n      pop\n        /* \"#utility.yul\":11892:12311   */\n      swap2\n      swap1\n      pop\n      jump\t// out\n        /* \"#utility.yul\":12317:12862   */\n    tag_81:\n        /* \"#utility.yul\":12490:12494   */\n      0x00\n        /* \"#utility.yul\":12528:12531   */\n      0x80\n        /* \"#utility.yul\":12517:12526   */\n      dup3\n        /* \"#utility.yul\":12513:12532   */\n      add\n        /* \"#utility.yul\":12505:12532   */\n      swap1\n      pop\n        /* \"#utility.yul\":12542:12613   */\n      tag_308\n        /* \"#utility.yul\":12610:12611   */\n      0x00\n        /* \"#utility.yul\":12599:12608   */\n      dup4\n        /* \"#utility.yul\":12595:12612   */\n      add\n        /* \"#utility.yul\":12586:12592   */\n      dup8\n        /* \"#utility.yul\":12542:12613   */\n      tag_142\n      jump\t// in\n    tag_308:\n        /* \"#utility.yul\":12623:12695   */\n      tag_309\n        /* \"#utility.yul\":12691:12693   */\n      0x20\n        /* \"#utility.yul\":12680:12689   */\n      dup4\n        /* \"#utility.yul\":12676:12694   */\n      add\n        /* \"#utility.yul\":12667:12673   */\n      dup7\n        /* \"#utility.yul\":12623:12695   */\n      tag_142\n      jump\t// in\n    tag_309:\n        /* \"#utility.yul\":12705:12775   */\n      tag_310\n        /* \"#utility.yul\":12771:12773   */\n      0x40\n        /* \"#utility.yul\":12760:12769   */\n      dup4\n        /* \"#utility.yul\":12756:12774   */\n      add\n        /* \"#utility.yul\":12747:12753   */\n      dup6\n        /* \"#utility.yul\":12705:12775   */\n      tag_152\n      jump\t// in\n    tag_310:\n        /* \"#utility.yul\":12785:12855   */\n      tag_311\n        /* \"#utility.yul\":12851:12853   */\n      0x60\n        /* \"#utility.yul\":12840:12849   */\n      dup4\n        /* \"#utility.yul\":12836:12854   */\n      add\n        /* \"#utility.yul\":12827:12833   */\n      dup5\n        /* \"#utility.yul\":12785:12855   */\n      tag_152\n      jump\t// in\n    tag_311:\n        /* \"#utility.yul\":12317:12862   */\n      swap6\n      swap5\n      pop\n      pop\n      pop\n      pop\n      pop\n      jump\t// out\n        /* \"#utility.yul\":12868:13097   */\n    tag_169:\n        /* \"#utility.yul\":13008:13042   */\n      0x53656e646572206973206e6f74207468652063726561746f72206f6620746869\n        /* \"#utility.yul\":13004:13005   */\n      0x00\n        /* \"#utility.yul\":12996:13002   */\n      dup3\n        /* \"#utility.yul\":12992:13006   */\n      add\n        /* \"#utility.yul\":12985:13043   */\n      mstore\n        /* \"#utility.yul\":13077:13089   */\n      0x732063616d706169676e00000000000000000000000000000000000000000000\n        /* \"#utility.yul\":13072:13074   */\n      0x20\n        /* \"#utility.yul\":13064:13070   */\n      dup3\n        /* \"#utility.yul\":13060:13075   */\n      add\n        /* \"#utility.yul\":13053:13090   */\n      mstore\n        /* \"#utility.yul\":12868:13097   */\n      pop\n      jump\t// out\n        /* \"#utility.yul\":13103:13469   */\n    tag_170:\n        /* \"#utility.yul\":13245:13248   */\n      0x00\n        /* \"#utility.yul\":13266:13333   */\n      tag_314\n        /* \"#utility.yul\":13330:13332   */\n      0x2a\n        /* \"#utility.yul\":13325:13328   */\n      dup4\n        /* \"#utility.yul\":13266:13333   */\n      tag_155\n      jump\t// in\n    tag_314:\n        /* \"#utility.yul\":13259:13333   */\n      swap2\n      pop\n        /* \"#utility.yul\":13342:13435   */\n      tag_315\n        /* \"#utility.yul\":13431:13434   */\n      dup3\n        /* \"#utility.yul\":13342:13435   */\n      tag_169\n      jump\t// in\n    tag_315:\n        /* \"#utility.yul\":13460:13462   */\n      0x40\n        /* \"#utility.yul\":13455:13458   */\n      dup3\n        /* \"#utility.yul\":13451:13463   */\n      add\n        /* \"#utility.yul\":13444:13463   */\n      swap1\n      pop\n        /* \"#utility.yul\":13103:13469   */\n      swap2\n      swap1\n      pop\n      jump\t// out\n        /* \"#utility.yul\":13475:13894   */\n    tag_85:\n        /* \"#utility.yul\":13641:13645   */\n      0x00\n        /* \"#utility.yul\":13679:13681   */\n      0x20\n        /* \"#utility.yul\":13668:13677   */\n      dup3\n        /* \"#utility.yul\":13664:13682   */\n      add\n        /* \"#utility.yul\":13656:13682   */\n      swap1\n      pop\n        /* \"#utility.yul\":13728:13737   */\n      dup2\n        /* \"#utility.yul\":13722:13726   */\n      dup2\n        /* \"#utility.yul\":13718:13738   */\n      sub\n        /* \"#utility.yul\":13714:13715   */\n      0x00\n        /* \"#utility.yul\":13703:13712   */\n      dup4\n        /* \"#utility.yul\":13699:13716   */\n      add\n        /* \"#utility.yul\":13692:13739   */\n      mstore\n        /* \"#utility.yul\":13756:13887   */\n      tag_317\n        /* \"#utility.yul\":13882:13886   */\n      dup2\n        /* \"#utility.yul\":13756:13887   */\n      tag_170\n      jump\t// in\n    tag_317:\n        /* \"#utility.yul\":13748:13887   */\n      swap1\n      pop\n        /* \"#utility.yul\":13475:13894   */\n      swap2\n      swap1\n      pop\n      jump\t// out\n        /* \"#utility.yul\":13900:14065   */\n    tag_171:\n        /* \"#utility.yul\":14040:14057   */\n      0x416c726561647920636c61696d65640000000000000000000000000000000000\n        /* \"#utility.yul\":14036:14037   */\n      0x00\n        /* \"#utility.yul\":14028:14034   */\n      dup3\n        /* \"#utility.yul\":14024:14038   */\n      add\n        /* \"#utility.yul\":14017:14058   */\n      mstore\n        /* \"#utility.yul\":13900:14065   */\n      pop\n      jump\t// out\n        /* \"#utility.yul\":14071:14437   */\n    tag_172:\n        /* \"#utility.yul\":14213:14216   */\n      0x00\n        /* \"#utility.yul\":14234:14301   */\n      tag_320\n        /* \"#utility.yul\":14298:14300   */\n      0x0f\n        /* \"#utility.yul\":14293:14296   */\n      dup4\n        /* \"#utility.yul\":14234:14301   */\n      tag_155\n      jump\t// in\n    tag_320:\n        /* \"#utility.yul\":14227:14301   */\n      swap2\n      pop\n        /* \"#utility.yul\":14310:14403   */\n      tag_321\n        /* \"#utility.yul\":14399:14402   */\n      dup3\n        /* \"#utility.yul\":14310:14403   */\n      tag_171\n      jump\t// in\n    tag_321:\n        /* \"#utility.yul\":14428:14430   */\n      0x20\n        /* \"#utility.yul\":14423:14426   */\n      dup3\n        /* \"#utility.yul\":14419:14431   */\n      add\n        /* \"#utility.yul\":14412:14431   */\n      swap1\n      pop\n        /* \"#utility.yul\":14071:14437   */\n      swap2\n      swap1\n      pop\n      jump\t// out\n        /* \"#utility.yul\":14443:14862   */\n    tag_92:\n        /* \"#utility.yul\":14609:14613   */\n      0x00\n        /* \"#utility.yul\":14647:14649   */\n      0x20\n        /* \"#utility.yul\":14636:14645   */\n      dup3\n        /* \"#utility.yul\":14632:14650   */\n      add\n        /* \"#utility.yul\":14624:14650   */\n      swap1\n      pop\n        /* \"#utility.yul\":14696:14705   */\n      dup2\n        /* \"#utility.yul\":14690:14694   */\n      dup2\n        /* \"#utility.yul\":14686:14706   */\n      sub\n        /* \"#utility.yul\":14682:14683   */\n      0x00\n        /* \"#utility.yul\":14671:14680   */\n      dup4\n        /* \"#utility.yul\":14667:14684   */\n      add\n        /* \"#utility.yul\":14660:14707   */\n      mstore\n        /* \"#utility.yul\":14724:14855   */\n      tag_323\n        /* \"#utility.yul\":14850:14854   */\n      dup2\n        /* \"#utility.yul\":14724:14855   */\n      tag_172\n      jump\t// in\n    tag_323:\n        /* \"#utility.yul\":14716:14855   */\n      swap1\n      pop\n        /* \"#utility.yul\":14443:14862   */\n      swap2\n      swap1\n      pop\n      jump\t// out\n        /* \"#utility.yul\":14868:15095   */\n    tag_173:\n        /* \"#utility.yul\":15008:15042   */\n      0x4f6e6c79207468652063726561746f72206d61792063616e63656c2074686520\n        /* \"#utility.yul\":15004:15005   */\n      0x00\n        /* \"#utility.yul\":14996:15002   */\n      dup3\n        /* \"#utility.yul\":14992:15006   */\n      add\n        /* \"#utility.yul\":14985:15043   */\n      mstore\n        /* \"#utility.yul\":15077:15087   */\n      0x63616d706169676e000000000000000000000000000000000000000000000000\n        /* \"#utility.yul\":15072:15074   */\n      0x20\n        /* \"#utility.yul\":15064:15070   */\n      dup3\n        /* \"#utility.yul\":15060:15075   */\n      add\n        /* \"#utility.yul\":15053:15088   */\n      mstore\n        /* \"#utility.yul\":14868:15095   */\n      pop\n      jump\t// out\n        /* \"#utility.yul\":15101:15467   */\n    tag_174:\n        /* \"#utility.yul\":15243:15246   */\n      0x00\n        /* \"#utility.yul\":15264:15331   */\n      tag_326\n        /* \"#utility.yul\":15328:15330   */\n      0x28\n        /* \"#utility.yul\":15323:15326   */\n      dup4\n        /* \"#utility.yul\":15264:15331   */\n      tag_155\n      jump\t// in\n    tag_326:\n        /* \"#utility.yul\":15257:15331   */\n      swap2\n      pop\n        /* \"#utility.yul\":15340:15433   */\n      tag_327\n        /* \"#utility.yul\":15429:15432   */\n      dup3\n        /* \"#utility.yul\":15340:15433   */\n      tag_173\n      jump\t// in\n    tag_327:\n        /* \"#utility.yul\":15458:15460   */\n      0x40\n        /* \"#utility.yul\":15453:15456   */\n      dup3\n        /* \"#utility.yul\":15449:15461   */\n      add\n        /* \"#utility.yul\":15442:15461   */\n      swap1\n      pop\n        /* \"#utility.yul\":15101:15467   */\n      swap2\n      swap1\n      pop\n      jump\t// out\n        /* \"#utility.yul\":15473:15892   */\n    tag_101:\n        /* \"#utility.yul\":15639:15643   */\n      0x00\n        /* \"#utility.yul\":15677:15679   */\n      0x20\n        /* \"#utility.yul\":15666:15675   */\n      dup3\n        /* \"#utility.yul\":15662:15680   */\n      add\n        /* \"#utility.yul\":15654:15680   */\n      swap1\n      pop\n        /* \"#utility.yul\":15726:15735   */\n      dup2\n        /* \"#utility.yul\":15720:15724   */\n      dup2\n        /* \"#utility.yul\":15716:15736   */\n      sub\n        /* \"#utility.yul\":15712:15713   */\n      0x00\n        /* \"#utility.yul\":15701:15710   */\n      dup4\n        /* \"#utility.yul\":15697:15714   */\n      add\n        /* \"#utility.yul\":15690:15737   */\n      mstore\n        /* \"#utility.yul\":15754:15885   */\n      tag_329\n        /* \"#utility.yul\":15880:15884   */\n      dup2\n        /* \"#utility.yul\":15754:15885   */\n      tag_174\n      jump\t// in\n    tag_329:\n        /* \"#utility.yul\":15746:15885   */\n      swap1\n      pop\n        /* \"#utility.yul\":15473:15892   */\n      swap2\n      swap1\n      pop\n      jump\t// out\n        /* \"#utility.yul\":15898:16072   */\n    tag_175:\n        /* \"#utility.yul\":16038:16064   */\n      0x43616d706169676e206e6f742079657420737461727465640000000000000000\n        /* \"#utility.yul\":16034:16035   */\n      0x00\n        /* \"#utility.yul\":16026:16032   */\n      dup3\n        /* \"#utility.yul\":16022:16036   */\n      add\n        /* \"#utility.yul\":16015:16065   */\n      mstore\n        /* \"#utility.yul\":15898:16072   */\n      pop\n      jump\t// out\n        /* \"#utility.yul\":16078:16444   */\n    tag_176:\n        /* \"#utility.yul\":16220:16223   */\n      0x00\n        /* \"#utility.yul\":16241:16308   */\n      tag_332\n        /* \"#utility.yul\":16305:16307   */\n      0x18\n        /* \"#utility.yul\":16300:16303   */\n      dup4\n        /* \"#utility.yul\":16241:16308   */\n      tag_155\n      jump\t// in\n    tag_332:\n        /* \"#utility.yul\":16234:16308   */\n      swap2\n      pop\n        /* \"#utility.yul\":16317:16410   */\n      tag_333\n        /* \"#utility.yul\":16406:16409   */\n      dup3\n        /* \"#utility.yul\":16317:16410   */\n      tag_175\n      jump\t// in\n    tag_333:\n        /* \"#utility.yul\":16435:16437   */\n      0x20\n        /* \"#utility.yul\":16430:16433   */\n      dup3\n        /* \"#utility.yul\":16426:16438   */\n      add\n        /* \"#utility.yul\":16419:16438   */\n      swap1\n      pop\n        /* \"#utility.yul\":16078:16444   */\n      swap2\n      swap1\n      pop\n      jump\t// out\n        /* \"#utility.yul\":16450:16869   */\n    tag_104:\n        /* \"#utility.yul\":16616:16620   */\n      0x00\n        /* \"#utility.yul\":16654:16656   */\n      0x20\n        /* \"#utility.yul\":16643:16652   */\n      dup3\n        /* \"#utility.yul\":16639:16657   */\n      add\n        /* \"#utility.yul\":16631:16657   */\n      swap1\n      pop\n        /* \"#utility.yul\":16703:16712   */\n      dup2\n        /* \"#utility.yul\":16697:16701   */\n      dup2\n        /* \"#utility.yul\":16693:16713   */\n      sub\n        /* \"#utility.yul\":16689:16690   */\n      0x00\n        /* \"#utility.yul\":16678:16687   */\n      dup4\n        /* \"#utility.yul\":16674:16691   */\n      add\n        /* \"#utility.yul\":16667:16714   */\n      mstore\n        /* \"#utility.yul\":16731:16862   */\n      tag_335\n        /* \"#utility.yul\":16857:16861   */\n      dup2\n        /* \"#utility.yul\":16731:16862   */\n      tag_176\n      jump\t// in\n    tag_335:\n        /* \"#utility.yul\":16723:16862   */\n      swap1\n      pop\n        /* \"#utility.yul\":16450:16869   */\n      swap2\n      swap1\n      pop\n      jump\t// out\n        /* \"#utility.yul\":16875:17043   */\n    tag_177:\n        /* \"#utility.yul\":17015:17035   */\n      0x43616d706169676e2068617320456e6465640000000000000000000000000000\n        /* \"#utility.yul\":17011:17012   */\n      0x00\n        /* \"#utility.yul\":17003:17009   */\n      dup3\n        /* \"#utility.yul\":16999:17013   */\n      add\n        /* \"#utility.yul\":16992:17036   */\n      mstore\n        /* \"#utility.yul\":16875:17043   */\n      pop\n      jump\t// out\n        /* \"#utility.yul\":17049:17415   */\n    tag_178:\n        /* \"#utility.yul\":17191:17194   */\n      0x00\n        /* \"#utility.yul\":17212:17279   */\n      tag_338\n        /* \"#utility.yul\":17276:17278   */\n      0x12\n        /* \"#utility.yul\":17271:17274   */\n      dup4\n        /* \"#utility.yul\":17212:17279   */\n      tag_155\n      jump\t// in\n    tag_338:\n        /* \"#utility.yul\":17205:17279   */\n      swap2\n      pop\n        /* \"#utility.yul\":17288:17381   */\n      tag_339\n        /* \"#utility.yul\":17377:17380   */\n      dup3\n        /* \"#utility.yul\":17288:17381   */\n      tag_177\n      jump\t// in\n    tag_339:\n        /* \"#utility.yul\":17406:17408   */\n      0x20\n        /* \"#utility.yul\":17401:17404   */\n      dup3\n        /* \"#utility.yul\":17397:17409   */\n      add\n        /* \"#utility.yul\":17390:17409   */\n      swap1\n      pop\n        /* \"#utility.yul\":17049:17415   */\n      swap2\n      swap1\n      pop\n      jump\t// out\n        /* \"#utility.yul\":17421:17840   */\n    tag_109:\n        /* \"#utility.yul\":17587:17591   */\n      0x00\n        /* \"#utility.yul\":17625:17627   */\n      0x20\n        /* \"#utility.yul\":17614:17623   */\n      dup3\n        /* \"#utility.yul\":17610:17628   */\n      add\n        /* \"#utility.yul\":17602:17628   */\n      swap1\n      pop\n        /* \"#utility.yul\":17674:17683   */\n      dup2\n        /* \"#utility.yul\":17668:17672   */\n      dup2\n        /* \"#utility.yul\":17664:17684   */\n      sub\n        /* \"#utility.yul\":17660:17661   */\n      0x00\n        /* \"#utility.yul\":17649:17658   */\n      dup4\n        /* \"#utility.yul\":17645:17662   */\n      add\n        /* \"#utility.yul\":17638:17685   */\n      mstore\n        /* \"#utility.yul\":17702:17833   */\n      tag_341\n        /* \"#utility.yul\":17828:17832   */\n      dup2\n        /* \"#utility.yul\":17702:17833   */\n      tag_178\n      jump\t// in\n    tag_341:\n        /* \"#utility.yul\":17694:17833   */\n      swap1\n      pop\n        /* \"#utility.yul\":17421:17840   */\n      swap2\n      swap1\n      pop\n      jump\t// out\n        /* \"#utility.yul\":17846:18040   */\n    tag_111:\n        /* \"#utility.yul\":17886:17890   */\n      0x00\n        /* \"#utility.yul\":17906:17926   */\n      tag_343\n        /* \"#utility.yul\":17924:17925   */\n      dup3\n        /* \"#utility.yul\":17906:17926   */\n      tag_135\n      jump\t// in\n    tag_343:\n        /* \"#utility.yul\":17901:17926   */\n      swap2\n      pop\n        /* \"#utility.yul\":17940:17960   */\n      tag_344\n        /* \"#utility.yul\":17958:17959   */\n      dup4\n        /* \"#utility.yul\":17940:17960   */\n      tag_135\n      jump\t// in\n    tag_344:\n        /* \"#utility.yul\":17935:17960   */\n      swap3\n      pop\n        /* \"#utility.yul\":17984:17985   */\n      dup3\n        /* \"#utility.yul\":17981:17982   */\n      dup3\n        /* \"#utility.yul\":17977:17986   */\n      sub\n        /* \"#utility.yul\":17969:17986   */\n      swap1\n      pop\n        /* \"#utility.yul\":18008:18009   */\n      dup2\n        /* \"#utility.yul\":18002:18006   */\n      dup2\n        /* \"#utility.yul\":17999:18010   */\n      gt\n        /* \"#utility.yul\":17996:18033   */\n      iszero\n      tag_345\n      jumpi\n        /* \"#utility.yul\":18013:18031   */\n      tag_346\n      tag_166\n      jump\t// in\n    tag_346:\n        /* \"#utility.yul\":17996:18033   */\n    tag_345:\n        /* \"#utility.yul\":17846:18040   */\n      swap3\n      swap2\n      pop\n      pop\n      jump\t// out\n        /* \"#utility.yul\":18046:18207   */\n    tag_179:\n        /* \"#utility.yul\":18186:18199   */\n      0x4e6f742053746172746564000000000000000000000000000000000000000000\n        /* \"#utility.yul\":18182:18183   */\n      0x00\n        /* \"#utility.yul\":18174:18180   */\n      dup3\n        /* \"#utility.yul\":18170:18184   */\n      add\n        /* \"#utility.yul\":18163:18200   */\n      mstore\n        /* \"#utility.yul\":18046:18207   */\n      pop\n      jump\t// out\n        /* \"#utility.yul\":18213:18579   */\n    tag_180:\n        /* \"#utility.yul\":18355:18358   */\n      0x00\n        /* \"#utility.yul\":18376:18443   */\n      tag_349\n        /* \"#utility.yul\":18440:18442   */\n      0x0b\n        /* \"#utility.yul\":18435:18438   */\n      dup4\n        /* \"#utility.yul\":18376:18443   */\n      tag_155\n      jump\t// in\n    tag_349:\n        /* \"#utility.yul\":18369:18443   */\n      swap2\n      pop\n        /* \"#utility.yul\":18452:18545   */\n      tag_350\n        /* \"#utility.yul\":18541:18544   */\n      dup3\n        /* \"#utility.yul\":18452:18545   */\n      tag_179\n      jump\t// in\n    tag_350:\n        /* \"#utility.yul\":18570:18572   */\n      0x20\n        /* \"#utility.yul\":18565:18568   */\n      dup3\n        /* \"#utility.yul\":18561:18573   */\n      add\n        /* \"#utility.yul\":18554:18573   */\n      swap1\n      pop\n        /* \"#utility.yul\":18213:18579   */\n      swap2\n      swap1\n      pop\n      jump\t// out\n        /* \"#utility.yul\":18585:19004   */\n    tag_120:\n        /* \"#utility.yul\":18751:18755   */\n      0x00\n        /* \"#utility.yul\":18789:18791   */\n      0x20\n        /* \"#utility.yul\":18778:18787   */\n      dup3\n        /* \"#utility.yul\":18774:18792   */\n      add\n        /* \"#utility.yul\":18766:18792   */\n      swap1\n      pop\n        /* \"#utility.yul\":18838:18847   */\n      dup2\n        /* \"#utility.yul\":18832:18836   */\n      dup2\n        /* \"#utility.yul\":18828:18848   */\n      sub\n        /* \"#utility.yul\":18824:18825   */\n      0x00\n        /* \"#utility.yul\":18813:18822   */\n      dup4\n        /* \"#utility.yul\":18809:18826   */\n      add\n        /* \"#utility.yul\":18802:18849   */\n      mstore\n        /* \"#utility.yul\":18866:18997   */\n      tag_352\n        /* \"#utility.yul\":18992:18996   */\n      dup2\n        /* \"#utility.yul\":18866:18997   */\n      tag_180\n      jump\t// in\n    tag_352:\n        /* \"#utility.yul\":18858:18997   */\n      swap1\n      pop\n        /* \"#utility.yul\":18585:19004   */\n      swap2\n      swap1\n      pop\n      jump\t// out\n        /* \"#utility.yul\":19010:19174   */\n    tag_181:\n        /* \"#utility.yul\":19150:19166   */\n      0x43616d706167696e20456e646564000000000000000000000000000000000000\n        /* \"#utility.yul\":19146:19147   */\n      0x00\n        /* \"#utility.yul\":19138:19144   */\n      dup3\n        /* \"#utility.yul\":19134:19148   */\n      add\n        /* \"#utility.yul\":19127:19167   */\n      mstore\n        /* \"#utility.yul\":19010:19174   */\n      pop\n      jump\t// out\n        /* \"#utility.yul\":19180:19546   */\n    tag_182:\n        /* \"#utility.yul\":19322:19325   */\n      0x00\n        /* \"#utility.yul\":19343:19410   */\n      tag_355\n        /* \"#utility.yul\":19407:19409   */\n      0x0e\n        /* \"#utility.yul\":19402:19405   */\n      dup4\n        /* \"#utility.yul\":19343:19410   */\n      tag_155\n      jump\t// in\n    tag_355:\n        /* \"#utility.yul\":19336:19410   */\n      swap2\n      pop\n        /* \"#utility.yul\":19419:19512   */\n      tag_356\n        /* \"#utility.yul\":19508:19511   */\n      dup3\n        /* \"#utility.yul\":19419:19512   */\n      tag_181\n      jump\t// in\n    tag_356:\n        /* \"#utility.yul\":19537:19539   */\n      0x20\n        /* \"#utility.yul\":19532:19535   */\n      dup3\n        /* \"#utility.yul\":19528:19540   */\n      add\n        /* \"#utility.yul\":19521:19540   */\n      swap1\n      pop\n        /* \"#utility.yul\":19180:19546   */\n      swap2\n      swap1\n      pop\n      jump\t// out\n        /* \"#utility.yul\":19552:19971   */\n    tag_123:\n        /* \"#utility.yul\":19718:19722   */\n      0x00\n        /* \"#utility.yul\":19756:19758   */\n      0x20\n        /* \"#utility.yul\":19745:19754   */\n      dup3\n        /* \"#utility.yul\":19741:19759   */\n      add\n        /* \"#utility.yul\":19733:19759   */\n      swap1\n      pop\n        /* \"#utility.yul\":19805:19814   */\n      dup2\n        /* \"#utility.yul\":19799:19803   */\n      dup2\n        /* \"#utility.yul\":19795:19815   */\n      sub\n        /* \"#utility.yul\":19791:19792   */\n      0x00\n        /* \"#utility.yul\":19780:19789   */\n      dup4\n        /* \"#utility.yul\":19776:19793   */\n      add\n        /* \"#utility.yul\":19769:19816   */\n      mstore\n        /* \"#utility.yul\":19833:19964   */\n      tag_358\n        /* \"#utility.yul\":19959:19963   */\n      dup2\n        /* \"#utility.yul\":19833:19964   */\n      tag_182\n      jump\t// in\n    tag_358:\n        /* \"#utility.yul\":19825:19964   */\n      swap1\n      pop\n        /* \"#utility.yul\":19552:19971   */\n      swap2\n      swap1\n      pop\n      jump\t// out\n        /* \"#utility.yul\":19977:20419   */\n    tag_125:\n        /* \"#utility.yul\":20126:20130   */\n      0x00\n        /* \"#utility.yul\":20164:20166   */\n      0x60\n        /* \"#utility.yul\":20153:20162   */\n      dup3\n        /* \"#utility.yul\":20149:20167   */\n      add\n        /* \"#utility.yul\":20141:20167   */\n      swap1\n      pop\n        /* \"#utility.yul\":20177:20248   */\n      tag_360\n        /* \"#utility.yul\":20245:20246   */\n      0x00\n        /* \"#utility.yul\":20234:20243   */\n      dup4\n        /* \"#utility.yul\":20230:20247   */\n      add\n        /* \"#utility.yul\":20221:20227   */\n      dup7\n        /* \"#utility.yul\":20177:20248   */\n      tag_151\n      jump\t// in\n    tag_360:\n        /* \"#utility.yul\":20258:20330   */\n      tag_361\n        /* \"#utility.yul\":20326:20328   */\n      0x20\n        /* \"#utility.yul\":20315:20324   */\n      dup4\n        /* \"#utility.yul\":20311:20329   */\n      add\n        /* \"#utility.yul\":20302:20308   */\n      dup6\n        /* \"#utility.yul\":20258:20330   */\n      tag_151\n      jump\t// in\n    tag_361:\n        /* \"#utility.yul\":20340:20412   */\n      tag_362\n        /* \"#utility.yul\":20408:20410   */\n      0x40\n        /* \"#utility.yul\":20397:20406   */\n      dup4\n        /* \"#utility.yul\":20393:20411   */\n      add\n        /* \"#utility.yul\":20384:20390   */\n      dup5\n        /* \"#utility.yul\":20340:20412   */\n      tag_142\n      jump\t// in\n    tag_362:\n        /* \"#utility.yul\":19977:20419   */\n      swap5\n      swap4\n      pop\n      pop\n      pop\n      pop\n      jump\t// out\n\n    auxdata: 0xa26469706673582212201a93e76b4d602259fb099758006bb4717766c8e272d5d23b98ad41f31f032f5364736f6c63430008120033\n}\n",
				"bytecode": {
					"linkReferences": {},
					"object": "60a06040523480156200001157600080fd5b5060405162001b9538038062001b958339818101604052810190620000379190620000dc565b8073ffffffffffffffffffffffffffffffffffffffff1660808173ffffffffffffffffffffffffffffffffffffffff1681525050506200010e565b600080fd5b600073ffffffffffffffffffffffffffffffffffffffff82169050919050565b6000620000a48262000077565b9050919050565b620000b68162000097565b8114620000c257600080fd5b50565b600081519050620000d681620000ab565b92915050565b600060208284031215620000f557620000f462000072565b5b60006200010584828501620000c5565b91505092915050565b608051611a4f620001466000396000818161037b015281816108c201528181610b9101528181610c430152610e8f0152611a4f6000f3fe608060405234801561001057600080fd5b506004361061009e5760003560e01c80635cf06e21116100665780635cf06e211461014357806365156b3114610161578063711853ab1461017f578063bdaa00211461019b578063fde327be146101d05761009e565b806319268721146100a3578063278ecde1146100d35780632c63f146146100ef578063379607f51461010b57806340e58ee514610127575b600080fd5b6100bd60048036038101906100b8919061109d565b6101ec565b6040516100ca91906110ec565b60405180910390f35b6100ed60048036038101906100e89190611107565b610211565b005b61010960048036038101906101049190611170565b61046c565b005b61012560048036038101906101209190611107565b610702565b005b610141600480360381019061013c9190611107565b61099e565b005b61014b610b89565b60405161015891906110ec565b60405180910390f35b610169610b8f565b6040516101769190611222565b60405180910390f35b6101996004803603810190610194919061123d565b610bb3565b005b6101b560048036038101906101b09190611107565b610d34565b6040516101c7969594939291906112b6565b60405180910390f35b6101ea60048036038101906101e5919061123d565b610dbd565b005b6002602052816000526040600020602052806000526040600020600091509150505481565b600080600083815260200190815260200160002090508060030160049054906101000a900463ffffffff1663ffffffff164211610283576040517f08c379a000000000000000000000000000000000000000000000000000000000815260040161027a90611374565b60405180910390fd5b8060010154816002015411156102ce576040517f08c379a00000000000000000000000000000000000000000000000000000000081526004016102c5906113e0565b60405180910390fd5b60006002600084815260200190815260200160002060003373ffffffffffffffffffffffffffffffffffffffff1673ffffffffffffffffffffffffffffffffffffffff16815260200190815260200160002054905060006002600085815260200190815260200160002060003373ffffffffffffffffffffffffffffffffffffffff1673ffffffffffffffffffffffffffffffffffffffff168152602001908152602001600020819055507f000000000000000000000000000000000000000000000000000000000000000073ffffffffffffffffffffffffffffffffffffffff1663a9059cbb33836040518363ffffffff1660e01b81526004016103d4929190611400565b6020604051808303816000875af11580156103f3573d6000803e3d6000fd5b505050506040513d601f19601f820116820180604052508101906104179190611455565b503373ffffffffffffffffffffffffffffffffffffffff16837f21e12a7cad0da5928167e1084ea4d5fdf8d9af66657a2543a9ac76a0ca0814778360405161045f91906110ec565b60405180910390a3505050565b428263ffffffff1610156104b5576040517f08c379a00000000000000000000000000000000000000000000000000000000081526004016104ac906114ce565b60405180910390fd5b8163ffffffff168163ffffffff161015610504576040517f08c379a00000000000000000000000000000000000000000000000000000000081526004016104fb9061153a565b60405180910390fd5b6276a700426105139190611589565b8163ffffffff16111561055b576040517f08c379a000000000000000000000000000000000000000000000000000000000815260040161055290611609565b60405180910390fd5b600180600082825461056d9190611589565b925050819055506040518060c001604052803373ffffffffffffffffffffffffffffffffffffffff168152602001848152602001600081526020018363ffffffff1681526020018263ffffffff16815260200160001515815250600080600154815260200190815260200160002060008201518160000160006101000a81548173ffffffffffffffffffffffffffffffffffffffff021916908373ffffffffffffffffffffffffffffffffffffffff160217905550602082015181600101556040820151816002015560608201518160030160006101000a81548163ffffffff021916908363ffffffff16021790555060808201518160030160046101000a81548163ffffffff021916908363ffffffff16021790555060a08201518160030160086101000a81548160ff0219169083151502179055509050503373ffffffffffffffffffffffffffffffffffffffff167f0601cd0d650b473037e838a2696d41e654433d065b3f56b28d1d3302e44a304f6001548585856040516106f59493929190611629565b60405180910390a2505050565b600080600083815260200190815260200160002090508060000160009054906101000a900473ffffffffffffffffffffffffffffffffffffffff1673ffffffffffffffffffffffffffffffffffffffff163373ffffffffffffffffffffffffffffffffffffffff16146107aa576040517f08c379a00000000000000000000000000000000000000000000000000000000081526004016107a1906116e0565b60405180910390fd5b8060030160049054906101000a900463ffffffff1663ffffffff164211610806576040517f08c379a00000000000000000000000000000000000000000000000000000000081526004016107fd90611374565b60405180910390fd5b806001015481600201541015610851576040517f08c379a0000000000000000000000000000000000000000000000000000000008152600401610848906113e0565b60405180910390fd5b8060030160089054906101000a900460ff16156108a3576040517f08c379a000000000000000000000000000000000000000000000000000000000815260040161089a9061174c565b60405180910390fd5b60018160030160086101000a81548160ff0219169083151502179055507f000000000000000000000000000000000000000000000000000000000000000073ffffffffffffffffffffffffffffffffffffffff1663a9059cbb3383600201546040518363ffffffff1660e01b815260040161091f929190611400565b6020604051808303816000875af115801561093e573d6000803e3d6000fd5b505050506040513d601f19601f820116820180604052508101906109629190611455565b507f7bb2b3c10797baccb6f8c4791f1edd6ca2f0d028ee0eda64b01a9a57e3a653f78260405161099291906110ec565b60405180910390a15050565b60008060008381526020019081526020016000206040518060c00160405290816000820160009054906101000a900473ffffffffffffffffffffffffffffffffffffffff1673ffffffffffffffffffffffffffffffffffffffff1673ffffffffffffffffffffffffffffffffffffffff16815260200160018201548152602001600282015481526020016003820160009054906101000a900463ffffffff1663ffffffff1663ffffffff1681526020016003820160049054906101000a900463ffffffff1663ffffffff1663ffffffff1681526020016003820160089054906101000a900460ff1615151515815250509050806000015173ffffffffffffffffffffffffffffffffffffffff163373ffffffffffffffffffffffffffffffffffffffff1614610b02576040517f08c379a0000000000000000000000000000000000000000000000000000000008152600401610af9906117de565b60405180910390fd5b806060015163ffffffff164210610b4e576040517f08c379a0000000000000000000000000000000000000000000000000000000008152600401610b459061184a565b60405180910390fd5b7f8bf30e7ff26833413be5f69e1d373744864d600b664204b4a2f9844a8eedb9ed82604051610b7d91906110ec565b60405180910390a15050565b60015481565b7f000000000000000000000000000000000000000000000000000000000000000081565b600080600084815260200190815260200160002090508060030160049054906101000a900463ffffffff1663ffffffff16421115610c26576040517f08c379a0000000000000000000000000000000000000000000000000000000008152600401610c1d906118b6565b60405180910390fd5b81816002016000828254610c3a91906118d6565b925050819055507f000000000000000000000000000000000000000000000000000000000000000073ffffffffffffffffffffffffffffffffffffffff1663a9059cbb33846040518363ffffffff1660e01b8152600401610c9c929190611400565b6020604051808303816000875af1158015610cbb573d6000803e3d6000fd5b505050506040513d601f19601f82011682018060405250810190610cdf9190611455565b503373ffffffffffffffffffffffffffffffffffffffff16837f2eeeab891b26a214d1b25749f88a406bdea852bd8c9bfda977e0ef8114c180ba84604051610d2791906110ec565b60405180910390a3505050565b60006020528060005260406000206000915090508060000160009054906101000a900473ffffffffffffffffffffffffffffffffffffffff16908060010154908060020154908060030160009054906101000a900463ffffffff16908060030160049054906101000a900463ffffffff16908060030160089054906101000a900460ff16905086565b600080600084815260200190815260200160002090508060030160009054906101000a900463ffffffff1663ffffffff16421015610e30576040517f08c379a0000000000000000000000000000000000000000000000000000000008152600401610e2790611956565b60405180910390fd5b8060030160049054906101000a900463ffffffff1663ffffffff16421115610e8d576040517f08c379a0000000000000000000000000000000000000000000000000000000008152600401610e84906119c2565b60405180910390fd5b7f000000000000000000000000000000000000000000000000000000000000000073ffffffffffffffffffffffffffffffffffffffff166323b872dd3330856040518463ffffffff1660e01b8152600401610eea939291906119e2565b6020604051808303816000875af1158015610f09573d6000803e3d6000fd5b505050506040513d601f19601f82011682018060405250810190610f2d9190611455565b5081816002016000828254610f429190611589565b92505081905550816002600085815260200190815260200160002060003373ffffffffffffffffffffffffffffffffffffffff1673ffffffffffffffffffffffffffffffffffffffff1681526020019081526020016000206000828254610fa99190611589565b925050819055503373ffffffffffffffffffffffffffffffffffffffff16837f06bdb975df800a73232998e71ed585d536222f1dfeaa622d7f62a23ada686c8284604051610ff791906110ec565b60405180910390a3505050565b600080fd5b6000819050919050565b61101c81611009565b811461102757600080fd5b50565b60008135905061103981611013565b92915050565b600073ffffffffffffffffffffffffffffffffffffffff82169050919050565b600061106a8261103f565b9050919050565b61107a8161105f565b811461108557600080fd5b50565b60008135905061109781611071565b92915050565b600080604083850312156110b4576110b3611004565b5b60006110c28582860161102a565b92505060206110d385828601611088565b9150509250929050565b6110e681611009565b82525050565b600060208201905061110160008301846110dd565b92915050565b60006020828403121561111d5761111c611004565b5b600061112b8482850161102a565b91505092915050565b600063ffffffff82169050919050565b61114d81611134565b811461115857600080fd5b50565b60008135905061116a81611144565b92915050565b60008060006060848603121561118957611188611004565b5b60006111978682870161102a565b93505060206111a88682870161115b565b92505060406111b98682870161115b565b9150509250925092565b6000819050919050565b60006111e86111e36111de8461103f565b6111c3565b61103f565b9050919050565b60006111fa826111cd565b9050919050565b600061120c826111ef565b9050919050565b61121c81611201565b82525050565b60006020820190506112376000830184611213565b92915050565b6000806040838503121561125457611253611004565b5b60006112628582860161102a565b92505060206112738582860161102a565b9150509250929050565b6112868161105f565b82525050565b61129581611134565b82525050565b60008115159050919050565b6112b08161129b565b82525050565b600060c0820190506112cb600083018961127d565b6112d860208301886110dd565b6112e560408301876110dd565b6112f2606083018661128c565b6112ff608083018561128c565b61130c60a08301846112a7565b979650505050505050565b600082825260208201905092915050565b7f4e6f7420456e6465640000000000000000000000000000000000000000000000600082015250565b600061135e600983611317565b915061136982611328565b602082019050919050565b6000602082019050818103600083015261138d81611351565b9050919050565b7f506c6564676564206c657373207468616e20676f616c00000000000000000000600082015250565b60006113ca601683611317565b91506113d582611394565b602082019050919050565b600060208201905081810360008301526113f9816113bd565b9050919050565b6000604082019050611415600083018561127d565b61142260208301846110dd565b9392505050565b6114328161129b565b811461143d57600080fd5b50565b60008151905061144f81611429565b92915050565b60006020828403121561146b5761146a611004565b5b600061147984828501611440565b91505092915050565b7f7374617274206174203c206e6f77000000000000000000000000000000000000600082015250565b60006114b8600e83611317565b91506114c382611482565b602082019050919050565b600060208201905081810360008301526114e7816114ab565b9050919050565b7f456e64206174203c207374617274206174000000000000000000000000000000600082015250565b6000611524601183611317565b915061152f826114ee565b602082019050919050565b6000602082019050818103600083015261155381611517565b9050919050565b7f4e487b7100000000000000000000000000000000000000000000000000000000600052601160045260246000fd5b600061159482611009565b915061159f83611009565b92508282019050808211156115b7576115b661155a565b5b92915050565b7f656e64206174203e206d6178206475726174696f6e0000000000000000000000600082015250565b60006115f3601583611317565b91506115fe826115bd565b602082019050919050565b60006020820190508181036000830152611622816115e6565b9050919050565b600060808201905061163e60008301876110dd565b61164b60208301866110dd565b611658604083018561128c565b611665606083018461128c565b95945050505050565b7f53656e646572206973206e6f74207468652063726561746f72206f662074686960008201527f732063616d706169676e00000000000000000000000000000000000000000000602082015250565b60006116ca602a83611317565b91506116d58261166e565b604082019050919050565b600060208201905081810360008301526116f9816116bd565b9050919050565b7f416c726561647920636c61696d65640000000000000000000000000000000000600082015250565b6000611736600f83611317565b915061174182611700565b602082019050919050565b6000602082019050818103600083015261176581611729565b9050919050565b7f4f6e6c79207468652063726561746f72206d61792063616e63656c207468652060008201527f63616d706169676e000000000000000000000000000000000000000000000000602082015250565b60006117c8602883611317565b91506117d38261176c565b604082019050919050565b600060208201905081810360008301526117f7816117bb565b9050919050565b7f43616d706169676e206e6f742079657420737461727465640000000000000000600082015250565b6000611834601883611317565b915061183f826117fe565b602082019050919050565b6000602082019050818103600083015261186381611827565b9050919050565b7f43616d706169676e2068617320456e6465640000000000000000000000000000600082015250565b60006118a0601283611317565b91506118ab8261186a565b602082019050919050565b600060208201905081810360008301526118cf81611893565b9050919050565b60006118e182611009565b91506118ec83611009565b92508282039050818111156119045761190361155a565b5b92915050565b7f4e6f742053746172746564000000000000000000000000000000000000000000600082015250565b6000611940600b83611317565b915061194b8261190a565b602082019050919050565b6000602082019050818103600083015261196f81611933565b9050919050565b7f43616d706167696e20456e646564000000000000000000000000000000000000600082015250565b60006119ac600e83611317565b91506119b782611976565b602082019050919050565b600060208201905081810360008301526119db8161199f565b9050919050565b60006060820190506119f7600083018661127d565b611a04602083018561127d565b611a1160408301846110dd565b94935050505056fea26469706673582212201a93e76b4d602259fb099758006bb4717766c8e272d5d23b98ad41f31f032f5364736f6c63430008120033",
					"opcodes": "PUSH1 0xA0 PUSH1 0x40 MSTORE CALLVALUE DUP1 ISZERO PUSH3 0x11 JUMPI PUSH1 0x0 DUP1 REVERT JUMPDEST POP PUSH1 0x40 MLOAD PUSH3 0x1B95 CODESIZE SUB DUP1 PUSH3 0x1B95 DUP4 CODECOPY DUP2 DUP2 ADD PUSH1 0x40 MSTORE DUP2 ADD SWAP1 PUSH3 0x37 SWAP2 SWAP1 PUSH3 0xDC JUMP JUMPDEST DUP1 PUSH20 0xFFFFFFFFFFFFFFFFFFFFFFFFFFFFFFFFFFFFFFFF AND PUSH1 0x80 DUP2 PUSH20 0xFFFFFFFFFFFFFFFFFFFFFFFFFFFFFFFFFFFFFFFF AND DUP2 MSTORE POP POP POP PUSH3 0x10E JUMP JUMPDEST PUSH1 0x0 DUP1 REVERT JUMPDEST PUSH1 0x0 PUSH20 0xFFFFFFFFFFFFFFFFFFFFFFFFFFFFFFFFFFFFFFFF DUP3 AND SWAP1 POP SWAP2 SWAP1 POP JUMP JUMPDEST PUSH1 0x0 PUSH3 0xA4 DUP3 PUSH3 0x77 JUMP JUMPDEST SWAP1 POP SWAP2 SWAP1 POP JUMP JUMPDEST PUSH3 0xB6 DUP2 PUSH3 0x97 JUMP JUMPDEST DUP2 EQ PUSH3 0xC2 JUMPI PUSH1 0x0 DUP1 REVERT JUMPDEST POP JUMP JUMPDEST PUSH1 0x0 DUP2 MLOAD SWAP1 POP PUSH3 0xD6 DUP2 PUSH3 0xAB JUMP JUMPDEST SWAP3 SWAP2 POP POP JUMP JUMPDEST PUSH1 0x0 PUSH1 0x20 DUP3 DUP5 SUB SLT ISZERO PUSH3 0xF5 JUMPI PUSH3 0xF4 PUSH3 0x72 JUMP JUMPDEST JUMPDEST PUSH1 0x0 PUSH3 0x105 DUP5 DUP3 DUP6 ADD PUSH3 0xC5 JUMP JUMPDEST SWAP2 POP POP SWAP3 SWAP2 POP POP JUMP JUMPDEST PUSH1 0x80 MLOAD PUSH2 0x1A4F PUSH3 0x146 PUSH1 0x0 CODECOPY PUSH1 0x0 DUP2 DUP2 PUSH2 0x37B ADD MSTORE DUP2 DUP2 PUSH2 0x8C2 ADD MSTORE DUP2 DUP2 PUSH2 0xB91 ADD MSTORE DUP2 DUP2 PUSH2 0xC43 ADD MSTORE PUSH2 0xE8F ADD MSTORE PUSH2 0x1A4F PUSH1 0x0 RETURN INVALID PUSH1 0x80 PUSH1 0x40 MSTORE CALLVALUE DUP1 ISZERO PUSH2 0x10 JUMPI PUSH1 0x0 DUP1 REVERT JUMPDEST POP PUSH1 0x4 CALLDATASIZE LT PUSH2 0x9E JUMPI PUSH1 0x0 CALLDATALOAD PUSH1 0xE0 SHR DUP1 PUSH4 0x5CF06E21 GT PUSH2 0x66 JUMPI DUP1 PUSH4 0x5CF06E21 EQ PUSH2 0x143 JUMPI DUP1 PUSH4 0x65156B31 EQ PUSH2 0x161 JUMPI DUP1 PUSH4 0x711853AB EQ PUSH2 0x17F JUMPI DUP1 PUSH4 0xBDAA0021 EQ PUSH2 0x19B JUMPI DUP1 PUSH4 0xFDE327BE EQ PUSH2 0x1D0 JUMPI PUSH2 0x9E JUMP JUMPDEST DUP1 PUSH4 0x19268721 EQ PUSH2 0xA3 JUMPI DUP1 PUSH4 0x278ECDE1 EQ PUSH2 0xD3 JUMPI DUP1 PUSH4 0x2C63F146 EQ PUSH2 0xEF JUMPI DUP1 PUSH4 0x379607F5 EQ PUSH2 0x10B JUMPI DUP1 PUSH4 0x40E58EE5 EQ PUSH2 0x127 JUMPI JUMPDEST PUSH1 0x0 DUP1 REVERT JUMPDEST PUSH2 0xBD PUSH1 0x4 DUP1 CALLDATASIZE SUB DUP2 ADD SWAP1 PUSH2 0xB8 SWAP2 SWAP1 PUSH2 0x109D JUMP JUMPDEST PUSH2 0x1EC JUMP JUMPDEST PUSH1 0x40 MLOAD PUSH2 0xCA SWAP2 SWAP1 PUSH2 0x10EC JUMP JUMPDEST PUSH1 0x40 MLOAD DUP1 SWAP2 SUB SWAP1 RETURN JUMPDEST PUSH2 0xED PUSH1 0x4 DUP1 CALLDATASIZE SUB DUP2 ADD SWAP1 PUSH2 0xE8 SWAP2 SWAP1 PUSH2 0x1107 JUMP JUMPDEST PUSH2 0x211 JUMP JUMPDEST STOP JUMPDEST PUSH2 0x109 PUSH1 0x4 DUP1 CALLDATASIZE SUB DUP2 ADD SWAP1 PUSH2 0x104 SWAP2 SWAP1 PUSH2 0x1170 JUMP JUMPDEST PUSH2 0x46C JUMP JUMPDEST STOP JUMPDEST PUSH2 0x125 PUSH1 0x4 DUP1 CALLDATASIZE SUB DUP2 ADD SWAP1 PUSH2 0x120 SWAP2 SWAP1 PUSH2 0x1107 JUMP JUMPDEST PUSH2 0x702 JUMP JUMPDEST STOP JUMPDEST PUSH2 0x141 PUSH1 0x4 DUP1 CALLDATASIZE SUB DUP2 ADD SWAP1 PUSH2 0x13C SWAP2 SWAP1 PUSH2 0x1107 JUMP JUMPDEST PUSH2 0x99E JUMP JUMPDEST STOP JUMPDEST PUSH2 0x14B PUSH2 0xB89 JUMP JUMPDEST PUSH1 0x40 MLOAD PUSH2 0x158 SWAP2 SWAP1 PUSH2 0x10EC JUMP JUMPDEST PUSH1 0x40 MLOAD DUP1 SWAP2 SUB SWAP1 RETURN JUMPDEST PUSH2 0x169 PUSH2 0xB8F JUMP JUMPDEST PUSH1 0x40 MLOAD PUSH2 0x176 SWAP2 SWAP1 PUSH2 0x1222 JUMP JUMPDEST PUSH1 0x40 MLOAD DUP1 SWAP2 SUB SWAP1 RETURN JUMPDEST PUSH2 0x199 PUSH1 0x4 DUP1 CALLDATASIZE SUB DUP2 ADD SWAP1 PUSH2 0x194 SWAP2 SWAP1 PUSH2 0x123D JUMP JUMPDEST PUSH2 0xBB3 JUMP JUMPDEST STOP JUMPDEST PUSH2 0x1B5 PUSH1 0x4 DUP1 CALLDATASIZE SUB DUP2 ADD SWAP1 PUSH2 0x1B0 SWAP2 SWAP1 PUSH2 0x1107 JUMP JUMPDEST PUSH2 0xD34 JUMP JUMPDEST PUSH1 0x40 MLOAD PUSH2 0x1C7 SWAP7 SWAP6 SWAP5 SWAP4 SWAP3 SWAP2 SWAP1 PUSH2 0x12B6 JUMP JUMPDEST PUSH1 0x40 MLOAD DUP1 SWAP2 SUB SWAP1 RETURN JUMPDEST PUSH2 0x1EA PUSH1 0x4 DUP1 CALLDATASIZE SUB DUP2 ADD SWAP1 PUSH2 0x1E5 SWAP2 SWAP1 PUSH2 0x123D JUMP JUMPDEST PUSH2 0xDBD JUMP JUMPDEST STOP JUMPDEST PUSH1 0x2 PUSH1 0x20 MSTORE DUP2 PUSH1 0x0 MSTORE PUSH1 0x40 PUSH1 0x0 KECCAK256 PUSH1 0x20 MSTORE DUP1 PUSH1 0x0 MSTORE PUSH1 0x40 PUSH1 0x0 KECCAK256 PUSH1 0x0 SWAP2 POP SWAP2 POP POP SLOAD DUP2 JUMP JUMPDEST PUSH1 0x0 DUP1 PUSH1 0x0 DUP4 DUP2 MSTORE PUSH1 0x20 ADD SWAP1 DUP2 MSTORE PUSH1 0x20 ADD PUSH1 0x0 KECCAK256 SWAP1 POP DUP1 PUSH1 0x3 ADD PUSH1 0x4 SWAP1 SLOAD SWAP1 PUSH2 0x100 EXP SWAP1 DIV PUSH4 0xFFFFFFFF AND PUSH4 0xFFFFFFFF AND TIMESTAMP GT PUSH2 0x283 JUMPI PUSH1 0x40 MLOAD PUSH32 0x8C379A000000000000000000000000000000000000000000000000000000000 DUP2 MSTORE PUSH1 0x4 ADD PUSH2 0x27A SWAP1 PUSH2 0x1374 JUMP JUMPDEST PUSH1 0x40 MLOAD DUP1 SWAP2 SUB SWAP1 REVERT JUMPDEST DUP1 PUSH1 0x1 ADD SLOAD DUP2 PUSH1 0x2 ADD SLOAD GT ISZERO PUSH2 0x2CE JUMPI PUSH1 0x40 MLOAD PUSH32 0x8C379A000000000000000000000000000000000000000000000000000000000 DUP2 MSTORE PUSH1 0x4 ADD PUSH2 0x2C5 SWAP1 PUSH2 0x13E0 JUMP JUMPDEST PUSH1 0x40 MLOAD DUP1 SWAP2 SUB SWAP1 REVERT JUMPDEST PUSH1 0x0 PUSH1 0x2 PUSH1 0x0 DUP5 DUP2 MSTORE PUSH1 0x20 ADD SWAP1 DUP2 MSTORE PUSH1 0x20 ADD PUSH1 0x0 KECCAK256 PUSH1 0x0 CALLER PUSH20 0xFFFFFFFFFFFFFFFFFFFFFFFFFFFFFFFFFFFFFFFF AND PUSH20 0xFFFFFFFFFFFFFFFFFFFFFFFFFFFFFFFFFFFFFFFF AND DUP2 MSTORE PUSH1 0x20 ADD SWAP1 DUP2 MSTORE PUSH1 0x20 ADD PUSH1 0x0 KECCAK256 SLOAD SWAP1 POP PUSH1 0x0 PUSH1 0x2 PUSH1 0x0 DUP6 DUP2 MSTORE PUSH1 0x20 ADD SWAP1 DUP2 MSTORE PUSH1 0x20 ADD PUSH1 0x0 KECCAK256 PUSH1 0x0 CALLER PUSH20 0xFFFFFFFFFFFFFFFFFFFFFFFFFFFFFFFFFFFFFFFF AND PUSH20 0xFFFFFFFFFFFFFFFFFFFFFFFFFFFFFFFFFFFFFFFF AND DUP2 MSTORE PUSH1 0x20 ADD SWAP1 DUP2 MSTORE PUSH1 0x20 ADD PUSH1 0x0 KECCAK256 DUP2 SWAP1 SSTORE POP PUSH32 0x0 PUSH20 0xFFFFFFFFFFFFFFFFFFFFFFFFFFFFFFFFFFFFFFFF AND PUSH4 0xA9059CBB CALLER DUP4 PUSH1 0x40 MLOAD DUP4 PUSH4 0xFFFFFFFF AND PUSH1 0xE0 SHL DUP2 MSTORE PUSH1 0x4 ADD PUSH2 0x3D4 SWAP3 SWAP2 SWAP1 PUSH2 0x1400 JUMP JUMPDEST PUSH1 0x20 PUSH1 0x40 MLOAD DUP1 DUP4 SUB DUP2 PUSH1 0x0 DUP8 GAS CALL ISZERO DUP1 ISZERO PUSH2 0x3F3 JUMPI RETURNDATASIZE PUSH1 0x0 DUP1 RETURNDATACOPY RETURNDATASIZE PUSH1 0x0 REVERT JUMPDEST POP POP POP POP PUSH1 0x40 MLOAD RETURNDATASIZE PUSH1 0x1F NOT PUSH1 0x1F DUP3 ADD AND DUP3 ADD DUP1 PUSH1 0x40 MSTORE POP DUP2 ADD SWAP1 PUSH2 0x417 SWAP2 SWAP1 PUSH2 0x1455 JUMP JUMPDEST POP CALLER PUSH20 0xFFFFFFFFFFFFFFFFFFFFFFFFFFFFFFFFFFFFFFFF AND DUP4 PUSH32 0x21E12A7CAD0DA5928167E1084EA4D5FDF8D9AF66657A2543A9AC76A0CA081477 DUP4 PUSH1 0x40 MLOAD PUSH2 0x45F SWAP2 SWAP1 PUSH2 0x10EC JUMP JUMPDEST PUSH1 0x40 MLOAD DUP1 SWAP2 SUB SWAP1 LOG3 POP POP POP JUMP JUMPDEST TIMESTAMP DUP3 PUSH4 0xFFFFFFFF AND LT ISZERO PUSH2 0x4B5 JUMPI PUSH1 0x40 MLOAD PUSH32 0x8C379A000000000000000000000000000000000000000000000000000000000 DUP2 MSTORE PUSH1 0x4 ADD PUSH2 0x4AC SWAP1 PUSH2 0x14CE JUMP JUMPDEST PUSH1 0x40 MLOAD DUP1 SWAP2 SUB SWAP1 REVERT JUMPDEST DUP2 PUSH4 0xFFFFFFFF AND DUP2 PUSH4 0xFFFFFFFF AND LT ISZERO PUSH2 0x504 JUMPI PUSH1 0x40 MLOAD PUSH32 0x8C379A000000000000000000000000000000000000000000000000000000000 DUP2 MSTORE PUSH1 0x4 ADD PUSH2 0x4FB SWAP1 PUSH2 0x153A JUMP JUMPDEST PUSH1 0x40 MLOAD DUP1 SWAP2 SUB SWAP1 REVERT JUMPDEST PUSH3 0x76A700 TIMESTAMP PUSH2 0x513 SWAP2 SWAP1 PUSH2 0x1589 JUMP JUMPDEST DUP2 PUSH4 0xFFFFFFFF AND GT ISZERO PUSH2 0x55B JUMPI PUSH1 0x40 MLOAD PUSH32 0x8C379A000000000000000000000000000000000000000000000000000000000 DUP2 MSTORE PUSH1 0x4 ADD PUSH2 0x552 SWAP1 PUSH2 0x1609 JUMP JUMPDEST PUSH1 0x40 MLOAD DUP1 SWAP2 SUB SWAP1 REVERT JUMPDEST PUSH1 0x1 DUP1 PUSH1 0x0 DUP3 DUP3 SLOAD PUSH2 0x56D SWAP2 SWAP1 PUSH2 0x1589 JUMP JUMPDEST SWAP3 POP POP DUP2 SWAP1 SSTORE POP PUSH1 0x40 MLOAD DUP1 PUSH1 0xC0 ADD PUSH1 0x40 MSTORE DUP1 CALLER PUSH20 0xFFFFFFFFFFFFFFFFFFFFFFFFFFFFFFFFFFFFFFFF AND DUP2 MSTORE PUSH1 0x20 ADD DUP5 DUP2 MSTORE PUSH1 0x20 ADD PUSH1 0x0 DUP2 MSTORE PUSH1 0x20 ADD DUP4 PUSH4 0xFFFFFFFF AND DUP2 MSTORE PUSH1 0x20 ADD DUP3 PUSH4 0xFFFFFFFF AND DUP2 MSTORE PUSH1 0x20 ADD PUSH1 0x0 ISZERO ISZERO DUP2 MSTORE POP PUSH1 0x0 DUP1 PUSH1 0x1 SLOAD DUP2 MSTORE PUSH1 0x20 ADD SWAP1 DUP2 MSTORE PUSH1 0x20 ADD PUSH1 0x0 KECCAK256 PUSH1 0x0 DUP3 ADD MLOAD DUP2 PUSH1 0x0 ADD PUSH1 0x0 PUSH2 0x100 EXP DUP2 SLOAD DUP2 PUSH20 0xFFFFFFFFFFFFFFFFFFFFFFFFFFFFFFFFFFFFFFFF MUL NOT AND SWAP1 DUP4 PUSH20 0xFFFFFFFFFFFFFFFFFFFFFFFFFFFFFFFFFFFFFFFF AND MUL OR SWAP1 SSTORE POP PUSH1 0x20 DUP3 ADD MLOAD DUP2 PUSH1 0x1 ADD SSTORE PUSH1 0x40 DUP3 ADD MLOAD DUP2 PUSH1 0x2 ADD SSTORE PUSH1 0x60 DUP3 ADD MLOAD DUP2 PUSH1 0x3 ADD PUSH1 0x0 PUSH2 0x100 EXP DUP2 SLOAD DUP2 PUSH4 0xFFFFFFFF MUL NOT AND SWAP1 DUP4 PUSH4 0xFFFFFFFF AND MUL OR SWAP1 SSTORE POP PUSH1 0x80 DUP3 ADD MLOAD DUP2 PUSH1 0x3 ADD PUSH1 0x4 PUSH2 0x100 EXP DUP2 SLOAD DUP2 PUSH4 0xFFFFFFFF MUL NOT AND SWAP1 DUP4 PUSH4 0xFFFFFFFF AND MUL OR SWAP1 SSTORE POP PUSH1 0xA0 DUP3 ADD MLOAD DUP2 PUSH1 0x3 ADD PUSH1 0x8 PUSH2 0x100 EXP DUP2 SLOAD DUP2 PUSH1 0xFF MUL NOT AND SWAP1 DUP4 ISZERO ISZERO MUL OR SWAP1 SSTORE POP SWAP1 POP POP CALLER PUSH20 0xFFFFFFFFFFFFFFFFFFFFFFFFFFFFFFFFFFFFFFFF AND PUSH32 0x601CD0D650B473037E838A2696D41E654433D065B3F56B28D1D3302E44A304F PUSH1 0x1 SLOAD DUP6 DUP6 DUP6 PUSH1 0x40 MLOAD PUSH2 0x6F5 SWAP5 SWAP4 SWAP3 SWAP2 SWAP1 PUSH2 0x1629 JUMP JUMPDEST PUSH1 0x40 MLOAD DUP1 SWAP2 SUB SWAP1 LOG2 POP POP POP JUMP JUMPDEST PUSH1 0x0 DUP1 PUSH1 0x0 DUP4 DUP2 MSTORE PUSH1 0x20 ADD SWAP1 DUP2 MSTORE PUSH1 0x20 ADD PUSH1 0x0 KECCAK256 SWAP1 POP DUP1 PUSH1 0x0 ADD PUSH1 0x0 SWAP1 SLOAD SWAP1 PUSH2 0x100 EXP SWAP1 DIV PUSH20 0xFFFFFFFFFFFFFFFFFFFFFFFFFFFFFFFFFFFFFFFF AND PUSH20 0xFFFFFFFFFFFFFFFFFFFFFFFFFFFFFFFFFFFFFFFF AND CALLER PUSH20 0xFFFFFFFFFFFFFFFFFFFFFFFFFFFFFFFFFFFFFFFF AND EQ PUSH2 0x7AA JUMPI PUSH1 0x40 MLOAD PUSH32 0x8C379A000000000000000000000000000000000000000000000000000000000 DUP2 MSTORE PUSH1 0x4 ADD PUSH2 0x7A1 SWAP1 PUSH2 0x16E0 JUMP JUMPDEST PUSH1 0x40 MLOAD DUP1 SWAP2 SUB SWAP1 REVERT JUMPDEST DUP1 PUSH1 0x3 ADD PUSH1 0x4 SWAP1 SLOAD SWAP1 PUSH2 0x100 EXP SWAP1 DIV PUSH4 0xFFFFFFFF AND PUSH4 0xFFFFFFFF AND TIMESTAMP GT PUSH2 0x806 JUMPI PUSH1 0x40 MLOAD PUSH32 0x8C379A000000000000000000000000000000000000000000000000000000000 DUP2 MSTORE PUSH1 0x4 ADD PUSH2 0x7FD SWAP1 PUSH2 0x1374 JUMP JUMPDEST PUSH1 0x40 MLOAD DUP1 SWAP2 SUB SWAP1 REVERT JUMPDEST DUP1 PUSH1 0x1 ADD SLOAD DUP2 PUSH1 0x2 ADD SLOAD LT ISZERO PUSH2 0x851 JUMPI PUSH1 0x40 MLOAD PUSH32 0x8C379A000000000000000000000000000000000000000000000000000000000 DUP2 MSTORE PUSH1 0x4 ADD PUSH2 0x848 SWAP1 PUSH2 0x13E0 JUMP JUMPDEST PUSH1 0x40 MLOAD DUP1 SWAP2 SUB SWAP1 REVERT JUMPDEST DUP1 PUSH1 0x3 ADD PUSH1 0x8 SWAP1 SLOAD SWAP1 PUSH2 0x100 EXP SWAP1 DIV PUSH1 0xFF AND ISZERO PUSH2 0x8A3 JUMPI PUSH1 0x40 MLOAD PUSH32 0x8C379A000000000000000000000000000000000000000000000000000000000 DUP2 MSTORE PUSH1 0x4 ADD PUSH2 0x89A SWAP1 PUSH2 0x174C JUMP JUMPDEST PUSH1 0x40 MLOAD DUP1 SWAP2 SUB SWAP1 REVERT JUMPDEST PUSH1 0x1 DUP2 PUSH1 0x3 ADD PUSH1 0x8 PUSH2 0x100 EXP DUP2 SLOAD DUP2 PUSH1 0xFF MUL NOT AND SWAP1 DUP4 ISZERO ISZERO MUL OR SWAP1 SSTORE POP PUSH32 0x0 PUSH20 0xFFFFFFFFFFFFFFFFFFFFFFFFFFFFFFFFFFFFFFFF AND PUSH4 0xA9059CBB CALLER DUP4 PUSH1 0x2 ADD SLOAD PUSH1 0x40 MLOAD DUP4 PUSH4 0xFFFFFFFF AND PUSH1 0xE0 SHL DUP2 MSTORE PUSH1 0x4 ADD PUSH2 0x91F SWAP3 SWAP2 SWAP1 PUSH2 0x1400 JUMP JUMPDEST PUSH1 0x20 PUSH1 0x40 MLOAD DUP1 DUP4 SUB DUP2 PUSH1 0x0 DUP8 GAS CALL ISZERO DUP1 ISZERO PUSH2 0x93E JUMPI RETURNDATASIZE PUSH1 0x0 DUP1 RETURNDATACOPY RETURNDATASIZE PUSH1 0x0 REVERT JUMPDEST POP POP POP POP PUSH1 0x40 MLOAD RETURNDATASIZE PUSH1 0x1F NOT PUSH1 0x1F DUP3 ADD AND DUP3 ADD DUP1 PUSH1 0x40 MSTORE POP DUP2 ADD SWAP1 PUSH2 0x962 SWAP2 SWAP1 PUSH2 0x1455 JUMP JUMPDEST POP PUSH32 0x7BB2B3C10797BACCB6F8C4791F1EDD6CA2F0D028EE0EDA64B01A9A57E3A653F7 DUP3 PUSH1 0x40 MLOAD PUSH2 0x992 SWAP2 SWAP1 PUSH2 0x10EC JUMP JUMPDEST PUSH1 0x40 MLOAD DUP1 SWAP2 SUB SWAP1 LOG1 POP POP JUMP JUMPDEST PUSH1 0x0 DUP1 PUSH1 0x0 DUP4 DUP2 MSTORE PUSH1 0x20 ADD SWAP1 DUP2 MSTORE PUSH1 0x20 ADD PUSH1 0x0 KECCAK256 PUSH1 0x40 MLOAD DUP1 PUSH1 0xC0 ADD PUSH1 0x40 MSTORE SWAP1 DUP2 PUSH1 0x0 DUP3 ADD PUSH1 0x0 SWAP1 SLOAD SWAP1 PUSH2 0x100 EXP SWAP1 DIV PUSH20 0xFFFFFFFFFFFFFFFFFFFFFFFFFFFFFFFFFFFFFFFF AND PUSH20 0xFFFFFFFFFFFFFFFFFFFFFFFFFFFFFFFFFFFFFFFF AND PUSH20 0xFFFFFFFFFFFFFFFFFFFFFFFFFFFFFFFFFFFFFFFF AND DUP2 MSTORE PUSH1 0x20 ADD PUSH1 0x1 DUP3 ADD SLOAD DUP2 MSTORE PUSH1 0x20 ADD PUSH1 0x2 DUP3 ADD SLOAD DUP2 MSTORE PUSH1 0x20 ADD PUSH1 0x3 DUP3 ADD PUSH1 0x0 SWAP1 SLOAD SWAP1 PUSH2 0x100 EXP SWAP1 DIV PUSH4 0xFFFFFFFF AND PUSH4 0xFFFFFFFF AND PUSH4 0xFFFFFFFF AND DUP2 MSTORE PUSH1 0x20 ADD PUSH1 0x3 DUP3 ADD PUSH1 0x4 SWAP1 SLOAD SWAP1 PUSH2 0x100 EXP SWAP1 DIV PUSH4 0xFFFFFFFF AND PUSH4 0xFFFFFFFF AND PUSH4 0xFFFFFFFF AND DUP2 MSTORE PUSH1 0x20 ADD PUSH1 0x3 DUP3 ADD PUSH1 0x8 SWAP1 SLOAD SWAP1 PUSH2 0x100 EXP SWAP1 DIV PUSH1 0xFF AND ISZERO ISZERO ISZERO ISZERO DUP2 MSTORE POP POP SWAP1 POP DUP1 PUSH1 0x0 ADD MLOAD PUSH20 0xFFFFFFFFFFFFFFFFFFFFFFFFFFFFFFFFFFFFFFFF AND CALLER PUSH20 0xFFFFFFFFFFFFFFFFFFFFFFFFFFFFFFFFFFFFFFFF AND EQ PUSH2 0xB02 JUMPI PUSH1 0x40 MLOAD PUSH32 0x8C379A000000000000000000000000000000000000000000000000000000000 DUP2 MSTORE PUSH1 0x4 ADD PUSH2 0xAF9 SWAP1 PUSH2 0x17DE JUMP JUMPDEST PUSH1 0x40 MLOAD DUP1 SWAP2 SUB SWAP1 REVERT JUMPDEST DUP1 PUSH1 0x60 ADD MLOAD PUSH4 0xFFFFFFFF AND TIMESTAMP LT PUSH2 0xB4E JUMPI PUSH1 0x40 MLOAD PUSH32 0x8C379A000000000000000000000000000000000000000000000000000000000 DUP2 MSTORE PUSH1 0x4 ADD PUSH2 0xB45 SWAP1 PUSH2 0x184A JUMP JUMPDEST PUSH1 0x40 MLOAD DUP1 SWAP2 SUB SWAP1 REVERT JUMPDEST PUSH32 0x8BF30E7FF26833413BE5F69E1D373744864D600B664204B4A2F9844A8EEDB9ED DUP3 PUSH1 0x40 MLOAD PUSH2 0xB7D SWAP2 SWAP1 PUSH2 0x10EC JUMP JUMPDEST PUSH1 0x40 MLOAD DUP1 SWAP2 SUB SWAP1 LOG1 POP POP JUMP JUMPDEST PUSH1 0x1 SLOAD DUP2 JUMP JUMPDEST PUSH32 0x0 DUP2 JUMP JUMPDEST PUSH1 0x0 DUP1 PUSH1 0x0 DUP5 DUP2 MSTORE PUSH1 0x20 ADD SWAP1 DUP2 MSTORE PUSH1 0x20 ADD PUSH1 0x0 KECCAK256 SWAP1 POP DUP1 PUSH1 0x3 ADD PUSH1 0x4 SWAP1 SLOAD SWAP1 PUSH2 0x100 EXP SWAP1 DIV PUSH4 0xFFFFFFFF AND PUSH4 0xFFFFFFFF AND TIMESTAMP GT ISZERO PUSH2 0xC26 JUMPI PUSH1 0x40 MLOAD PUSH32 0x8C379A000000000000000000000000000000000000000000000000000000000 DUP2 MSTORE PUSH1 0x4 ADD PUSH2 0xC1D SWAP1 PUSH2 0x18B6 JUMP JUMPDEST PUSH1 0x40 MLOAD DUP1 SWAP2 SUB SWAP1 REVERT JUMPDEST DUP2 DUP2 PUSH1 0x2 ADD PUSH1 0x0 DUP3 DUP3 SLOAD PUSH2 0xC3A SWAP2 SWAP1 PUSH2 0x18D6 JUMP JUMPDEST SWAP3 POP POP DUP2 SWAP1 SSTORE POP PUSH32 0x0 PUSH20 0xFFFFFFFFFFFFFFFFFFFFFFFFFFFFFFFFFFFFFFFF AND PUSH4 0xA9059CBB CALLER DUP5 PUSH1 0x40 MLOAD DUP4 PUSH4 0xFFFFFFFF AND PUSH1 0xE0 SHL DUP2 MSTORE PUSH1 0x4 ADD PUSH2 0xC9C SWAP3 SWAP2 SWAP1 PUSH2 0x1400 JUMP JUMPDEST PUSH1 0x20 PUSH1 0x40 MLOAD DUP1 DUP4 SUB DUP2 PUSH1 0x0 DUP8 GAS CALL ISZERO DUP1 ISZERO PUSH2 0xCBB JUMPI RETURNDATASIZE PUSH1 0x0 DUP1 RETURNDATACOPY RETURNDATASIZE PUSH1 0x0 REVERT JUMPDEST POP POP POP POP PUSH1 0x40 MLOAD RETURNDATASIZE PUSH1 0x1F NOT PUSH1 0x1F DUP3 ADD AND DUP3 ADD DUP1 PUSH1 0x40 MSTORE POP DUP2 ADD SWAP1 PUSH2 0xCDF SWAP2 SWAP1 PUSH2 0x1455 JUMP JUMPDEST POP CALLER PUSH20 0xFFFFFFFFFFFFFFFFFFFFFFFFFFFFFFFFFFFFFFFF AND DUP4 PUSH32 0x2EEEAB891B26A214D1B25749F88A406BDEA852BD8C9BFDA977E0EF8114C180BA DUP5 PUSH1 0x40 MLOAD PUSH2 0xD27 SWAP2 SWAP1 PUSH2 0x10EC JUMP JUMPDEST PUSH1 0x40 MLOAD DUP1 SWAP2 SUB SWAP1 LOG3 POP POP POP JUMP JUMPDEST PUSH1 0x0 PUSH1 0x20 MSTORE DUP1 PUSH1 0x0 MSTORE PUSH1 0x40 PUSH1 0x0 KECCAK256 PUSH1 0x0 SWAP2 POP SWAP1 POP DUP1 PUSH1 0x0 ADD PUSH1 0x0 SWAP1 SLOAD SWAP1 PUSH2 0x100 EXP SWAP1 DIV PUSH20 0xFFFFFFFFFFFFFFFFFFFFFFFFFFFFFFFFFFFFFFFF AND SWAP1 DUP1 PUSH1 0x1 ADD SLOAD SWAP1 DUP1 PUSH1 0x2 ADD SLOAD SWAP1 DUP1 PUSH1 0x3 ADD PUSH1 0x0 SWAP1 SLOAD SWAP1 PUSH2 0x100 EXP SWAP1 DIV PUSH4 0xFFFFFFFF AND SWAP1 DUP1 PUSH1 0x3 ADD PUSH1 0x4 SWAP1 SLOAD SWAP1 PUSH2 0x100 EXP SWAP1 DIV PUSH4 0xFFFFFFFF AND SWAP1 DUP1 PUSH1 0x3 ADD PUSH1 0x8 SWAP1 SLOAD SWAP1 PUSH2 0x100 EXP SWAP1 DIV PUSH1 0xFF AND SWAP1 POP DUP7 JUMP JUMPDEST PUSH1 0x0 DUP1 PUSH1 0x0 DUP5 DUP2 MSTORE PUSH1 0x20 ADD SWAP1 DUP2 MSTORE PUSH1 0x20 ADD PUSH1 0x0 KECCAK256 SWAP1 POP DUP1 PUSH1 0x3 ADD PUSH1 0x0 SWAP1 SLOAD SWAP1 PUSH2 0x100 EXP SWAP1 DIV PUSH4 0xFFFFFFFF AND PUSH4 0xFFFFFFFF AND TIMESTAMP LT ISZERO PUSH2 0xE30 JUMPI PUSH1 0x40 MLOAD PUSH32 0x8C379A000000000000000000000000000000000000000000000000000000000 DUP2 MSTORE PUSH1 0x4 ADD PUSH2 0xE27 SWAP1 PUSH2 0x1956 JUMP JUMPDEST PUSH1 0x40 MLOAD DUP1 SWAP2 SUB SWAP1 REVERT JUMPDEST DUP1 PUSH1 0x3 ADD PUSH1 0x4 SWAP1 SLOAD SWAP1 PUSH2 0x100 EXP SWAP1 DIV PUSH4 0xFFFFFFFF AND PUSH4 0xFFFFFFFF AND TIMESTAMP GT ISZERO PUSH2 0xE8D JUMPI PUSH1 0x40 MLOAD PUSH32 0x8C379A000000000000000000000000000000000000000000000000000000000 DUP2 MSTORE PUSH1 0x4 ADD PUSH2 0xE84 SWAP1 PUSH2 0x19C2 JUMP JUMPDEST PUSH1 0x40 MLOAD DUP1 SWAP2 SUB SWAP1 REVERT JUMPDEST PUSH32 0x0 PUSH20 0xFFFFFFFFFFFFFFFFFFFFFFFFFFFFFFFFFFFFFFFF AND PUSH4 0x23B872DD CALLER ADDRESS DUP6 PUSH1 0x40 MLOAD DUP5 PUSH4 0xFFFFFFFF AND PUSH1 0xE0 SHL DUP2 MSTORE PUSH1 0x4 ADD PUSH2 0xEEA SWAP4 SWAP3 SWAP2 SWAP1 PUSH2 0x19E2 JUMP JUMPDEST PUSH1 0x20 PUSH1 0x40 MLOAD DUP1 DUP4 SUB DUP2 PUSH1 0x0 DUP8 GAS CALL ISZERO DUP1 ISZERO PUSH2 0xF09 JUMPI RETURNDATASIZE PUSH1 0x0 DUP1 RETURNDATACOPY RETURNDATASIZE PUSH1 0x0 REVERT JUMPDEST POP POP POP POP PUSH1 0x40 MLOAD RETURNDATASIZE PUSH1 0x1F NOT PUSH1 0x1F DUP3 ADD AND DUP3 ADD DUP1 PUSH1 0x40 MSTORE POP DUP2 ADD SWAP1 PUSH2 0xF2D SWAP2 SWAP1 PUSH2 0x1455 JUMP JUMPDEST POP DUP2 DUP2 PUSH1 0x2 ADD PUSH1 0x0 DUP3 DUP3 SLOAD PUSH2 0xF42 SWAP2 SWAP1 PUSH2 0x1589 JUMP JUMPDEST SWAP3 POP POP DUP2 SWAP1 SSTORE POP DUP2 PUSH1 0x2 PUSH1 0x0 DUP6 DUP2 MSTORE PUSH1 0x20 ADD SWAP1 DUP2 MSTORE PUSH1 0x20 ADD PUSH1 0x0 KECCAK256 PUSH1 0x0 CALLER PUSH20 0xFFFFFFFFFFFFFFFFFFFFFFFFFFFFFFFFFFFFFFFF AND PUSH20 0xFFFFFFFFFFFFFFFFFFFFFFFFFFFFFFFFFFFFFFFF AND DUP2 MSTORE PUSH1 0x20 ADD SWAP1 DUP2 MSTORE PUSH1 0x20 ADD PUSH1 0x0 KECCAK256 PUSH1 0x0 DUP3 DUP3 SLOAD PUSH2 0xFA9 SWAP2 SWAP1 PUSH2 0x1589 JUMP JUMPDEST SWAP3 POP POP DUP2 SWAP1 SSTORE POP CALLER PUSH20 0xFFFFFFFFFFFFFFFFFFFFFFFFFFFFFFFFFFFFFFFF AND DUP4 PUSH32 0x6BDB975DF800A73232998E71ED585D536222F1DFEAA622D7F62A23ADA686C82 DUP5 PUSH1 0x40 MLOAD PUSH2 0xFF7 SWAP2 SWAP1 PUSH2 0x10EC JUMP JUMPDEST PUSH1 0x40 MLOAD DUP1 SWAP2 SUB SWAP1 LOG3 POP POP POP JUMP JUMPDEST PUSH1 0x0 DUP1 REVERT JUMPDEST PUSH1 0x0 DUP2 SWAP1 POP SWAP2 SWAP1 POP JUMP JUMPDEST PUSH2 0x101C DUP2 PUSH2 0x1009 JUMP JUMPDEST DUP2 EQ PUSH2 0x1027 JUMPI PUSH1 0x0 DUP1 REVERT JUMPDEST POP JUMP JUMPDEST PUSH1 0x0 DUP2 CALLDATALOAD SWAP1 POP PUSH2 0x1039 DUP2 PUSH2 0x1013 JUMP JUMPDEST SWAP3 SWAP2 POP POP JUMP JUMPDEST PUSH1 0x0 PUSH20 0xFFFFFFFFFFFFFFFFFFFFFFFFFFFFFFFFFFFFFFFF DUP3 AND SWAP1 POP SWAP2 SWAP1 POP JUMP JUMPDEST PUSH1 0x0 PUSH2 0x106A DUP3 PUSH2 0x103F JUMP JUMPDEST SWAP1 POP SWAP2 SWAP1 POP JUMP JUMPDEST PUSH2 0x107A DUP2 PUSH2 0x105F JUMP JUMPDEST DUP2 EQ PUSH2 0x1085 JUMPI PUSH1 0x0 DUP1 REVERT JUMPDEST POP JUMP JUMPDEST PUSH1 0x0 DUP2 CALLDATALOAD SWAP1 POP PUSH2 0x1097 DUP2 PUSH2 0x1071 JUMP JUMPDEST SWAP3 SWAP2 POP POP JUMP JUMPDEST PUSH1 0x0 DUP1 PUSH1 0x40 DUP4 DUP6 SUB SLT ISZERO PUSH2 0x10B4 JUMPI PUSH2 0x10B3 PUSH2 0x1004 JUMP JUMPDEST JUMPDEST PUSH1 0x0 PUSH2 0x10C2 DUP6 DUP3 DUP7 ADD PUSH2 0x102A JUMP JUMPDEST SWAP3 POP POP PUSH1 0x20 PUSH2 0x10D3 DUP6 DUP3 DUP7 ADD PUSH2 0x1088 JUMP JUMPDEST SWAP2 POP POP SWAP3 POP SWAP3 SWAP1 POP JUMP JUMPDEST PUSH2 0x10E6 DUP2 PUSH2 0x1009 JUMP JUMPDEST DUP3 MSTORE POP POP JUMP JUMPDEST PUSH1 0x0 PUSH1 0x20 DUP3 ADD SWAP1 POP PUSH2 0x1101 PUSH1 0x0 DUP4 ADD DUP5 PUSH2 0x10DD JUMP JUMPDEST SWAP3 SWAP2 POP POP JUMP JUMPDEST PUSH1 0x0 PUSH1 0x20 DUP3 DUP5 SUB SLT ISZERO PUSH2 0x111D JUMPI PUSH2 0x111C PUSH2 0x1004 JUMP JUMPDEST JUMPDEST PUSH1 0x0 PUSH2 0x112B DUP5 DUP3 DUP6 ADD PUSH2 0x102A JUMP JUMPDEST SWAP2 POP POP SWAP3 SWAP2 POP POP JUMP JUMPDEST PUSH1 0x0 PUSH4 0xFFFFFFFF DUP3 AND SWAP1 POP SWAP2 SWAP1 POP JUMP JUMPDEST PUSH2 0x114D DUP2 PUSH2 0x1134 JUMP JUMPDEST DUP2 EQ PUSH2 0x1158 JUMPI PUSH1 0x0 DUP1 REVERT JUMPDEST POP JUMP JUMPDEST PUSH1 0x0 DUP2 CALLDATALOAD SWAP1 POP PUSH2 0x116A DUP2 PUSH2 0x1144 JUMP JUMPDEST SWAP3 SWAP2 POP POP JUMP JUMPDEST PUSH1 0x0 DUP1 PUSH1 0x0 PUSH1 0x60 DUP5 DUP7 SUB SLT ISZERO PUSH2 0x1189 JUMPI PUSH2 0x1188 PUSH2 0x1004 JUMP JUMPDEST JUMPDEST PUSH1 0x0 PUSH2 0x1197 DUP7 DUP3 DUP8 ADD PUSH2 0x102A JUMP JUMPDEST SWAP4 POP POP PUSH1 0x20 PUSH2 0x11A8 DUP7 DUP3 DUP8 ADD PUSH2 0x115B JUMP JUMPDEST SWAP3 POP POP PUSH1 0x40 PUSH2 0x11B9 DUP7 DUP3 DUP8 ADD PUSH2 0x115B JUMP JUMPDEST SWAP2 POP POP SWAP3 POP SWAP3 POP SWAP3 JUMP JUMPDEST PUSH1 0x0 DUP2 SWAP1 POP SWAP2 SWAP1 POP JUMP JUMPDEST PUSH1 0x0 PUSH2 0x11E8 PUSH2 0x11E3 PUSH2 0x11DE DUP5 PUSH2 0x103F JUMP JUMPDEST PUSH2 0x11C3 JUMP JUMPDEST PUSH2 0x103F JUMP JUMPDEST SWAP1 POP SWAP2 SWAP1 POP JUMP JUMPDEST PUSH1 0x0 PUSH2 0x11FA DUP3 PUSH2 0x11CD JUMP JUMPDEST SWAP1 POP SWAP2 SWAP1 POP JUMP JUMPDEST PUSH1 0x0 PUSH2 0x120C DUP3 PUSH2 0x11EF JUMP JUMPDEST SWAP1 POP SWAP2 SWAP1 POP JUMP JUMPDEST PUSH2 0x121C DUP2 PUSH2 0x1201 JUMP JUMPDEST DUP3 MSTORE POP POP JUMP JUMPDEST PUSH1 0x0 PUSH1 0x20 DUP3 ADD SWAP1 POP PUSH2 0x1237 PUSH1 0x0 DUP4 ADD DUP5 PUSH2 0x1213 JUMP JUMPDEST SWAP3 SWAP2 POP POP JUMP JUMPDEST PUSH1 0x0 DUP1 PUSH1 0x40 DUP4 DUP6 SUB SLT ISZERO PUSH2 0x1254 JUMPI PUSH2 0x1253 PUSH2 0x1004 JUMP JUMPDEST JUMPDEST PUSH1 0x0 PUSH2 0x1262 DUP6 DUP3 DUP7 ADD PUSH2 0x102A JUMP JUMPDEST SWAP3 POP POP PUSH1 0x20 PUSH2 0x1273 DUP6 DUP3 DUP7 ADD PUSH2 0x102A JUMP JUMPDEST SWAP2 POP POP SWAP3 POP SWAP3 SWAP1 POP JUMP JUMPDEST PUSH2 0x1286 DUP2 PUSH2 0x105F JUMP JUMPDEST DUP3 MSTORE POP POP JUMP JUMPDEST PUSH2 0x1295 DUP2 PUSH2 0x1134 JUMP JUMPDEST DUP3 MSTORE POP POP JUMP JUMPDEST PUSH1 0x0 DUP2 ISZERO ISZERO SWAP1 POP SWAP2 SWAP1 POP JUMP JUMPDEST PUSH2 0x12B0 DUP2 PUSH2 0x129B JUMP JUMPDEST DUP3 MSTORE POP POP JUMP JUMPDEST PUSH1 0x0 PUSH1 0xC0 DUP3 ADD SWAP1 POP PUSH2 0x12CB PUSH1 0x0 DUP4 ADD DUP10 PUSH2 0x127D JUMP JUMPDEST PUSH2 0x12D8 PUSH1 0x20 DUP4 ADD DUP9 PUSH2 0x10DD JUMP JUMPDEST PUSH2 0x12E5 PUSH1 0x40 DUP4 ADD DUP8 PUSH2 0x10DD JUMP JUMPDEST PUSH2 0x12F2 PUSH1 0x60 DUP4 ADD DUP7 PUSH2 0x128C JUMP JUMPDEST PUSH2 0x12FF PUSH1 0x80 DUP4 ADD DUP6 PUSH2 0x128C JUMP JUMPDEST PUSH2 0x130C PUSH1 0xA0 DUP4 ADD DUP5 PUSH2 0x12A7 JUMP JUMPDEST SWAP8 SWAP7 POP POP POP POP POP POP POP JUMP JUMPDEST PUSH1 0x0 DUP3 DUP3 MSTORE PUSH1 0x20 DUP3 ADD SWAP1 POP SWAP3 SWAP2 POP POP JUMP JUMPDEST PUSH32 0x4E6F7420456E6465640000000000000000000000000000000000000000000000 PUSH1 0x0 DUP3 ADD MSTORE POP JUMP JUMPDEST PUSH1 0x0 PUSH2 0x135E PUSH1 0x9 DUP4 PUSH2 0x1317 JUMP JUMPDEST SWAP2 POP PUSH2 0x1369 DUP3 PUSH2 0x1328 JUMP JUMPDEST PUSH1 0x20 DUP3 ADD SWAP1 POP SWAP2 SWAP1 POP JUMP JUMPDEST PUSH1 0x0 PUSH1 0x20 DUP3 ADD SWAP1 POP DUP2 DUP2 SUB PUSH1 0x0 DUP4 ADD MSTORE PUSH2 0x138D DUP2 PUSH2 0x1351 JUMP JUMPDEST SWAP1 POP SWAP2 SWAP1 POP JUMP JUMPDEST PUSH32 0x506C6564676564206C657373207468616E20676F616C00000000000000000000 PUSH1 0x0 DUP3 ADD MSTORE POP JUMP JUMPDEST PUSH1 0x0 PUSH2 0x13CA PUSH1 0x16 DUP4 PUSH2 0x1317 JUMP JUMPDEST SWAP2 POP PUSH2 0x13D5 DUP3 PUSH2 0x1394 JUMP JUMPDEST PUSH1 0x20 DUP3 ADD SWAP1 POP SWAP2 SWAP1 POP JUMP JUMPDEST PUSH1 0x0 PUSH1 0x20 DUP3 ADD SWAP1 POP DUP2 DUP2 SUB PUSH1 0x0 DUP4 ADD MSTORE PUSH2 0x13F9 DUP2 PUSH2 0x13BD JUMP JUMPDEST SWAP1 POP SWAP2 SWAP1 POP JUMP JUMPDEST PUSH1 0x0 PUSH1 0x40 DUP3 ADD SWAP1 POP PUSH2 0x1415 PUSH1 0x0 DUP4 ADD DUP6 PUSH2 0x127D JUMP JUMPDEST PUSH2 0x1422 PUSH1 0x20 DUP4 ADD DUP5 PUSH2 0x10DD JUMP JUMPDEST SWAP4 SWAP3 POP POP POP JUMP JUMPDEST PUSH2 0x1432 DUP2 PUSH2 0x129B JUMP JUMPDEST DUP2 EQ PUSH2 0x143D JUMPI PUSH1 0x0 DUP1 REVERT JUMPDEST POP JUMP JUMPDEST PUSH1 0x0 DUP2 MLOAD SWAP1 POP PUSH2 0x144F DUP2 PUSH2 0x1429 JUMP JUMPDEST SWAP3 SWAP2 POP POP JUMP JUMPDEST PUSH1 0x0 PUSH1 0x20 DUP3 DUP5 SUB SLT ISZERO PUSH2 0x146B JUMPI PUSH2 0x146A PUSH2 0x1004 JUMP JUMPDEST JUMPDEST PUSH1 0x0 PUSH2 0x1479 DUP5 DUP3 DUP6 ADD PUSH2 0x1440 JUMP JUMPDEST SWAP2 POP POP SWAP3 SWAP2 POP POP JUMP JUMPDEST PUSH32 0x7374617274206174203C206E6F77000000000000000000000000000000000000 PUSH1 0x0 DUP3 ADD MSTORE POP JUMP JUMPDEST PUSH1 0x0 PUSH2 0x14B8 PUSH1 0xE DUP4 PUSH2 0x1317 JUMP JUMPDEST SWAP2 POP PUSH2 0x14C3 DUP3 PUSH2 0x1482 JUMP JUMPDEST PUSH1 0x20 DUP3 ADD SWAP1 POP SWAP2 SWAP1 POP JUMP JUMPDEST PUSH1 0x0 PUSH1 0x20 DUP3 ADD SWAP1 POP DUP2 DUP2 SUB PUSH1 0x0 DUP4 ADD MSTORE PUSH2 0x14E7 DUP2 PUSH2 0x14AB JUMP JUMPDEST SWAP1 POP SWAP2 SWAP1 POP JUMP JUMPDEST PUSH32 0x456E64206174203C207374617274206174000000000000000000000000000000 PUSH1 0x0 DUP3 ADD MSTORE POP JUMP JUMPDEST PUSH1 0x0 PUSH2 0x1524 PUSH1 0x11 DUP4 PUSH2 0x1317 JUMP JUMPDEST SWAP2 POP PUSH2 0x152F DUP3 PUSH2 0x14EE JUMP JUMPDEST PUSH1 0x20 DUP3 ADD SWAP1 POP SWAP2 SWAP1 POP JUMP JUMPDEST PUSH1 0x0 PUSH1 0x20 DUP3 ADD SWAP1 POP DUP2 DUP2 SUB PUSH1 0x0 DUP4 ADD MSTORE PUSH2 0x1553 DUP2 PUSH2 0x1517 JUMP JUMPDEST SWAP1 POP SWAP2 SWAP1 POP JUMP JUMPDEST PUSH32 0x4E487B7100000000000000000000000000000000000000000000000000000000 PUSH1 0x0 MSTORE PUSH1 0x11 PUSH1 0x4 MSTORE PUSH1 0x24 PUSH1 0x0 REVERT JUMPDEST PUSH1 0x0 PUSH2 0x1594 DUP3 PUSH2 0x1009 JUMP JUMPDEST SWAP2 POP PUSH2 0x159F DUP4 PUSH2 0x1009 JUMP JUMPDEST SWAP3 POP DUP3 DUP3 ADD SWAP1 POP DUP1 DUP3 GT ISZERO PUSH2 0x15B7 JUMPI PUSH2 0x15B6 PUSH2 0x155A JUMP JUMPDEST JUMPDEST SWAP3 SWAP2 POP POP JUMP JUMPDEST PUSH32 0x656E64206174203E206D6178206475726174696F6E0000000000000000000000 PUSH1 0x0 DUP3 ADD MSTORE POP JUMP JUMPDEST PUSH1 0x0 PUSH2 0x15F3 PUSH1 0x15 DUP4 PUSH2 0x1317 JUMP JUMPDEST SWAP2 POP PUSH2 0x15FE DUP3 PUSH2 0x15BD JUMP JUMPDEST PUSH1 0x20 DUP3 ADD SWAP1 POP SWAP2 SWAP1 POP JUMP JUMPDEST PUSH1 0x0 PUSH1 0x20 DUP3 ADD SWAP1 POP DUP2 DUP2 SUB PUSH1 0x0 DUP4 ADD MSTORE PUSH2 0x1622 DUP2 PUSH2 0x15E6 JUMP JUMPDEST SWAP1 POP SWAP2 SWAP1 POP JUMP JUMPDEST PUSH1 0x0 PUSH1 0x80 DUP3 ADD SWAP1 POP PUSH2 0x163E PUSH1 0x0 DUP4 ADD DUP8 PUSH2 0x10DD JUMP JUMPDEST PUSH2 0x164B PUSH1 0x20 DUP4 ADD DUP7 PUSH2 0x10DD JUMP JUMPDEST PUSH2 0x1658 PUSH1 0x40 DUP4 ADD DUP6 PUSH2 0x128C JUMP JUMPDEST PUSH2 0x1665 PUSH1 0x60 DUP4 ADD DUP5 PUSH2 0x128C JUMP JUMPDEST SWAP6 SWAP5 POP POP POP POP POP JUMP JUMPDEST PUSH32 0x53656E646572206973206E6F74207468652063726561746F72206F6620746869 PUSH1 0x0 DUP3 ADD MSTORE PUSH32 0x732063616D706169676E00000000000000000000000000000000000000000000 PUSH1 0x20 DUP3 ADD MSTORE POP JUMP JUMPDEST PUSH1 0x0 PUSH2 0x16CA PUSH1 0x2A DUP4 PUSH2 0x1317 JUMP JUMPDEST SWAP2 POP PUSH2 0x16D5 DUP3 PUSH2 0x166E JUMP JUMPDEST PUSH1 0x40 DUP3 ADD SWAP1 POP SWAP2 SWAP1 POP JUMP JUMPDEST PUSH1 0x0 PUSH1 0x20 DUP3 ADD SWAP1 POP DUP2 DUP2 SUB PUSH1 0x0 DUP4 ADD MSTORE PUSH2 0x16F9 DUP2 PUSH2 0x16BD JUMP JUMPDEST SWAP1 POP SWAP2 SWAP1 POP JUMP JUMPDEST PUSH32 0x416C726561647920636C61696D65640000000000000000000000000000000000 PUSH1 0x0 DUP3 ADD MSTORE POP JUMP JUMPDEST PUSH1 0x0 PUSH2 0x1736 PUSH1 0xF DUP4 PUSH2 0x1317 JUMP JUMPDEST SWAP2 POP PUSH2 0x1741 DUP3 PUSH2 0x1700 JUMP JUMPDEST PUSH1 0x20 DUP3 ADD SWAP1 POP SWAP2 SWAP1 POP JUMP JUMPDEST PUSH1 0x0 PUSH1 0x20 DUP3 ADD SWAP1 POP DUP2 DUP2 SUB PUSH1 0x0 DUP4 ADD MSTORE PUSH2 0x1765 DUP2 PUSH2 0x1729 JUMP JUMPDEST SWAP1 POP SWAP2 SWAP1 POP JUMP JUMPDEST PUSH32 0x4F6E6C79207468652063726561746F72206D61792063616E63656C2074686520 PUSH1 0x0 DUP3 ADD MSTORE PUSH32 0x63616D706169676E000000000000000000000000000000000000000000000000 PUSH1 0x20 DUP3 ADD MSTORE POP JUMP JUMPDEST PUSH1 0x0 PUSH2 0x17C8 PUSH1 0x28 DUP4 PUSH2 0x1317 JUMP JUMPDEST SWAP2 POP PUSH2 0x17D3 DUP3 PUSH2 0x176C JUMP JUMPDEST PUSH1 0x40 DUP3 ADD SWAP1 POP SWAP2 SWAP1 POP JUMP JUMPDEST PUSH1 0x0 PUSH1 0x20 DUP3 ADD SWAP1 POP DUP2 DUP2 SUB PUSH1 0x0 DUP4 ADD MSTORE PUSH2 0x17F7 DUP2 PUSH2 0x17BB JUMP JUMPDEST SWAP1 POP SWAP2 SWAP1 POP JUMP JUMPDEST PUSH32 0x43616D706169676E206E6F742079657420737461727465640000000000000000 PUSH1 0x0 DUP3 ADD MSTORE POP JUMP JUMPDEST PUSH1 0x0 PUSH2 0x1834 PUSH1 0x18 DUP4 PUSH2 0x1317 JUMP JUMPDEST SWAP2 POP PUSH2 0x183F DUP3 PUSH2 0x17FE JUMP JUMPDEST PUSH1 0x20 DUP3 ADD SWAP1 POP SWAP2 SWAP1 POP JUMP JUMPDEST PUSH1 0x0 PUSH1 0x20 DUP3 ADD SWAP1 POP DUP2 DUP2 SUB PUSH1 0x0 DUP4 ADD MSTORE PUSH2 0x1863 DUP2 PUSH2 0x1827 JUMP JUMPDEST SWAP1 POP SWAP2 SWAP1 POP JUMP JUMPDEST PUSH32 0x43616D706169676E2068617320456E6465640000000000000000000000000000 PUSH1 0x0 DUP3 ADD MSTORE POP JUMP JUMPDEST PUSH1 0x0 PUSH2 0x18A0 PUSH1 0x12 DUP4 PUSH2 0x1317 JUMP JUMPDEST SWAP2 POP PUSH2 0x18AB DUP3 PUSH2 0x186A JUMP JUMPDEST PUSH1 0x20 DUP3 ADD SWAP1 POP SWAP2 SWAP1 POP JUMP JUMPDEST PUSH1 0x0 PUSH1 0x20 DUP3 ADD SWAP1 POP DUP2 DUP2 SUB PUSH1 0x0 DUP4 ADD MSTORE PUSH2 0x18CF DUP2 PUSH2 0x1893 JUMP JUMPDEST SWAP1 POP SWAP2 SWAP1 POP JUMP JUMPDEST PUSH1 0x0 PUSH2 0x18E1 DUP3 PUSH2 0x1009 JUMP JUMPDEST SWAP2 POP PUSH2 0x18EC DUP4 PUSH2 0x1009 JUMP JUMPDEST SWAP3 POP DUP3 DUP3 SUB SWAP1 POP DUP2 DUP2 GT ISZERO PUSH2 0x1904 JUMPI PUSH2 0x1903 PUSH2 0x155A JUMP JUMPDEST JUMPDEST SWAP3 SWAP2 POP POP JUMP JUMPDEST PUSH32 0x4E6F742053746172746564000000000000000000000000000000000000000000 PUSH1 0x0 DUP3 ADD MSTORE POP JUMP JUMPDEST PUSH1 0x0 PUSH2 0x1940 PUSH1 0xB DUP4 PUSH2 0x1317 JUMP JUMPDEST SWAP2 POP PUSH2 0x194B DUP3 PUSH2 0x190A JUMP JUMPDEST PUSH1 0x20 DUP3 ADD SWAP1 POP SWAP2 SWAP1 POP JUMP JUMPDEST PUSH1 0x0 PUSH1 0x20 DUP3 ADD SWAP1 POP DUP2 DUP2 SUB PUSH1 0x0 DUP4 ADD MSTORE PUSH2 0x196F DUP2 PUSH2 0x1933 JUMP JUMPDEST SWAP1 POP SWAP2 SWAP1 POP JUMP JUMPDEST PUSH32 0x43616D706167696E20456E646564000000000000000000000000000000000000 PUSH1 0x0 DUP3 ADD MSTORE POP JUMP JUMPDEST PUSH1 0x0 PUSH2 0x19AC PUSH1 0xE DUP4 PUSH2 0x1317 JUMP JUMPDEST SWAP2 POP PUSH2 0x19B7 DUP3 PUSH2 0x1976 JUMP JUMPDEST PUSH1 0x20 DUP3 ADD SWAP1 POP SWAP2 SWAP1 POP JUMP JUMPDEST PUSH1 0x0 PUSH1 0x20 DUP3 ADD SWAP1 POP DUP2 DUP2 SUB PUSH1 0x0 DUP4 ADD MSTORE PUSH2 0x19DB DUP2 PUSH2 0x199F JUMP JUMPDEST SWAP1 POP SWAP2 SWAP1 POP JUMP JUMPDEST PUSH1 0x0 PUSH1 0x60 DUP3 ADD SWAP1 POP PUSH2 0x19F7 PUSH1 0x0 DUP4 ADD DUP7 PUSH2 0x127D JUMP JUMPDEST PUSH2 0x1A04 PUSH1 0x20 DUP4 ADD DUP6 PUSH2 0x127D JUMP JUMPDEST PUSH2 0x1A11 PUSH1 0x40 DUP4 ADD DUP5 PUSH2 0x10DD JUMP JUMPDEST SWAP5 SWAP4 POP POP POP POP JUMP INVALID LOG2 PUSH5 0x6970667358 0x22 SLT KECCAK256 BYTE SWAP4 0xE7 PUSH12 0x4D602259FB099758006BB471 PUSH24 0x66C8E272D5D23B98AD41F31F032F5364736F6C6343000812 STOP CALLER "
				},
				"gasEstimates": {
					"creation": {
						"codeDepositCost": "1347000",
						"executionCost": "infinite",
						"totalCost": "infinite"
					},
					"external": {
						"cancel(uint256)": "infinite",
						"claim(uint256)": "infinite",
						"launch(uint256,uint32,uint32)": "infinite",
						"pledge(uint256,uint256)": "infinite",
						"refund(uint256)": "infinite",
						"s_campaigns(uint256)": "infinite",
						"s_count()": "2429",
						"s_pledgeAmount(uint256,address)": "infinite",
						"s_token()": "infinite",
						"unpledge(uint256,uint256)": "infinite"
					}
				},
				"methodIdentifiers": {
					"cancel(uint256)": "40e58ee5",
					"claim(uint256)": "379607f5",
					"launch(uint256,uint32,uint32)": "2c63f146",
					"pledge(uint256,uint256)": "fde327be",
					"refund(uint256)": "278ecde1",
					"s_campaigns(uint256)": "bdaa0021",
					"s_count()": "5cf06e21",
					"s_pledgeAmount(uint256,address)": "19268721",
					"s_token()": "65156b31",
					"unpledge(uint256,uint256)": "711853ab"
				}
			},
			"storageLayout": {
				"storage": [
					{
						"astId": 145,
						"contract": "CrowdFund/CrowdFund.sol:CrowdFund",
						"label": "s_campaigns",
						"offset": 0,
						"slot": "0",
						"type": "t_mapping(t_uint256,t_struct(Campaign)137_storage)"
					},
					{
						"astId": 147,
						"contract": "CrowdFund/CrowdFund.sol:CrowdFund",
						"label": "s_count",
						"offset": 0,
						"slot": "1",
						"type": "t_uint256"
					},
					{
						"astId": 153,
						"contract": "CrowdFund/CrowdFund.sol:CrowdFund",
						"label": "s_pledgeAmount",
						"offset": 0,
						"slot": "2",
						"type": "t_mapping(t_uint256,t_mapping(t_address,t_uint256))"
					}
				],
				"types": {
					"t_address": {
						"encoding": "inplace",
						"label": "address",
						"numberOfBytes": "20"
					},
					"t_bool": {
						"encoding": "inplace",
						"label": "bool",
						"numberOfBytes": "1"
					},
					"t_mapping(t_address,t_uint256)": {
						"encoding": "mapping",
						"key": "t_address",
						"label": "mapping(address => uint256)",
						"numberOfBytes": "32",
						"value": "t_uint256"
					},
					"t_mapping(t_uint256,t_mapping(t_address,t_uint256))": {
						"encoding": "mapping",
						"key": "t_uint256",
						"label": "mapping(uint256 => mapping(address => uint256))",
						"numberOfBytes": "32",
						"value": "t_mapping(t_address,t_uint256)"
					},
					"t_mapping(t_uint256,t_struct(Campaign)137_storage)": {
						"encoding": "mapping",
						"key": "t_uint256",
						"label": "mapping(uint256 => struct CrowdFund.Campaign)",
						"numberOfBytes": "32",
						"value": "t_struct(Campaign)137_storage"
					},
					"t_struct(Campaign)137_storage": {
						"encoding": "inplace",
						"label": "struct CrowdFund.Campaign",
						"members": [
							{
								"astId": 126,
								"contract": "CrowdFund/CrowdFund.sol:CrowdFund",
								"label": "s_creator",
								"offset": 0,
								"slot": "0",
								"type": "t_address"
							},
							{
								"astId": 128,
								"contract": "CrowdFund/CrowdFund.sol:CrowdFund",
								"label": "s_goal",
								"offset": 0,
								"slot": "1",
								"type": "t_uint256"
							},
							{
								"astId": 130,
								"contract": "CrowdFund/CrowdFund.sol:CrowdFund",
								"label": "s_pledged",
								"offset": 0,
								"slot": "2",
								"type": "t_uint256"
							},
							{
								"astId": 132,
								"contract": "CrowdFund/CrowdFund.sol:CrowdFund",
								"label": "s_startAt",
								"offset": 0,
								"slot": "3",
								"type": "t_uint32"
							},
							{
								"astId": 134,
								"contract": "CrowdFund/CrowdFund.sol:CrowdFund",
								"label": "s_endAt",
								"offset": 4,
								"slot": "3",
								"type": "t_uint32"
							},
							{
								"astId": 136,
								"contract": "CrowdFund/CrowdFund.sol:CrowdFund",
								"label": "s_claimed",
								"offset": 8,
								"slot": "3",
								"type": "t_bool"
							}
						],
						"numberOfBytes": "128"
					},
					"t_uint256": {
						"encoding": "inplace",
						"label": "uint256",
						"numberOfBytes": "32"
					},
					"t_uint32": {
						"encoding": "inplace",
						"label": "uint32",
						"numberOfBytes": "4"
					}
				}
			},
			"userdoc": {
				"kind": "user",
				"methods": {},
				"version": 1
			}
		}
	}
}